:020000040800F2
:1000000058080020B1010008A70C0008D90B00080F
:10001000A50C0008BD020008C50E00080000000085
:10002000000000000000000000000000AB0C000811
:10003000BF02000800000000A90C0008AD0C000879
:10004000CB010008CB010008CB010008CB01000860
:10005000CB010008CB010008CB010008CB01000850
:10006000CB010008CB010008CB010008CB01000840
:10007000CB010008CB010008CB010008CB01000830
:10008000CB010008CB010008CB01000800000000F4
:10009000000000000000000000000000CB0100088C
:1000A000CB010008CB010008CB010008CB01000800
:1000B000CB010008CB010008CB010008CB010008F0
:1000C000CB010008CB010008CB010008CB010008E0
:1000D000CB010008CB010008CB01000800000000A4
:1000E000CB010008CB010008CB0100080000000094
:1000F000000000000000000000000000CB0100082C
:1001000000000000CB010008CB010008CB01000873
:1001100000000000000000000000000000000000DF
:10012000CB010008CB010008CB010008CB0100087F
:10013000CB010008000000000000000000000000EB
:10014000000000000000000000000000CB010008DB
:10015000CB010008CB010008CB010008CB0100084F
:10016000CB010008CB0100080000000000000000E7
:10017000000000000000000000000000000000007F
:1001800000000000CB01000800000000000000009B
:10019000CB010008CB010008DFF810D000F07CF89C
:1001A00000480047DB100008AFF30080580800202B
:1001B0000648804706480047FEE7FEE7FEE7FEE701
:1001C000FEE7FEE7FEE7FEE7FEE7FEE7410D00087B
:1001D000990100082DE9F05F0546002092469B46F4
:1001E00088460646814640241BE02846414647464D
:1001F000224600F041F853465A46C01A914110D3A6
:1002000011461846224600F028F82D1A67EB01081F
:100210004F4622460120002100F01FF817EB00098D
:100220004E41201EA4F10104DFDC484631462A4637
:100230004346BDE8F09FD2B201E000F8012B491E11
:10024000FBD270470022F6E710B513460A46044673
:100250001946FFF7F0FF204610BD202A04DB203AA4
:1002600000FA02F1002070479140C2F1200320FA09
:1002700003F3194390407047202A04DB203A21FA07
:1002800002F00021704721FA02F3D040C2F12002AF
:100290009140084319467047064C074D06E0E06858
:1002A00040F0010394E8070098471034AC42F6D3BD
:1002B000FFF776FF9C490008BC490008FEE770473D
:1002C00072B6FEE770B5044600F0DEF80546601C25
:1002D00002D004480078044400F0D6F8401BA04245
:1002E000FAD370BD000000202DE9F84F00224FF036
:1002F000010803254FF00F0E0B6808FA02F42340A3
:10030000A34271D14E68012E05D0022E03D0112ECA
:1003100001D0122E15D18668570005FA07FC26EA8F
:100320000C06D1F80CC00CFA07FC4CEA060CC0F81D
:1003300008C04668A6430C79C4F3001494403443C3
:100340004460C668570005FA07FC8C6826EA0C066C
:10035000BC403443C4604C68022C01D0122C13D131
:10036000D40800EB8404A346D4F8209054074FEA45
:10037000D46A0EFA0AF629EA06090E6906FA0AF69E
:1003800046EA0906CBF8206004680E7924EA0C04DA
:1003900006F00306BE40264306604C68E40056D5CE
:1003A0002E4C266846F480462660246822F0030618
:1003B00004F4804400942A4C3444A446D4F80848F9
:1003C0009607370F0EFA07F6B443264EB04201D116
:1003D000002615E0244EB04201D1012610E0234E44
:1003E000B04202D102260BE031E0214EB04201D1F1
:1003F000032605E01F4EB04201D1042600E0072687
:10040000BE402643CCF808681B4E34684F689C43B6
:10041000FF0300D51C433460174E361D34684F6807
:100420009C43BF0300D51C433460134E0836346828
:100430004F689C43FF0200D51C4334600E4E0C36BF
:1004400034684F689C43BF0200D51C433460521C83
:10045000102AFFF451AFBDE8F88F00004438024085
:100460000030014000000240000402400008024049
:10047000000C024000100240003C01400AB18161C2
:1004800070470904FBE700000148806870470000DE
:1004900000000020024881680278114481607047A2
:1004A000000000200B4810B5016841F400710160A4
:1004B000016841F480610160016841F4807101606C
:1004C000032000F061F8002000F006F800F024F8A6
:1004D000002010BD003C024070B50D4D04464FF4A5
:1004E0007A712878B1FBF0F00A490968B1FBF0F0A5
:1004F00000F0F6FA48B9102C07D200222146501E0F
:1005000000F022F800206C6070BD012070BD00007A
:10051000000000200C0000200A4808B5016841F4E2
:1005200080410160006800F4804000900548001F91
:10053000016841F080510160006800F08050009037
:1005400008BD000044380240F0B40E4B1B680C4656
:10055000C3F30223C3F10705042D00D90425191D97
:10056000072901D2002300E0DB1E012606FA05F16F
:10057000491E214099409E40761E16403143F0BCF2
:1005800000F0A1BC0CED00E0064900F0070208688D
:100590004FF6FF03184040EA0220034A1043086068
:1005A000704700000CED00E00000FA052DE9F0476F
:1005B0000E46050065D0DFF81481D8F80000F7B2C8
:1005C00000F00F00B04207D288F80070D8F80000A1
:1005D00000F00F00B04254D128683D4C810712D57D
:1005E000400703D5206840F4E050206028780007D9
:1005F00003D5206840F4604020602068A96820F09E
:10060000F000084320602878C0072DD03049686882
:100610000839012812D0022813D0032811D0096804
:10062000890700292DDA216821F0030101432160A7
:10063000FFF72AFF814641F2883A0EE009688903F4
:10064000EFE709688901ECE7FFF71EFFA0EB09015E
:10065000514502D90320BDE8F0872068696800F0A1
:100660000C00B0EB810FEFD1D8F80010404601F03C
:100670000F01B14207D90770006800F00F00B042C7
:1006800001D00120E7E72878400705D52068E96810
:1006900020F4E050084320602878000706D5206841
:1006A000296920F4604040EAC100206000F038F879
:1006B0002168084AC1F30311515CC840064908602B
:1006C00006480068FFF708FF0020C4E7003C02402E
:1006D00008380240B01F00080C0000200400002071
:1006E0000448054900680968044AC1F38221515C45
:1006F000C84070470C00002008380240C01F0008A6
:100700000448054900680968044AC1F34231515C54
:10071000C84070470C00002008380240C01F000885
:10072000154810B5006810F00C02144813D0144995
:10073000042A0FD0082A0ED10F4C241F22682368E8
:1007400002F03F025B0207D52068C0F38810A0FBCF
:10075000010106E0084610BD2168C1F38811A1FB24
:1007600000010023FFF736FD2168C1F30141491C58
:100770004900B0FBF1F010BD083802400024F4003D
:1007800040787D012DE9F84F04006ED02078DFF825
:100790003C93C007A9F104054AD009F1040001689F
:1007A000C1F38101012908D00068C0F3810002284B
:1007B0000AD1D9F80000400206D52868800337D551
:1007C00060680028E1D033E06068B0F5803F10D069
:1007D000B0F5A02F286810D020F480302860286859
:1007E00020F4802028606068A8B1FFF74DFE06461F
:1007F0000DE0286840F48030F4E740F48020286061
:10080000F7E700BFFFF740FE801B642873D8286815
:100810008003F7D50CE0FFF737FE064605E000BF82
:10082000FFF732FE801B6428F0D828688003F7D4D5
:100830002078DFF89C8280074FF0000A3ED5A3485D
:10084000001D016811F00C0F08D00068C0F3810092
:1008500002280BD1D9F80000400207D4286880078D
:1008600016D5E068012800D112E02BE1E068B8B1AC
:100870000120C8F80000FFF707FE064605E000BFAC
:10088000FFF702FE801B0228C0D828688007F7D532
:100890002868216920F0F80040EAC10028600DE0D6
:1008A000C8F800A0FFF7F0FD064604E0FFF7ECFDF6
:1008B000801B02281FD828688007F7D420780007FB
:1008C00022D5824E83486169703671B10121016081
:1008D000FFF7DAFD074604E0FFF7D6FDC01B02284C
:1008E00009D830688007F7D50EE0C0F800A0FFF700
:1008F000CBFD074605E082E0FFF7C6FDC01B0228DE
:100900007DD830688007F7D42078400768D5DFF8B5
:10091000BCB100270BF13C0BDBF80000C0000BD48E
:10092000DBF8001041F08051CBF80010DBF800003C
:10093000012700F080500090674E3068C00510D449
:10094000306840F480703060FFF79EFD009005E055
:10095000FFF79AFD0099401A022850D83068C00568
:10096000F6D55A4EA0686C3601280FD0052830689D
:1009700010D020F001003060306820F004003060BA
:10098000A068B8B1FFF780FD00900FE0306840F03C
:100990000100F4E740F004003060F7E7FFF774FD72
:1009A0000099411A41F28830814266D83068800748
:1009B000F4D50EE0FFF768FD009007E0FFF764FD57
:1009C0000099411A41F28830814256D83068800738
:1009D000F4D42FB1DBF8001021F08051CBF80010D7
:1009E000A069C8B33949091D0968C1F38101022909
:1009F0004AD00228504607D0C8F8600000E03CE02A
:100A0000FFF742FD04463BE04746C8F86000FFF7A9
:100A10003BFD064605E000BFFFF736FD801B0228C0
:100A20002BD828688001F7D4D4E907010843A16ACC
:100A30002A4A490802EB0141626A41EA82110843ED
:100A400094F82C1040EA0161C9F8001001203866C2
:100A5000FFF71AFD044606E036E000BFFFF714FD7D
:100A6000001B022809D828688001F7D52CE000BFB8
:100A7000FFF70AFD001B022802D90320BDE8F88F0A
:100A800028688001F4D41FE00128F7D0D9F80000CD
:100A9000E26900F48001914214D1226A00F03F0122
:100AA00091420FD147F6C071626A0140914209D16B
:100AB000A26A00F44031914204D1E16A00F0706012
:100AC000884201D00120D9E70020D7E7043802404E
:100AD00000004742800E4742007000400000FFFFC8
:100AE00010B5401EB0F1807F01D3012010BD4FF042
:100AF000E02460610F21601700F0E5F90020A0619B
:100B000007202061002010BD70B5040004D094F8C7
:100B10003900002510B106E0012070BD84F838507E
:100B2000204600F023F8242084F839002068C168AA
:100B300021F40051C160204600F010F920680169DD
:100B400021F4904101612068416921F02A0141614D
:100B50002068C16841F40051C160E563202084F839
:100B6000390084F83A00002070BD000010B586B04E
:100B7000044614216846FFF765FB14492068884243
:100B800021D113480021026842F01002026000687F
:100B900000F0100005900E481438026842F001027F
:100BA0000260006800F0010005904FF4C060009002
:100BB0000220CDE90101032003900720049069463B
:100BC0000448FFF791FB06B010BD00000010014083
:100BD0004438024000000240FEE7000070B586B0D5
:100BE00014216846FFF72EFB1D480024016841F0E0
:100BF00004010160016801F004010591016841F000
:100C000080010160016801F080010591016841F0F7
:100C100001010160016801F001010591016841F0E5
:100C20000201016000680F4E00F002004FF4005511
:100C30000590002229463046FFF720FC009501254B
:100C4000CDE90154694630460394FFF74DFBCDE9E9
:100C50000054694604480294FFF746FB06B070BD95
:100C60003038024000080240000002400C4810B535
:100C70000A4901604FF4E1314160002181600C229A
:100C8000C160C0E904128161C161FFF73DFF002826
:100C900003D0BDE81040FFF713BB10BD00100140AA
:100CA00018000020FEE7FEE770477047FFF7F2BB31
:100CB00030B593B030216846FFF7C4FA14210CA870
:100CC000FFF7C0FA1C480024016841F08051016020
:100CD000006800F0805011901848016841F44041CC
:100CE00001600068022500F440401190012003904B
:100CF0001020009506950490CDE90740C820CDE965
:100D0000090504200B906846FFF73CFD08B172B658
:100D1000FEE70F20CDE90C054FF48050CDE90E40E1
:100D200003210CA81094FFF741FC002801D072B6F3
:100D3000FEE713B030BD00004038024000700040B4
:100D40000548016841F47001016003494FF00060FB
:100D5000803908607047000088ED00E02DE9F0411F
:100D6000044600680169E26821F4405111430161C1
:100D70002169A068E2690843616911430843216859
:100D8000CA6849F20C639A430243CA602068416909
:100D9000A26921F4407111434161E069192764257A
:100DA0003226B0F5004F354A354920684FF000082B
:100DB00006D0884201D0904236D1FFF7A1FC35E041
:100DC000884201D0904202D1FFF79AFC01E0FFF780
:100DD00087FC61684A18A0FB070148EB0803FFF78E
:100DE000F9F90146B0FBF5F00201B1FBF5F06FF047
:100DF0001803584301EB800006EBC000B0FBF5F090
:100E000000F0F80002EB4002B1FBF5F0584301EBB3
:100E1000800006EBC000B0FBF5F000F00700216891
:100E200010448860BDE8F081FFF75AFC61688B0FC1
:100E30008A00A0FB0701FFF7CDF90146B0FBF5F0F2
:100E40006FF01802504301EB800006EB0010B0FB7E
:100E5000F5F000F0F002B1FBF5F002EB0012B1FB8F
:100E6000F5F06FF01803584301EB800006EB00101B
:100E7000B0FBF5F000F00F00D1E7000000140140D6
:100E80000010014010B50D4886B00024016841F003
:100E9000020101600068142100F00200059068461C
:100EA000FFF7D0F9C02000900120CDE90104694688
:100EB00003480394FFF718FA06B010BD303802401B
:100EC00000040240FEE70907090E002804DB00F1D8
:100ED000E02080F80014704700F00F0000F1E020DF
:100EE00080F8141D704702E008C8121F08C1002ACC
:100EF000FAD170477047002001E001C1121F002A9B
:100F0000FBD17047A8214843800800BF401EFCD297
:100F10007047000010B50446012100F025FA0021B9
:100F2000204600F01EFA2849204600F00AFA27A3BE
:100F300014220021204600F0A3F90121204600F0F0
:100F400010FA2349204600F0FCF922A308221521BB
:100F5000204600F095F90021204600F002FA1A49D7
:100F6000204600F0EEF91CA31E223321204600F09B
:100F700087F91AA31E224321204600F081F92F236E
:100F800023220221204600F01FF92F2324220321CF
:100F9000204600F019F90C2320222D21204600F0D4
:100FA00077F90C2321222E21204600F071F90C49FB
:100FB000204600F0C6F920463622BDE8104009A3BD
:100FC000012100F05DB900009B22000855000000DF
:100FD000134500083800000067000000B200000060
:100FE000C81F00086769746875622E636F6D2F6F84
:100FF0006C696B726175732F753867320000000081
:1010000000224C2100F0B4BF00224D2100F0B0BFFF
:1010100001684A7B2D2100F0ABBF10B504460122C8
:101020004C2100F0A5FF2046BDE81040FFF7F0BFBF
:1010300001224D2100F09CBF10B5044611B1FFF70D
:10104000F7FF01E0FFF7E0FF2046FFF7E1FF204652
:10105000FFF7E3FF2046BDE81040FFF7D1BF70B5B2
:101060000C46054601F08001FFF7E6FF04F0400161
:101070002846FFF7E1FF04F020012846FFF7DCFFD8
:1010800004F010012846FFF7D7FF04F008012846B6
:10109000FFF7D2FF04F004012846FFF7CDFF04F06C
:1010A00002012846FFF7C8FF04F001012846FFF7B8
:1010B000C3FF2846FFF7BCFF2846FFF7A9FF2846D5
:1010C000FFF7ABFF2846FFF7B3FF2846FFF7A0FF67
:1010D0002846BDE87040FFF793BFA6B0FFF7E2F9DE
:1010E000FFF7E6FDFFF77AFDFFF7C0FDFFF7CAFE49
:1010F000684600F00DF8684600F0D0F86846FFF743
:1011000009FF684600F0F0F80028F7D1F3E7000087
:1011100010B50446084B094A094900F05FF920461A
:1011200000F0ABFC0021204600F0B7FC2046BDE8F3
:10113000104000F007B80000E11E00083D1B000849
:1011400038480008016890F83820097C12FB01F14A
:10115000C900406BFFF776B82DE9F041044690F8DE
:1011600070001F4615460E4630B1012809D00228EE
:101170000CD0032815D10FE0E16D204688472844A4
:1011800008E0E16D20468847301A09E0E16D20460D
:101190008847281A85B204E0E16D2046884730442C
:1011A00086B22846A4F86460A4F866003946002593
:1011B000204600F009FB010003D0204600F034FA7D
:1011C00085B22846BDE8F08138B50024009400F0CF
:1011D00001F838BD3FB581B0044690F88C000899FD
:1011E00000283AD0BDF81000002836D0012811D9C7
:1011F000022902D0032907D00CE0BDF80820101AFC
:10120000401CADF8080005E0BDF80C20101A401C89
:10121000ADF80C0011F0010521D0B4F84810BDF86C
:101220000800814219D8B4F84A10814215D9B4F89F
:101230004E30B4F84C2004A90DF10C0000F066F912
:1012400000280AD00095206BBDF81030BDF80C20A6
:101250008568BDF808102046A84705B030BDB4F831
:101260004C10BDF80C008142F7D8B4F84E10814202
:10127000F3D9B4F84A30B4F8482004A902A8DDE74D
:1012800030B4024C446030BC00F06DB9011B000862
:1012900038B501240094FFF79DFF38BD10B5044612
:1012A00090F8930010B12046FFF74CFF2046BDE8B0
:1012B0001040002100F037B870B50D461E460446B8
:1012C000B0F84E10B0F84C00049B00F0DAFA002899
:1012D00009D0B4F84A10B4F8480033462A46BDE8AD
:1012E000704000F0CEBA70BD70B5044600F059FBF6
:1012F00094F8390094F838100844C5B22068407C4E
:10130000A84204D8204600F0C0FB002070BD94F82D
:10131000930010B12046FFF715FF2946204600F044
:1013200002F8012070BD10B5044680F83910006B3A
:10133000016820468847206B41682046BDE8104080
:10134000084710B50446806D884209D004F1740046
:10135000A16500F0F1FA2046BDE8104000F05AB84F
:1013600010BD80F87010704780F86D107047000055
:101370000149C16570470000DD1500080021A0F893
:101380005010A0F854104FF6FF71A0F85210A0F8BA
:101390005610016B4968084770B50446002504984B
:1013A000A565E362616384F8382084F8395084F8D5
:1013B0006D5084F89150012184F8921084F89310B4
:1013C00020630168204688472046FFF7D7FF204664
:1013D000FFF7CEFF84F8705070BD00007CB50C465E
:1013E000009313460546084A084900F05EFB01A831
:1013F00000F09CFA0146064B00949DF80420284614
:10140000FFF7CAFF7CBD0000B11C0008D91D000811
:101410009D18000810B5816D00291AD090F981300F
:1014200080F88E3090F9822080F88F2090F88D100F
:1014300000290ED001290DD090F97E4090F980103E
:101440000C449C4201DD80F88E408A4201DD80F828
:101450008F1010BD90F983108B4201DA80F88E1046
:1014600090F98410F1E72BB1012B05D0022B06D0A7
:10147000104402E0084400E0801A80B27047401A2D
:10148000FBE72BB1012B05D0022B06D0401A02E05E
:10149000104400E0084480B27047801AFBE738B57A
:1014A0000446B0F856000090B4F85230B4F8542016
:1014B000B4F850102046FFF7FFFE18B3012084F85F
:1014C0008C00B4F84810B4F85000814201D2A4F85E
:1014D0004800B4F84A10B4F85200814201D9A4F887
:1014E0004A00B4F84C10B4F85400814201D2A4F878
:1014F0004C00B4F84E10B4F85600814201D9A4F85B
:101500004E0038BD002084F88C0038BD30B504880A
:101510000D882544ADB2AC4205D99C4202D25D1E75
:10152000ADB200E014469C4201D2954201D80020A1
:1015300030BD944200D214469D4200D91D4604801D
:10154000281B0880012030BD38B5C58F049C00944D
:10155000521BC46A92B2A04738BD38B5049C0094AF
:10156000FFF7F2FF38BD2DE9F0471C46914688464B
:10157000064600F019FD00254FF6FF7772682178C6
:10158000304690470346B84225D0641CA3F57F40FF
:10159000FE38F3D04A4641463046FFF7DDFD96F867
:1015A000701031B1012907D0022908D003290FD1C9
:1015B0000AE008EB000104E009EB000106E0A8EBFB
:1015C00000011FFA81F803E0A9EB00011FFA81F97D
:1015D000284485B2D2E72846BDE8F087002070474E
:1015E00010B50C4600F006F80122641EA240801AD5
:1015F00040B210BD30B50568047B2A78E24063181C
:10160000DBB2082B09D36D1C05602D78C4F10804EA
:10161000A5401543083BEAB2DBB201248C40641EAE
:1016200014400373204630BD2DE9F843054600F110
:10163000600400F00CF915F96B6F2046E97BFFF7A9
:10164000CFFF8146297C2046FFF7CAFF0746697C09
:1016500020466B3DFFF7C4FF804694F90A0000283E
:1016600057DDF019404247B2237CA0883A464946EC
:10167000FFF7F9FEA080237C3A46E0884946FFF751
:1016800000FFE080A188277C02460B4637B1012F7E
:101690000AD0022F40D0032F0FD146E094F90A70F0
:1016A00030443B449BB207E0891B491C94F90A7003
:1016B0005B1C89B29BB2384480B200902846FFF789
:1016C000FBFD30B30020207284F8090095F87610F5
:1016D0002046FFF78FFF814695F877102046FFF7E9
:1016E00089FF074600224946284600F027F80122D4
:1016F0003946284600F022F801212046FFF77AFFFC
:101700000028EFD194F90900B042DFDBA07B85F817
:1017100092004046BDE8F88394F90A705B1CC91B2F
:10172000491C89B29BB2921B04E094F90A703344BD
:101730009BB2D21B521C92B2401CBDE72DE9F74F61
:1017400084B00D46049C94F8687094F86980603405
:10175000A07AC01BC6B20196B54200D201954FFADD
:1017600088F279B2A088B4F806B0237C9246894604
:10177000FFF779FE0290237C524649465846FFF710
:1017800080FE0246069808B1A17B02E0607B50B95A
:10179000E17B049880F89210207C0090DDE9013113
:1017A0000498FFF717FDB54207D3A81BC5B208F18F
:1017B0000100002700F0FF08CAE77819207284F8BA
:1017C000098007B0BDE8F08F70B50D460146806D09
:1017D0001730FF2D10D8612D02D3B1F8881003E027
:1017E000412D02D3B1F886100844417819B302782C
:1017F000AA42F9D1801C70BDB1F88A100C18264697
:101800000021304600F019F804440221304600F06F
:1018100014F8361DA842F3D34FF6FF72207802EA7F
:1018200000216078084306D0A84201D1E01C70BDB9
:10183000A0780444F2E7002070BD08444FF6FF7220
:101840000178407802EA0121084480B2704730B53F
:10185000054600F1600401660020207315F8781F2A
:101860002046FFF7C7FEA07269782046FFF7C2FE48
:10187000E072A87EA07310B10020E07330BD01209B
:10188000FBE78A4205D2834201D89A4203D901205C
:1018900070478342F9D8002070470000F0B502F08D
:1018A00007060124B440002590F892E0E7B2DDF885
:1018B00014C02C46BEF1010F01D83D4600D03C4675
:1018C000076822F00702BCF1000F3F7C07FB02F71C
:1018D000BAB2476B3A44114409D108785B1E2843D9
:1018E00060401B0401F8010B1B0CF6D1F0BD0A7817
:1018F000761C2A436240A3F101030A7016F0070622
:101900009BB206D06A06150E6206140E002BEED1AD
:10191000F0BD428F114490F89220012A03D800BFF5
:101920004FF00105F2D04FF00104EFE708210170FC
:10193000004870475800002070B5054608782870A8
:10194000487868708878A870C878E8700879287135
:101950004879687188790C46A871E079E871207A35
:101960002872607A6872A07AA872E07AE872207BA6
:101970002873607B6873A07BA873E07BE873207C8E
:10198000287411212046FFF758FF68821321204652
:10199000FFF753FFA88215212046FFF74EFFE8828C
:1019A00070BD2DE9F843064690F8387090F839502C
:1019B000006800244FF6FF7890F8119031683046A7
:1019C0002A460B7C716B04FB03FC1FFA8CFC08EAB3
:1019D000CC0C61440091002100F040F8641C6D1CA7
:1019E000E4B2EDB2BC4201D24D45E7D3BDE8F88385
:1019F000F0B590F838204FF6FF75036805EAC2018C
:101A00008187197C05EAC101418790F8394005EAD0
:101A1000C401C1875E7CA718B74201D9321B92B2BC
:101A200005EAC20220F8401F11444180998A818052
:101A3000D98AC180F0BDFFF7DBBF0021A0F84810B4
:101A4000B0F84410A0F84A10B0F84010A0F84C10BC
:101A5000B0F84210A0F84E10FFF721BD1CB58DF86C
:101A600005108DF80620049C8DF8043000940122A6
:101A700084686B460F21A0471CBD30B484680023E6
:101A8000A44630BC1A460A21604730B4846800235B
:101A9000A44630BC1A461021604730B48468002345
:101AA000A4460A4630BC0B2160472DE9F04115469B
:101AB0000E460446069F00F009F86761A660C4E977
:101AC00003532046BDE8F04100F012B8002140F871
:101AD000081B064A026042608260C260C17681775C
:101AE0000161FF21017780F820107047DD1E00089A
:101AF00030B484680023A44630BC1A4609216047EC
:101B0000080001D00A2801D14FF6FF70704730B4A9
:101B100004690023A44630BC1A461921604713B556
:101B20000122046901AB1721A0471CBD30B4046930
:101B30000023A44630BC1A461821604770B51646EB
:101B40000446182924D004DC142914D0172904D100
:101B500005E019293DD020294CD0002070BD1D463C
:101B600006E029782046FFF77AFA761EF6B26D1C59
:101B7000002EF6D13EE001224C2100F0F9F90122BD
:101B80004D21204600F0F4F92046FFF741FA31E0FC
:101B900094F8250040B12046FFF74AFA2046FFF7A7
:101BA00037FA2046FFF739FA2046FFF741FA204678
:101BB000FFF72AFA2046FFF72BFA2046FFF720FA14
:101BC000012184F82510204694F82410FFF747FAE5
:101BD00010E0FFF719FA2046FFF71AFA2046FFF740
:101BE0001CFA2046FFF724FA2046FFF711FA0020DE
:101BF00084F82500012070BD30B4C4680023A446D9
:101C000030BC1A461921604730B4C4680023A4468A
:101C10000A4630BC1621604730B4C4680023A4468D
:101C20000A4630BC1521604730B4C4681346A44648
:101C30000A4630BC17216047F8B50C464FEA00054C
:101C400014F8011B182924D00EDC152919D01629E7
:101C500017D0172923D120788DF800006A4601217A
:101C60002846FFF7E1FF0AE0192912D0FE2916D114
:101C700022788DF800202921284600F079F9641C8B
:101C8000DEE722788DF80020EE6800232846B04772
:101C9000F5E70023EE681A462846B047D0E7F8BDBE
:101CA00030B4C4680023A44630BC1A4618216047EB
:101CB0002DE9F041DFF8B08014460646A1F1140288
:101CC000002798F800001D46062A4AD2DFE802F0F5
:101CD0002F03161B3E4310B13046FFF718FF304666
:101CE000FFF724FF00213046FFF719FF2146304659
:101CF000FFF715FF012088F8000029E02146304653
:101D0000FFF70DFF24E050B13046FFF700FF06E07B
:101D10001821304600F032F9183CE4B21835182C7E
:101D20002A46F5D82146304600F028F90EE096F80C
:101D30002400FF2802D1782086F8240037692B463A
:101D400022463046BC46BDE8F041604788F8007046
:101D50000120BDE8F0810028F8D03046FFF7D7FE1B
:101D6000F4E70020F5E700001000002070B5002324
:101D7000456904461A462821A8470023E5681A4603
:101D800014212046A84701224B21204600F0F0F8FC
:101D9000206829210279204600F0EAF800224B2130
:101DA000204600F0E5F8206829210279204600F05D
:101DB000DFF801224B21204600F0DAF820682921C3
:101DC00042792046BDE8704000F0D2B80160897CBD
:101DD00080F822107047000070B50C46054600F0F0
:101DE00019F888B9092C0BD00A2C01D0002070BD3D
:101DF0002846FFF7BBFF05492846FFF71DFF03E014
:101E000003492846FFF7E2FF012070BD6A48000839
:101E10006C4900082DE9F0411E46144605460B2981
:101E200008D00D290ED00E291ED00F2927D0002052
:101E3000BDE8F0811AB12849FFF7FEFE4AE02649C5
:101E4000491FF9E74AB124490C31FFF7F5FE28682C
:101E500090F8130085F822003CE01F49491DFFF768
:101E6000EBFE2868807CF5E7FFF71AFF8121284602
:101E7000FFF7D2FE21462846FFF7C6FE27E0FFF710
:101E80000FFF707995F8221001EBC000C7B2402116
:101E90002846FFF7C1FE102040EA17112846FFF739
:101EA000BBFE07F00F012846FFF7AEFEB07940F009
:101EB000B0012846FFF7A8FE30793268C006010E4F
:101EC0002846FFF7B1FE641E14F0FF04F4D1284643
:101ED000FFF792FE0120ABE7494800080020704759
:101EE00010B5224B4D2934D00CDC2B2918D004DC42
:101EF000292920D02A290ED114E02D291FD04C29C0
:101F000009D120E0002250292CD051292AD0522971
:101F100028D0532926D0012180F82710012010BD98
:101F200000BFFBE700204FF4A07100BF401C80B24F
:101F30008842FAD3F2E70120FEF7C4F9EEE7052064
:101F4000FEF7E0FFEAE7012A01D0002AE6D14021AE
:101F500004E0012A01D0002AE0D180211846FEF7D2
:101F60008DFADBE780F82720D8E700000004024064
:101F700030B444690023A44630BC60472DE9F041E9
:101F800015460E460446FFF7D1FD40212046FFF7D7
:101F9000C6FD27692B46324617212046B847204602
:101FA000BDE8F041FFF7B3BD002180F8261070476F
:101FB00000000000000000000102030406070809F9
:101FC00000000000010203045F0002020303020498
:101FD00004040600FF05FF05FF00E901D302B62057
:101FE0000580CD002106E9C8AC00220693CB24155C
:101FF000230AACC8A434541A2A012409B3C7A5A1E2
:10200000474A002508ABC864D446012609ACC8C5B8
:1020100014AB98022705D1CB082807F2C7A96600A0
:102020002908B2C7C45429002A07ABC8A46A352BB3
:1020300008ABC8C5B462022C0692C729002D058BD7
:10204000CA0C2E05C9C8042F07ABC8566504300852
:10205000ABC8554355003107ABC825590D3207AB06
:10206000C835531A3308ABC8CC9417003408ABC832
:10207000243562013508ABC88CA817003607ABC8F9
:102080004DD5023708ABC8CC5446003807ABC8ADB5
:10209000D6023907ABC8B5E4023A06E1C8C4003B32
:1020A00007AAC765A8003C07ABC8A6BA003D069BB7
:1020B000C9EC013E07ABC8E4AA043F08ABC8E894EA
:1020C00061024006ABC82D5B4108ABC85543A9006F
:1020D0004208ABC8A8B4D2024308ABC85532550079
:1020E0004408ABC8A8642D004508ABC88CA8E20022
:1020F0004608ABC88CA862044708ABC8CDA49200C0
:102100004808ABC82435940A4907ABC8AC580D4AF7
:1021100007ABC896AA024B08ABC824B5920A4C0775
:10212000ABC8C4E6004D08ABC8A431940A4E08AB56
:10213000C8AAA124004F07ABC85556055008ABC824
:10214000A8B462045107B3C755561D5208ABC8A8BE
:10215000B4920A5307ABC8EDBC005407ABC8ACD867
:10216000025507ABC824D7085608ABC8246BA40493
:102170005708ABC82435860A5808ABC824D5520185
:102180005908ABC8245556005A07ABC8CC540E5B4F
:1021900006EAC8AC4A5C07ABC8C45C065D06AAC8C0
:1021A000A86A5E0593CB355F058BC70C6006D2CB62
:1021B000C4006107A3C82D95046208ABC84495D438
:1021C000026306A3C8CD2C6408ABC8A6A59200651F
:1021D00006A3C855536608ABC8A6B462026708AB2D
:1021E000C7AD2417006808ABC84495AC006908ABBC
:1021F000C86524D3006A08B3C766582E006B08ABC5
:10220000C8C4B4920A6C07ABC8C8D6006D08A3C88E
:10221000A4A154006E07A3C8A864056F07A3C855FE
:10222000AA027008ABC7A8B462047108ABC72D95A9
:1022300064007208A3C8A41523007307A3C88DBC4B
:10224000007408ABC8A51573007507A3C8242B0933
:102250007607A3C824AB027708A3C82435540078B6
:1022600007A3C8A432157908ABC72495E4027A07FE
:10227000A3C8CC94067B08B3C7A624EB007C06E970
:10228000C80C017D09B3C7E4A8628A007E0794CB1D
:1022900025950000000004FFFF0000BF02050405B3
:1022A00006010406152600F918FA19F904E10AAE28
:1022B000225B200BD51CF587FFFF7F17002119D566
:1022C0001CF587532316588BF417879CFB00116865
:1022D0009E0D920F2F002224D51CF58743A288451E
:1022E00006516410450651641045065164104506B8
:1022F0005164104506F9F0FF13002343D51CF58700
:10230000EB838C3506596390350659638C45C63886
:102310000F8CF1C018171A83AC31C81A83AC31C6C0
:102320002263A007C478608C07C61964AC31C81A50
:1023300083AC31061B632C32C622637C78243BD5E8
:102340001CF5875B2412689A520C91900C114488FA
:10235000430411011141560984654D6B892546429C
:10236000594490450431811041CA182490F24030FC
:102370002EAD5622F56114002541D51CF587DBE40E
:1023800010720A298810A204294490500A112410BE
:10239000E3100A049D4016110412582015956AA8EE
:1023A0001D344821810C524820831022C820848C7F
:1023B0004448398598F2E136002641D51CF587EB73
:1023C000E521A65411441142122124114212216325
:1023D0001141186AC799861A0984884206114590E6
:1023E000420219A42042CC21E494428C3145A4F24B
:1023F00080286990534CF8701B002710D51CF58776
:102400005B4292487F1FFE7F06002823D51CF5877C
:102410007B2396675C793548450A92487F9244123F
:102420004B24B18A241A686289448A02002925D57E
:102430001CF587BD210BB46215492C91481229491E
:10244000227D90440A125820058BB35E8143860F8B
:102450000E002A29D51CF5879F2591B6C6204398E2
:10246000128628E40161DC2AD038C488208A0C92C4
:102470000A218898A1C2111F7E14002B18D51CF5C3
:10248000875F2091BEF580200F08F2805024D2F79C
:10249000E177012C15D51CF587FFFF9D110B34CF7B
:1024A000C012499C228963012D0ED51CF587FFCDF2
:1024B00067BE0FFF97002E11D51CF587FFFF228105
:1024C000E659907CB805002F29D51CF58783818EAD
:1024D000484112491C91C4112948228124124822E2
:1024E0008124124822812412482281448E0FDB006D
:1024F0003043D51CF587FBC5A5B592092591420E41
:1025000031C510530C29A610630A29231042C810A4
:102510008490310621648C41081183506114428EED
:1025200021A518628A21A618724821C80493D64AA8
:10253000AE7C783116D51CF58717C8330D2DC548EC
:10254000202C1012E9FFBF0F0F3221D51CF587F3A5
:10255000C625C55211E61043904024D2208904D2EA
:102560005E05E9E250C1FC3E9C063328D51CF58788
:10257000F3C525C55211260953220D9276186AA873
:10258000A558451A0A889C61C831C220A654331F39
:102590005E00342FD51CF587474624B07AC65D6DA2
:1025A00004C248206C08B2C6206B0CA20621891018
:1025B000924621E881501E08E581E048A4F7E13AFF
:1025C000003525D51CF587D3EE788744BAB8144B6F
:1025D0000D9152CE3844924867C621861C624E380F
:1025E000A7A5D5CC87073635D51CF587FBC5A5B57E
:1025F000920905952212892352C1A8861A32A39CFA
:1026000052C8A10C39C490430C39C4904319724884
:1026100021A98892D64AAE7C7801003721D51CF5D5
:1026200087D3EE7871441247A4E288248E48C511FE
:10263000A938220549A42089E4C323003839D51CD0
:10264000F587F3A629C552110591520E31E41043C6
:102650000E31041142521164A58618094511421029
:1026600031141A86205208228520528A21C70883F5
:102670009852CD7C783935D51CF587F3C5A5B59230
:10268000092591420E31E450861C62C821861C62E5
:102690004A29A70C731C6ACA0412A9382249A290BD
:1026A0005482416CA5663E3C01003A16D51CF58764
:1026B000FF1A81E659907C788940F32C483EDC0271
:1026C0003B1CD51CF587FF1A81E659907C7869C4BC
:1026D00002CD33B04412A748E29881013C1BD51CBF
:1026E000F5879F0A72C0E20EBBE70A34F08206DE6D
:1026F0006089648A0F0F023D1BD51CF587BFFD80E2
:10270000200F08F280F830F880200F08F280F8F0EF
:102710002F023E19D51CF5872F073A6481E8E17B2B
:102720005633EDB03B671E89E2C3073F25D51CF544
:102730008753A529C59011E6104390400405442213
:1027400005092CAF8254A43E240934CF82E4C3038C
:102750004043D51CF587FBA629C59011E55085A4FB
:102760005186416410350659630C23C818A21032F3
:102770008620858C214821630842CA18A304338827
:1027800060648C45C8288110224B3C8224A6163BED
:102790001FAE034138D51CF58717C21C728A051677
:1027A00068DC08C38D301A09848D31D818449141F2
:1027B000D4284331D4903BE310430E31231142120D
:1027C00021449131161164910F9701423AD51CF5BD
:1027D00087CB4B35E40E21C790530A41A410440A1D
:1027E00041A490430C21C7B8D3D033E494421029BC
:1027F00024114212212411421221049142CA29CFEC
:10280000B8C33E9C07432AD51CF587FBC5A9D4CE87
:1028100011C614434A418490240C8124D24F92481B
:102820006241E21443CC11E634A59AF9701E0044CB
:102830003ED51CF587CB4B35E40E21C710530C3920
:10284000A510440A41A4904408498490440849844E
:10285000904408498490440849A310440A41A49034
:10286000430C31C510624E432CA90F2F004522D5D1
:102870001CF587CB0F84F240280F8442227DD11DA6
:10288000EF9048BFF840280F84F240F8701A0046D5
:1028900016D51CF587D3CF7C8644FA62431D22915E
:1028A000FEFBF00C004732D51CF587FBC525D58E05
:1028B00019E55085A061480A67447A051152102134
:1028C000051192082189148248218818728839C21A
:1028D0001C9754331FCE034846D51CF587CB049173
:1028E0004210290491421029049142102904914276
:1028F000102904914210290F84F240280F844210BD
:10290000290491421029049142102904914210296E
:10291000049142102904914210F9701A004913D50C
:102920001CF587D30D758D44FAFFC71AEA3E1C07C4
:102930004A1CD51CF587EB2C718D44FAFF543024CA
:102940000D52501145AD955CF9F006004B41D51C78
:10295000F587C30415421029E410431D5208228450
:1029600024328822A22812CA228130D4124B8C0829
:10297000B2C8208A8C9208218914824829879862DB
:10298000C821869C52082A8424F2E134004C11D5D7
:102990001CF587CB24D2FFFFC567BE0FB7014D4E94
:1029A000D51CF587C3630D4212212411524E21E537
:1029B00014628A21A61872C621671C42C21408211B
:1029C000610A84105104214414410819631042C65D
:1029D00018841012089508218910920821891092F4
:1029E00008218910920821897C380D004E4DD51C94
:1029F000F587CB0491421029E590520E29C69072BA
:102A00000A29A790820829240C420A09649042C42A
:102A100018A4104115328620850C124821640452F6
:102A200008418594538831851853C829859C5208DC
:102A300022852052481A1F4E034F3BD51CF587F3C1
:102A4000A629C59011E61043215208228428328815
:102A500022832832882283283288228328328822BF
:102A6000832842861A8520520822863A4618C49442
:102A70006AE6C3035029D51CF587CB2C35E40E2913
:102A8000C690530A41A410440A41A410440A39A52F
:102A90009062CC33EEB04422FDFBF00E005143D5E2
:102AA0001CF587F3A629C59011E610530A41A4101E
:102AB00044CA5064104506516410450651641045DF
:102AC000065164104506516410450841A410440C99
:102AD0003115298829D50E1C92C4D4903B1F38008B
:102AE000523ED51CF587CB2C35E40E21C790530AF6
:102AF00041A410440A41A410440A39C490628C3B9A
:102B00000DB14408498490440A41A410440C39C4CE
:102B100014430E31E49442102904950F9701532F6A
:102B2000D51CF587FBA6A9D49011C690330E41E2BF
:102B30009048248906A287DE8146529198A04811C8
:102B40008A94814839E21887183B1FCE035416D562
:102B50001CF587C30F08F280200F884522FDFFDF98
:102B60008717005542D51CF587CB2411421221242A
:102B70001142122124114212212411421221241146
:102B80004212212411421221241142122124114205
:102B9000122124114212210495420E316698D3D29B
:102BA00062E7C37900563BD51CF587C344914114B5
:102BB00019448D421029041133D038E48C430C4160
:102BC000C38C44CA48841035C858648C450461439A
:102BD0008C46C268C899674112891C527C780200F1
:102BE0005752D51CF587BB848D31D818A38832C6BF
:102BF00028838C41C834283206354619A38851C62B
:102C0000286294218C18850423462161564810625D
:102C100084618C18411C23CC31A39C42CA29A49CFA
:102C2000420A1A66A461461A66A4614612487C38B4
:102C30000E005839D51CF587C32491421031D42198
:102C40006624424822642C22C8228134E4CC33908A
:102C5000C0028D430D3122C822822842482284209E
:102C60006228440A418410453E5C065929D51CF56A
:102C700087C344914112290491420E65C8218524DD
:102C8000424822642C22C8226234D4CE33AF44FAA4
:102C9000EFC30B005A2ED51CF587CB0F84F24028CA
:102CA0000F04482281542490C411092491402A120F
:102CB00048E28804923858200F08F280200F880FCD
:102CC00097015B14D51CF5873B2C718944FAFFFFF3
:102CD000224BDC870A005C2BD51CF587BD118924AB
:102CE000914812892491481289249148128924918B
:102CF0004812891C92C8214924924422870C1F0E35
:102D0000015D12D51CF5872B0D7591FEFF7FA8F78D
:102D10002103005E20D51CF5871784249140E350E1
:102D20001B813022C81A642842082266A870C28714
:102D3000FF87015F13D51CF587FFFF671F18E3812D
:102D4000311E181F1A00601AD51CF5873B818A298D
:102D5000E690249258C112899CE690E2C3FF41009C
:102D6000612AD51CF5877FE1B0951A2AC2A4804854
:102D7000A4123BCE3C530C290491424E29C49862C4
:102D80000432EFB85406F9701A006233D51CF58787
:102D90002324D24F14D5903B4718530C754A2188F1
:102DA00014824821881482482188148248218798F7
:102DB000628831C318774648688CF2E1016321D5F7
:102DC0001CF5877FC234A51832C2986228240C896A
:102DD000F42489E5087444412DA9663E9C076435B6
:102DE000D51CF5878324D2A78A20A81D678C388636
:102DF00098520822852052082285205208228520D8
:102E0000520822A51C628829C688731C6AAA08F287
:102E1000E13400652CD51CF5877FC134A5582AC242
:102E20001C62C819881482487920940742792014BA
:102E300012492C91A0908C30A729D5CC87F300663D
:102E40001CD51CF58763A629C552110511231289CB
:102E5000546BA86324D2FFFBF006006736D51CF53F
:102E600087BF5FC838AF3C100A21E510331031E44A
:102E700010430E2905155112534AA54562810EB91A
:102E8000F30A418490440849849C61CC3B6CA10EB8
:102E9000006836D51CF5872B24D26F94440242EE8D
:102EA000A0508E29C414431D62C821861C62C8210B
:102EB000861C62C821861C62C821861C62C82186C5
:102EC0001C62C8211F4E036919D51CF58753431294
:102ED000582289E3838C1A16E9FF1A4BDC87E3003A
:102EE0006A1FD51CF58773231658C5F181554B8B86
:102EF000F4FF53C190244A414594B45672E6036BE3
:102F000035D51CF5872324D2EF94424C31A4944349
:102F100048416410450459241096B112C8228328F0
:102F2000324A22A42052CA21861C628A21A7148216
:102F3000CA87CB006C12D51CF5872B896591FEFFE3
:102F4000C7DCF13EDC066D1DD51CF5873F4D02192F
:102F5000A43C20C8036394604219F4FFFFFFFFDF25
:102F600087CB006E35D51CF587BF4D46492420E43C
:102F70000E0AE598424C31D421861C62C821861C79
:102F800062C821861C62C821861C62C821861C6218
:102F9000C821861CF2E136006F30D51CF5877FA171
:102FA000B8B41832C19C528A218714920821891022
:102FB00092082189109208218914728829861C138D
:102FC0004C622AB9F2E105007034D51CF587BF4D7B
:102FD00044510DB9738431C550A714824821881417
:102FE000824821881482482188147288298698236F
:102FF0008C71A721228A2291DE0705007132D51C2F
:10300000F587BF5F0441ED3863C431C49442102991
:10301000049142102904914210290491421031E494
:1030200010434C31469CE350534590485F06721C58
:10303000D51CF587BF4E464924A4F34C0AE4182357
:103040004E81059248FF7D7805007327D51CF587D2
:103050007FE1B095DA31E21872C62128A012CF5371
:103060000E41138B118998814839C21C87D83A1FA9
:103070001E741DD51CF58757492471C8A9B9E32DC5
:1030800012E9BF22940964AD959AF9701C00753558
:10309000D51CF587BF4D0E31E410430E31E41043CB
:1030A0000E31E410430E31E410430E31E410430EB0
:1030B00031E410430E31A59463C2390E355504F93D
:1030C000701B007630D51CF5873F5DD228248D42D9
:1030D0001031038D43CE38C41044CA48A40C35C8FF
:1030E00058648C450461248C869C79E69548E2F806
:1030F000F004007743D51CF587BF4C161963913156
:103100008A20640C42066D0C420619A38C51C42817
:10311000431831CA10468C428208438C42821023E5
:103120000C6384394698538639859453484184907A
:1031300034CCF8701C00782FD51CF587BF4D1029B2
:10314000C590430A4984104504592490769E790518
:1031500016681C6244104506518410440C754A21BF
:10316000887C380D007939D51CF587BF4D122104B4
:1031700091421031E41043CE40C31044CA50831032
:10318000450651640C460261240C37C270E715589D
:103190002089D40A84AC21CA4A0CBDF2C1007A1D30
:1031A000D51CF5873FFECC07E9607915A4C1F2CAAA
:1031B0007B2094074279207C380D007B20D51CF5BC
:1031C00087270E4B4B29F348A40F12775C812616F4
:1031D000392489F417CF532C3594017C0ED51CF576
:1031E000875324D2FFFFFFE7017D21D51CF587D34C
:1031F000C725A6609124D227493CB03CE30824911E
:10320000FE607166A995D8F920007E17D51CF58758
:103210007FF314515628E3015106418F7CF87F0259
:1032200000A00BD51CF587FFFF7F1700A118D51C48
:10323000F58753049A6783E40334E414E91FAC1759
:10324000C7872700A240D51CF58737482471C801DD
:103250008B4BAA9D129029828461C818231842C6FC
:10326000088690A108198A90A1C8208A0CA2C818C3
:103270008C8841C229610C815028A8A5C58E1B727B
:10328000F6610100A32BD51CF587FBC5A5B59209F6
:103290002495121489144C2C73449248174724F037
:1032A00098605618E501418A5025A0F2E13800A443
:1032B00029D51CF5878F8B24CE3B2DAD540649E3D1
:1032C0000C34CE40E30C440A492594D4CE33431445
:1032D000314E50E2C3BF0900A52FD51CF587C3446A
:1032E000114210290411431D624622842442C62241
:1032F0008230124643CE3C030973C7632412E68E24
:10330000C748A43EBC0000A611D51CF5875324D2A3
:10331000FFF7012791FE9F07A73AD51CF5874BA61B
:1033200029C55211E610331031229158A281A829E3
:1033300035C4418498430C39C4906308414CA98634
:10334000A0892512240E39C3147344414DA9663E49
:10335000E401A818D51CF587C541862AA2A4224AF3
:103360002AA2A841C687FFFF1500A948D51CF587EA
:103370005F284E2986482986041308210105324614
:1033800050618811081961881146196284498D308D
:10339000A9112635C208848831C210541863041557
:1033A000C618020542C620829462C8694A35F3E114
:1033B0003C00AA25D51CF587F3C621A69820838555
:1033C000421A5A4AAD440849A3904446494C2D96A6
:1033D000BA3BDE87BF0E00AB2ED51CF587FF5A30F7
:1033E000810D3254112415411219249141121944AE
:1033F000155154114515515411451541D6208305D9
:10340000133E7C0800AC10D51CF587FF4BEE78917D
:10341000DE873F0400AD0ED51CF587FFCD67BE0FDC
:10342000FF9700AE47D51CF5875F284E29864829AF
:103430004609424648810C21C61862464618621A5F
:10344000448C30441A230C91C608432032C2101316
:103450001981843186186384318618E390430822E9
:10346000C50C739A52CD7C380F00AF0ED51CF58772
:10347000E34B6D1FFEFF4700B01CD51CF587F3A67C
:1034800025A6541125114212212415519462C89584
:103490000FFF1F04B120D51CF5876F91486F3D20A9
:1034A000C803823C201489F4FBC03E20C803823C40
:1034B000203E5C06B21ED51CF5874BC5A5B5141978
:1034C000448D32E4880492573D02096489FBF0BFC1
:1034D0000A00B321D51CF5874BC5A5B5D620430EF0
:1034E000779C794712399430231142D25AC9950FEB
:1034F000FFCB00B414D51CF58789304924B0402A8D
:103500008E293EFCFFEB00B53BD51CF5873F4D0EE9
:1035100031E410430E31E410430E31E410430E3118
:10352000E410430E31E410430E31E410430E31A594
:103530001421C4094B3C40C4124650641012E97D6A
:103540006000B64CD51CF5874B0BB5E38C12A32C51
:1035500031CA12A32C31CA12A32C318C12C32831C8
:103560004E12032131941183113118118311311836
:103570001183113118118311311811831131181170
:1035800083113118118311311811E3431900B71158
:10359000D51CF587FF0D02CDB320F9F0BF0C00B8A4
:1035A00013D51CF587FFFFF7C524B1B031064BAE2C
:1035B0002000B913D51CF5875B031677B930869CBC
:1035C000FF3EFC2F03BA2AD51CF587FBC521A6D6E2
:1035D00020241142D230230D33D230230D33D22890
:1035E0002411429462E8910F843BDE87BF0E00BB3A
:1035F0002ED51CF587FF5230A109321611651151E5
:1036000016196491411619241551501105155112BE
:1036100011251151D4208305133E7C0C00BC4ED5DE
:103620001CF587BD81C2296810830609629C81C68A
:1036300019689891861969149246196A10A2061998
:103640006B0C124724714412472464A84148228419
:10365000A4414A1A438481C61861A021A63384324A
:1036600043A842D040210D393EA401BD4DD51CF5E3
:1036700087BD81C2296810730809629C8186216810
:10368000989186196994A146196A10A206196B0CC3
:103690001247247144124724A2A8214E1A610872CD
:1036A0008610649C818619689CE99042D028049118
:1036B00032942889A50F6100BE51D51CF587B9F257
:1036C0005019458C51861A841C43C831832C22889A
:1036D00009658871C42081982406428128324624D5
:1036E00071441247247190A108196A1092C8286980
:1036F0000C110622438481C61062A02154194395FF
:1037000081061268C8F1210D00BF28D51CF5874B32
:10371000049A6741F20127918204965741020B24D3
:1037200091420111241031E498701053C9950F2F64
:1037300000C03ED51C3517B23C04CB141F9C30870B
:103740009C6281051A37C270238C460261630C3675
:103750000651641035CA500C35E4CE38C49043CCC1
:10376000488490440851648C450459E4C36500C101
:103770003FD51CF5074140D3502B517CB0C21C7281
:103780008A051668DC08C38D301A09848D31D81873
:10379000449141D4284331D4903BE310430E31236C
:1037A00011421221449131161164910F9701C243C5
:1037B000D51C750A7344D3D22AA12832C80A46C040
:1037C00030879C6281051A37C270238C4602616380
:1037D0000C360651641035CA500C35E4CE38C4900E
:1037E00043CC488490440851648C450459E4C36533
:1037F00000C342D51CB5210F0981DC2101A940CAB3
:10380000073ACC21A7586081C68D30DC08A39140CF
:10381000D818838D411419448D3214430DB9330ED9
:1038200031E410331221241142141963114116F9A5
:10383000701900C43FD51C751E64A8224A2AA2A490
:10384000228A1A647C50C494248924966739D486C9
:10385000186D08B288206B90B1062189A586DA21FF
:10386000861CCA0C440A49A30C4506516490453E87
:103870005C06C543D51C351AB1BC218413433831CD
:10388000841B61BC12879CC5020B346E84E1461810
:103890006E04C2C6186C0CA2C8206A94A1186AC82B
:1038A0009D71882187188248198910A206218A8C67
:1038B000B1C887CB00C639D51CF587F32C31D4D0DD
:1038C00071A7A136026923104602614310364432C3
:1038D000442433463263104506515B628910924698
:1038E00021881482485162182586511F2E03C73142
:1038F000D51CF587FBC525D5CE11C614434A418496
:1039000090240C8124D24F92486241E21443CC119E
:10391000E634A59A89629258D8188325573A00C888
:1039200026D51CB521D1C003090DFF81501E08E525
:10393000815048A42FBAE31D12E9171F08E58150F2
:103940001E081F1E04C926D51CB522EF30E4C80787
:10395000F781501E08E5815048A42FBAE31D12E9F3
:10396000171F08E581501E081F1E04CA2DD51CB55F
:103970000A9240E3D02A82AC41C60A27A4074279C2
:10398000209407422191BEE88E7748A45F7C209462
:10399000074279207C380D00CB2DD51C751E65A4FF
:1039A000320A2AA3A0324A1A65F407427920940702
:1039B000422191BEE88E7748A45F7C20940742792B
:1039C000207C380D00CC1BD51CF5099344034F1CFB
:1039D000347C101AEA1A89F4FF8F35D47D380E0032
:1039E000CD18D51CF51AEFB4E3C807B8A1AE9148BD
:1039F000FFFF5843DD872701CE1ED51C751292406C
:103A0000D3D22A82A851C60A27A886BA4622FDFF29
:103A1000630D751F8E03CF1ED51C751E65A4320A5B
:103A20002AA3A0324A1A65F886BA4622FDFF630D22
:103A3000751F8E03D03BD51CF587D36AB1D41019FE
:103A4000E710430E31C590430C39C410440A416459
:103A5000A442462A64A4422152082285A061C821BA
:103A6000861C62A8434A396418D4D052EAC303D1F1
:103A700057D51CB521F088811A22E1A840CA0793C6
:103A800020520822A51C52CA21C518524E21E51405
:103A90005210218584414821810C528818831422B8
:103AA000A842C610A490410229848C400A21A89003
:103AB000720A31A610630A39A590530A41A4104432
:103AC0000A49E3C36900D241D51C3517B2C003CB04
:103AD000141F14D39462C8087388A11029041142DA
:103AE00014194491411419449141141944914114F9
:103AF000194491411421438D4210290411431D237F
:103B00000C624A35F3E101D342D51CF50761C0E2EE
:103B10008E2B507C904C538A2123CC218642A410BA
:103B2000440851641045065164104506516410451F
:103B300006516410450651840C350A41A410440C0A
:103B4000758C308829D5CC8707D444D51C75129242
:103B500040E3922AA2A841C614CD34A51832C21C53
:103B60006228440A41841045065164104506516498
:103B7000104506516410450651641045C850A31005
:103B8000440A41C450C708839852CD7C78D544D5A7
:103B90001CB52924A414C671688803C907D834A5A4
:103BA0001832C21C6228440A418410450651641030
:103BB0004506516410450651641045065164104590
:103BC000C850A310440A41C450C708839852CD7C02
:103BD00078D647D51C751964A8224A2AA2A4228A3D
:103BE0001A647C804D538A2123CC218642A4104440
:103BF000085164104506516410450651641045068D
:103C0000516410450651840C350A41A410440C75CA
:103C10008C308829D5CC8707D729D51CF587DF0CB0
:103C2000731C81882188909288282BB5F3CA330EA3
:103C3000B112882AA2A0420A1A86A480C487BF04AF
:103C400000D84DD51CF587F130493262A076DA31C3
:103C5000C21C6228630A31861033C220C4084106A0
:103C600029439041C8181419831A839041C62064CF
:103C700010310A19448C420609C38C720A29C610F5
:103C8000530A394698D321224A22537C1807D9482F
:103C9000D51CF5097444034F1C347C92082189100B
:103CA0009208218910920821891092082189109286
:103CB0000821891092082189109208218910920800
:103CC0002189109208218910824A21871833CC69F2
:103CD00069B1F3E13C00DA48D51CF51AD0B4E388A9
:103CE0000C1F109208218910920821891092082136
:103CF000891092082189109208218910920821893F
:103D000010920821891092082189109208218910A7
:103D1000824A21871833CC6969B1F3E15100DB4C49
:103D2000D51C751AB1BCD3922AA2A851C60C8824FE
:103D30004248228424424822842442482284244245
:103D4000482284244248228424424822842442482F
:103D5000228424424822842442482284A052C8213A
:103D6000C60C735A5AEC7C380F00DC4DD51C759983
:103D700052190595515019258D323E902411421249
:103D80002124114212212411421221241142122114
:103D90002411421221241142122124114212212401
:103DA0001142122124114212210495420E316698CB
:103DB000D3D262E7C37900DD30D51C350B923CD3FA
:103DC000CE23317C4088228324520822851CCA904D
:103DD000430A49849044C858449045C468A89D67E4
:103DE0005E89F4DF871700DE29D51CF587CB24D246
:103DF000C586DC79869862082285205208228520B3
:103E0000520822851C629E71A72112E97D78070065
:103E1000DF46D51CF5874BC5A5B592110591520C0F
:103E200039C490430C39C410530C29E5107110119A
:103E30000711910C31A610440A4185904408498429
:103E4000904408498410440A11429842823224A4C2
:103E50004384F9701E00E034D51CF5877E982396C4
:103E60004824894412193E3087ADD45011260544A8
:103E70002295D871E6996248218814724A21C614A5
:103E8000239079C7A532C887D300E133D51CF587C5
:103E90000931472CAF402A92193E3887ADD45011D2
:103EA0002605442295D871E6996248218814724A01
:103EB00021C614239079C7A532C887D300E239D52B
:103EC0001CF5870521472CEFB8110823812C3208F7
:103ED0000B457C300E5BA9A1224C0A88442AB1E331
:103EE000CC33C590421029E494428C294620F38EAD
:103EF0004B65900FA701E334D51CF587C9F29018E4
:103F0000C7A1218E0AA47CA81DB65243459814105F
:103F1000895462C799678A21852052C82985185318
:103F20008C40E61D97CA201F4E03E437D51CF58749
:103F30003BA38C5446416514544649A38C0FAE698B
:103F40004A3554844901914825769C79A61852082F
:103F500022859C528831C50864DE71A90CF2E134D7
:103F600000E537D51CF587FE80E609319C18C209AB
:103F7000319C89E3837DD84A0D15615240245289D2
:103F80001D679E298614824821A714624C3102992C
:103F9000775C2A837C380D00E63CD51CF5873F4FC3
:103FA00008392898F2802024A0304A28840C45C87B
:103FB00050848CF240200F88F1C01065904408496D
:103FC0008490444821611471C4180F0C72C431A547
:103FD000900FA701E72AD51CF5877FC234A5DA31F7
:103FE000E294728621481812E94912CB11E88882BE
:103FF0005A5ACC4431492C4D10C192331C00E8363A
:10400000D51CF5877E9823964824894412193E30A2
:10401000A629C55211E61043CE40A41044CA03A1FC
:104020003C10CA03A19048628904856484394DA973
:10403000663E9C07E935D51CF5878940472CAF4083
:104040002A12293E38A629C55211E61043CE40A4B3
:104050001044CA03A13C10CA03A190486289048598
:104060006484394DA9663E9C07EA3AD51CF587BEA3
:10407000982396771A6A439045065982880F886973
:104080004AB1548439C4903310290491F240280F66
:1040900084F2402824925822412119614E53AA9952
:1040A0000FE701EB38D51CF5873BA38C54464165DF
:1040B00014544649A38C0FAE694AB1544639E44CB6
:1040C0006914924679209407427920141289249128
:1040D00020818C30A729D5CC87F300EC1CD51CF5AA
:1040E0008790882456914812C70C1F14D4B048FFFB
:1040F000D758E23E3C0900ED1BD51CF5879890246B
:1041000012486081248E0F326A58A4FF6B2C711FF5
:104110009E04EE20D51CF5877E984312681C62240D
:1041200010360661A1880F026A58A4FF6B2C711F1C
:104130008E03EF1FD51CF5873B830C5544494594EE
:10414000544451838C0F2A6A58A4FF6B2C711F8E24
:1041500003F039D51CF587C9010F094CB184D6523B
:104160006B0C22094B8AA1768C30A62AE4144212E9
:1041700021241142122124114212212491420E3194
:10418000C5906382494C25673E3CF140D51CF587BC
:10419000C5F2CE10A82112500AA57C28915112090F
:1041A00008B9834239A610530C7588218718728884
:1041B00021871872882187187288218718728821B0
:1041C0008718728821877CB80D00F239D51CF587D5
:1041D000BC902356914812890C1F9CE2D262C804FD
:1041E000734A29861C52482284244248228424424D
:1041F0004822842452C821A618724C3089A9E4CAE6
:10420000871700F339D51CF5870531472C908205B7
:1042100092193E40C5A5C59009E694520C39A49068
:1042200044084984904408498490440849A4904330
:104230004C31E498601253C9950F2F00F43FD51C00
:10424000F587BE90239677DC088491401619848503
:10425000223E20C5A5C59009E694520C39A490448D
:10426000084984904408498490440849A490434CE8
:1042700031E498601253C9950F2F00F539D51CF51C
:1042800087C5F29010C89D31CE2B1F72C5A5C59071
:1042900009E694520C39A490440849849044084992
:1042A0008490440849A490434C31E498601253C967
:1042B000950F2F00F63DD51CF58733A38C5446414E
:1042C0006514544649A38C0F70716931648239A515
:1042D00014430E29241142122124114212212411C7
:1042E000421229E410530C392698C45472E5C30BCA
:1042F00000F71AD51CF5871F16924422C507F799B7
:10430000EF434E481289141F7E1700F83FD51CF565
:1043100087DF1693ACA45662C80473CA388690111E
:1043200046216408420819821032C62084083208E7
:104330002162102A8C42CA0883106348392698C427
:10434000D052239445A4F8300E00F93FD51CF587D0
:1043500092882512492291448A193E10E410430E96
:1043600031E410430E31E410430E31E410430E31BA
:10437000E410430E31E410430E31E410534A392661
:104380009CE3505345900F2F02FA3DD51CF58796BC
:10439000980492482025C707971C62C821861C6292
:1043A000C821861C62C821861C62C821861C62C87E
:1043B00021861C62C821861C624A29C784731C6A34
:1043C000AA08F2E14500FB43D51CF587BE90041610
:1043D00068DC08841131D8188485123E39C49043B2
:1043E0000C39C490430C39C490430C39C490430C2D
:1043F00039C490430C39C490430C39C494528E098B
:10440000E738D45411E4C36D00FC42D51CF5873362
:10441000A38C5446416514544649A38C0F2639C4D5
:1044200090430C39C490430C39C490430C39C49068
:10443000430C39C490430C39C490430C39C4945292
:104440008E09E738D45411E4C36D00FD43D51CF543
:104450008798902412486081248E0F2E498410443E
:104460000A41C490430C39030D431029430D4214F3
:10447000194491311809849130DC08C39D5760813B
:1044800024522B10B286282B31F4CA071800FE35AF
:10449000D51CF5872324D24F14D5903B4718530CD5
:1044A000754A218814824821881482482188148200
:1044B00048218798628839C218771A22A22812E9FF
:1044C0007D5000FF48D51CF5873B830C554449457A
:1044D00094544451838C0F2649A310440C39C49042
:1044E00033D0300491421029430D421419648D31A8
:1044F0001809A48D30DC08C39D576089438E489607
:1045000020838D505662E8950F060000000004FFDE
:10451000FF0000120205040506010406182700F832
:104520001EF81EF7000000000308200BF80CF887A7
:10453000FFFFFFCF002A31F80CF8870F964928D5E6
:1045400082216D10524431828C421E28E481729C7B
:10455000331141F48820AD88B20A29A998828A29AA
:1045600069A0F1E19F032B1BF80CF88777CBAC6FA8
:104570003D50C803853C50C8038595597F1FFE49AF
:10458000002C18F80CF887FFFF6B641A79E225CD30
:104590002C935032293A6C70002D16F80CF887FFD6
:1045A000FA03C33C30CC03C33C303EFCFF2D002E4D
:1045B00012F80CF887FFFF73831679E2250B1D1F95
:1045C0001E2F2FF80C781C95CC32C9AC64994596F7
:1045D0005964994596592699659259269965925933
:1045E0002699952CB3C8328B2CB34C62C5876700D3
:1045F000304DF80CF807DA44E4D872CA08938A29D7
:10460000A89872CA31A61C63C839A598444A21A14A
:1046100090528628A410220A29838C42CA18A41218
:10462000A314520229852453CA39A598538C39B54D
:10463000634A496698E4167329960FDF033119F827
:104640000CF8079C480391538CB5124A13A4CCFA7A
:10465000FFFF3E7C0F00322FF80CF807DA40C59AB6
:104660007AA914732A3452492195599B64165949E1
:10467000134D2CB2DE24B3C807867960980786797B
:10468000607CF812003334F80CF807DA40C55C7A25
:104690008A14A3C429B4CC32C92CD134E5D2536EC8
:1046A000C9330B2DB396422A48A482C629A8907319
:1046B0001E08AAB1F5CE87EF013435F80CF8079F34
:1046C000CC4A9A7841F49223A138124A23A230327C
:1046D0000A23A32C428A22A528524A22A6A0070A0E
:1046E00079A090070A79A0BC32EBF7E16300353876
:1046F000F80CF807F501711E10E701711E10A7CC28
:10470000BAC998532F3D10902106916352488512E3
:104710005A660D0545CE48C59463CC21063D1092DE
:104720005BEB9D0FDF033642F80CF807DC40C59ABF
:104730007AE81092CA11A9CC32C92CC2AC971E08D3
:10474000E80171D030C79C620A2AA624624A2AA5D1
:10475000A4524A2AA5A4624822A73AC614648651E4
:104760004EB5A6A0F9F03900372DF80CF807F48102
:10477000611E18E681611E18B2CC22CB2CB2CC325D
:10478000C9AC6499659259C932CB24B3926556B2CB
:10479000CCEAC337013840F80CF807DB40C59A7AF9
:1047A000C90C938A29A73E540C49A514654461CBD2
:1047B00025B758114695525039E590444C49A59477
:1047C000544A49A594548A39C69862CE032139B611
:1047D000DEF9F039003941F80CF807DA40D5D87223
:1047E000C910838A29A7A0620A2AA624624A22A69F
:1047F00024624A2AA61C630C41E701711E10298518
:10480000B28C20949A550AA8A4614C22C424A71AF9
:104810005BD07CF820003A1AF80CF8873F3D68918D
:10482000275EB2D0F1E1DB831679E2250B1D1F1E56
:1048300000000004FFFF0000371A00083B1A0008C0
:104840005B1500081815AF19FF1815AE19FF1815DC
:10485000A115C819FF1815A015C019FF1815A11525
:10486000C019FF1815A015C819FF1815AE15D516D3
:104870008015A8163F15D316001540158D16141572
:1048800020160015A115C815DA1612158116CF15B8
:10489000D916F115DB1640152E15A415A619FF180B
:1048A00015AE15D5168015A8163F15D31600154060
:1048B000158D16141520160015A115C815DA161237
:1048C000158116EF15D916A115DB1600152E15A4A6
:1048D00015A619FF1815AE15D5168015A8163F1583
:1048E000D316001540158D16141520160015A115A8
:1048F000C815DA1602158116CF15D916F115DB1673
:1049000040152E15A415A619FF1815AE15A415D51A
:10491000165015A8163F15D31600154015AD168B69
:1049200015D9162215DB16351532158116FF15A679
:1049300015DA161219FF1815AE15D5168015A8161A
:104940003F15D316001540158D16141520160015A9
:10495000A115C015DA1612158116CF15D916F11545
:10496000DB1640152E15A415A619FF000001140A28
:104970006464323200127A000004289610080000A5
:10498000800040000001140A6464323200093D00D6
:10499000000428961008020280004000BC4900086C
:1049A0000000002018000000E60E0008D4490008AE
:1049B0001800002040080000F60E0008010000006A
:1049C00010000000000000000024F40000000000BF
:0449D00000000000E3
:040000050800019955
:00000001FF
