:020000040800F2
:10000000F8060020B1010008630F0008410E000847
:10001000610F0008E1020008CD1300080000000095
:10002000000000000000000000000000F1110008C6
:10003000E30200080000000001110008F3110008AD
:10004000CB010008CB010008CB010008CB01000860
:10005000CB010008CB010008CB010008CB01000850
:10006000CB010008CB010008CB010008CB01000840
:10007000CB010008CB010008CB010008CB01000830
:10008000CB010008CB010008CB01000800000000F4
:10009000000000000000000000000000CB0100088C
:1000A000CB010008CB010008CB010008CB01000800
:1000B000CB010008CB010008CB010008CB010008F0
:1000C000CB010008CB010008CB010008CB010008E0
:1000D000CB010008CB010008CB01000800000000A4
:1000E000CB010008CB010008CB0100080000000094
:1000F000000000000000000000000000CB0100082C
:1001000000000000CB010008CB010008CB01000873
:1001100000000000000000000000000000000000DF
:10012000CB010008CB010008CB010008CB0100087F
:10013000CB010008000000000000000000000000EB
:10014000000000000000000000000000CB010008DB
:10015000CB010008CB010008CB010008CB0100084F
:10016000CB010008CB0100080000000000000000E7
:10017000000000000000000000000000000000007F
:1001800000000000CB01000800000000000000009B
:10019000CB010008CB010008DFF810D000F08EF88A
:1001A000004800470D150008AFF30080F806002056
:1001B0000648804706480047FEE7FEE7FEE7FEE701
:1001C000FEE7FEE7FEE7FEE7FEE7FEE7891200082E
:1001D000990100082DE9F05F0546002092469B46F4
:1001E00088460646814640241BE02846414647464D
:1001F000224600F041F853465A46C01A914110D3A6
:1002000011461846224600F028F82D1A67EB01081F
:100210004F4622460120002100F01FF817EB00098D
:100220004E41201EA4F10104DFDC484631462A4637
:100230004346BDE8F09FD2B201E000F8012B491E11
:10024000FBD270470022F6E710B513460A46044673
:100250001946FFF7F0FF204610BD202A04DB203AA4
:1002600000FA02F1002070479140C2F1200320FA09
:1002700003F3194390407047202A04DB203A21FA07
:1002800002F00021704721FA02F3D040C2F12002AF
:10029000914008431946704740EA01039B0703D089
:1002A00009E008C9121F08C0042AFAD203E011F8B5
:1002B000013B00F8013B521EF9D27047064C074D36
:1002C00006E0E06840F0010394E807009847103426
:1002D000AC42F6D3FFF764FF501A0008701A00080A
:1002E000FEE7704772B6FEE770B5044600F0DEF830
:1002F0000546601C02D004480078044400F0D6F89B
:10030000401BA042FAD370BD080000202DE9F84F31
:1003100000224FF0010803254FF00F0E0B6808FA7A
:1003200002F42340A34271D14E68012E05D0022E63
:1003300003D0112E01D0122E15D18668570005FA70
:1003400007FC26EA0C06D1F80CC00CFA07FC4CEAB4
:10035000060CC0F808C04668A6430C79C4F3001424
:10036000944034434460C668570005FA07FC8C6823
:1003700026EA0C06BC403443C4604C68022C01D011
:10038000122C13D1D40800EB8404A346D4F8209097
:1003900054074FEAD46A0EFA0AF629EA06090E69EA
:1003A00006FA0AF646EA0906CBF8206004680E79D8
:1003B00024EA0C0406F00306BE40264306604C689F
:1003C000E40056D52E4C266846F480462660246804
:1003D00022F0030604F4804400942A4C3444A446DA
:1003E000D4F808489607370F0EFA07F6B443264E9E
:1003F000B04201D1002615E0244EB04201D10126C1
:1004000010E0234EB04202D102260BE031E0214E33
:10041000B04201D1032605E01F4EB04201D10426AF
:1004200000E00726BE402643CCF808681B4E34681F
:100430004F689C43FF0300D51C433460174E361DA4
:1004400034684F689C43BF0300D51C433460134E8F
:10045000083634684F689C43FF0200D51C43346063
:100460000E4E0C3634684F689C43BF0200D51C43C7
:100470003460521C102AFFF451AFBDE8F88F000021
:1004800044380240003001400000024000040240B5
:1004900000080240000C024000100240003C0140F5
:1004A0000AB1816170470904FBE7000001488068D8
:1004B000704700000800002002488168027811445B
:1004C00081607047080000200B4810B5016841F4B6
:1004D00000710160016841F480610160016841F4CC
:1004E00080710160032000F061F8002000F006F840
:1004F00000F024F8002010BD003C024070B50D4D06
:1005000004464FF47A712878B1FBF0F00A49096883
:10051000B1FBF0F000F018FC48B9102C07D2002213
:100520002146501E00F022F800206C6070BD0120B2
:1005300070BD000008000020140000200A4808B523
:10054000016841F480410160006800F4804000903F
:100550000548001F016841F080510160006800F00B
:100560008050009008BD000044380240F0B40E4BAB
:100570001B680C46C3F30223C3F10705042D00D901
:100580000425191D072901D2002300E0DB1E0126E6
:1005900006FA05F1491E214099409E40761E1640FC
:1005A0003143F0BC00F013BF0CED00E0064900F051
:1005B000070208684FF6FF03184040EA0220034A8A
:1005C00010430860704700000CED00E00000FA05E1
:1005D0002DE9F0470E46050065D0DFF81481D8F804
:1005E0000000F7B200F00F00B04207D288F80070A8
:1005F000D8F8000000F00F00B04254D128683D4CFC
:10060000810712D5400703D5206840F4E0502060F0
:100610002878000703D5206840F4604020602068F7
:10062000A96820F0F000084320602878C0072DD08A
:10063000304968680839012812D0022813D00328ED
:1006400011D00968890700292DDA216821F00301FA
:1006500001432160FFF72AFF814641F2883A0EE00C
:1006600009688903EFE709688901ECE7FFF71EFFD6
:10067000A0EB0901514502D90320BDE8F0872068AD
:10068000696800F00C00B0EB810FEFD1D8F80010D2
:10069000404601F00F01B14207D90770006800F031
:1006A0000F00B04201D00120E7E72878400705D5C8
:1006B0002068E96820F4E0500843206028780007AB
:1006C00006D52068296920F4604040EAC100206016
:1006D00000F038F82168084AC1F30311515CC840A2
:1006E0000649086006480068FFF708FF0020C4E7D5
:1006F000003C024008380240D019000814000020D5
:100700000C0000200448054900680968044AC1F348
:100710008221515CC8407047140000200838024014
:10072000E01900080448054900680968044AC1F353
:100730004231515CC8407047140000200838024024
:10074000E0190008154810B5006810F00C021448B4
:1007500013D01449042A0FD0082A0ED10F4C241F9D
:100760002268236802F03F025B0207D52068C0F3CD
:100770008810A0FB010106E0084610BD2168C1F306
:100780008811A1FB00010023FFF724FD2168C1F3BC
:100790000141491C4900B0FBF1F010BD083802408E
:1007A0000024F40040787D012DE9F84F04006ED05C
:1007B0002078DFF83C93C007A9F104054AD009F17D
:1007C00004000168C1F38101012908D00068C0F369
:1007D000810002280AD1D9F80000400206D5286815
:1007E000800337D560680028E1D033E06068B0F559
:1007F000803F10D0B0F5A02F286810D020F48030B2
:100800002860286820F4802028606068A8B1FFF77D
:100810004DFE06460DE0286840F48030F4E740F4D1
:1008200080202860F7E700BFFFF740FE801B6428A8
:1008300073D828688003F7D50CE0FFF737FE06462B
:1008400005E000BFFFF732FE801B6428F0D828685F
:100850008003F7D42078DFF89C8280074FF0000AED
:100860003ED5A348001D016811F00C0F08D00068A8
:10087000C0F3810002280BD1D9F80000400207D450
:100880002868800716D5E068012800D112E02BE126
:10089000E068B8B10120C8F80000FFF707FE06467F
:1008A00005E000BFFFF702FE801B0228C0D82868C1
:1008B0008007F7D52868216920F0F80040EAC100D8
:1008C00028600DE0C8F800A0FFF7F0FD064604E040
:1008D000FFF7ECFD801B02281FD828688007F7D49B
:1008E0002078000722D5824E83486169703671B145
:1008F00001210160FFF7DAFD074604E0FFF7D6FDAE
:10090000C01B022809D830688007F7D50EE0C0F870
:1009100000A0FFF7CBFD074605E082E0FFF7C6FD2C
:10092000C01B02287DD830688007F7D420784007A4
:1009300068D5DFF8BCB100270BF13C0BDBF80000F9
:10094000C0000BD4DBF8001041F08051CBF8001050
:10095000DBF80000012700F080500090674E3068FF
:10096000C00510D4306840F480703060FFF79EFD01
:10097000009005E0FFF79AFD0099401A022850D830
:100980003068C005F6D55A4EA0686C3601280FD0E5
:100990000528306810D020F001003060306820F069
:1009A00004003060A068B8B1FFF780FD00900FE050
:1009B000306840F00100F4E740F004003060F7E7F1
:1009C000FFF774FD0099411A41F28830814266D8E0
:1009D00030688007F4D50EE0FFF768FD009007E06F
:1009E000FFF764FD0099411A41F28830814256D8E0
:1009F00030688007F4D42FB1DBF8001021F080516B
:100A0000CBF80010A069C8B33949091D0968C1F3C2
:100A1000810102294AD00228504607D0C8F8600058
:100A200000E03CE0FFF742FD04463BE04746C8F8E3
:100A30006000FFF73BFD064605E000BFFFF736FD0F
:100A4000801B02282BD828688001F7D4D4E907013D
:100A50000843A16A2A4A490802EB0141626A41EA55
:100A60008211084394F82C1040EA0161C9F8001083
:100A700001203866FFF71AFD044606E036E000BFA5
:100A8000FFF714FD001B022809D828688001F7D55C
:100A90002CE000BFFFF70AFD001B022802D903204B
:100AA000BDE8F88F28688001F4D41FE00128F7D052
:100AB000D9F80000E26900F48001914214D1226A61
:100AC00000F03F0191420FD147F6C071626A0140C8
:100AD000914209D1A26A00F44031914204D1E16A05
:100AE00000F07060884201D00120D9E70020D7E7EC
:100AF0000438024000004742800E47420070004028
:100B00000000FFFF70B5040005D00025A56294F831
:100B1000510010B106E0012070BD84F8505020460D
:100B200000F030F8022084F851002068016821F0BC
:100B300040010160D4E901010843D4E903121143E3
:100B4000084361690843218B01F400710843E1699E
:100B50000843216A0843A16A084321680860A06924
:100B6000042101EA1040616A084321684860206856
:100B7000C16921F40061C1616565012084F85100FB
:100B8000002070BD10B586B0044614216846FFF7FA
:100B900059FB13492068884220D11248002102687D
:100BA00042F480520260006800F4805005900D48C5
:100BB0001438026842F001020260006800F001008F
:100BC0000590E02000900220CDE901010320039070
:100BD0000520049069460448FFF798FB06B010BD55
:100BE0000030014044380240000002402DE9F84F37
:100BF000044690F8500000271D46164689460128F5
:100C00000DD04FF0010B84F850B0FFF74FFC804639
:100C100094F85100BA46012804D002278EE0022041
:100C2000BDE8F88FB9F1000F7DD0002E7BD00320F6
:100C300084F85100C4F854A0C4F83090A686E68623
:100C4000C4F838A0A4F83CA0A4F83EA0C4F844A07E
:100C5000C4F840A0A068B0F5004F04D12068016836
:100C600041F48041016020680168490603D40168AD
:100C700041F040010160E068B0F5006F606803D0AA
:100C800030B3012E24D040E008B1012E1CD1206BDE
:100C900021680088C86006E020688168890709D556
:100CA000216B0988C160206B801C2063E08E401E90
:100CB000E08609E0FFF7FAFBA0EB0800A84202D3A8
:100CC000681C01D031E07DB3E08E0028E4D11FE044
:100CD000206B21680078087306E020688168890726
:100CE00009D5216B09780173206B401C2063E08ECD
:100CF000401EE08609E0FFF7D9FBA0EB0800A84200
:100D000002D3681C01D010E075B1E08E0028E4D158
:100D100042462946204600F0F5F908B120206065DA
:100D2000A06820B107E008E0FFE7032706E020689D
:100D3000C16880680090606D00B1012784F851B0EF
:100D400084F850A038466BE710B5401EB0F1807FA4
:100D500001D3012010BD4FF0E02460610F21601726
:100D600000F035FB0020A06107202061002010BDAD
:100D700070B5040004D094F83900002510B106E0E5
:100D8000012070BD84F83850204600F023F824205C
:100D900084F839002068C16821F40051C160204600
:100DA00000F080FA2068016921F490410161206817
:100DB000416921F02A0141612068C16841F4005174
:100DC000C160E563202084F8390084F83A000020EF
:100DD00070BD000010B586B0044614216846FFF7C8
:100DE00031FA14492068884221D113480021026851
:100DF00042F010020260006800F0100005900E48FA
:100E00001438026842F001020260006800F001003C
:100E100005904FF4C06000900220CDE9010103204D
:100E200003900720049069460448FFF76FFA06B064
:100E300010BD000000100140443802400000024094
:100E4000FEE70000F0B587B014216846FFF7FAF915
:100E500021480024016841F004010160016801F0AB
:100E600004010591016841F080010160016801F011
:100E700080010591016841F0010101600068174E91
:100E800000F001004FF4005505900022294630463D
:100E9000FFF706FB124F002210213846FFF700FB38
:100EA00000950125CDE90154694630460394FFF7CA
:100EB0002DFACDE90054694638460294FFF726FA28
:100EC00010200090CDE90154694638460394FFF79D
:100ED0001DFA07B0F0BD00003038024000080240A3
:100EE000000002400F4810B50D4901604FF48271B7
:100EF000416000218160C1604FF400720161C0E96E
:100F00000512C1610162416281620A21C162FFF77B
:100F1000F9FD002803D0BDE81040FFF7E3B910BD8C
:100F200000300140600000200C4810B50A49016003
:100F30004FF4E1314160002181600C22C160C0E9C1
:100F400004128161C161FFF713FF002803D0BDE8DF
:100F50001040FFF7C7B910BD00100140B8000020D5
:100F6000FEE7FEE72DE9F0410B4E4FF4004500226D
:100F700029463046FFF794FA00246F11002000F054
:100F8000ADF8641CBC42F9D329463046BDE8F041B7
:100F90000122FFF785BA00000000024070B501226F
:100FA000434CD50229462046FFF77AFA1420FFF772
:100FB0009BF9002229462046FFF772FA0A20FFF724
:100FC00093F9012229462046FFF76AFA2D010022F3
:100FD00029462046FFF764FAAE2000F06BF80220A5
:100FE00000F068F8102000F065F8402000F062F88A
:100FF000812000F05FF87F2000F05CF8C82000F04E
:1010000059F8A12000F056F8A82000F053F83F202E
:1010100000F050F8D32000F04DF8002000F04AF81E
:10102000D52000F047F8F02000F044F8D92000F077
:1010300041F8F12000F03EF8DA2000F03BF81220F1
:1010400000F038F8DB2000F035F8402000F032F8EE
:10105000202000F02FF8002000F02CF8212000F0D4
:1010600029F8002000F026F87F2000F023F8222045
:1010700000F020F8002000F01DF8072000F01AF81A
:101080008D2000F017F8142000F014F8A42000F0D0
:1010900011F8A62000F00EF8AF2000F00BF80022A7
:1010A00029462046FFF7FCF9BDE87040FFF75ABF1C
:1010B0000000024001B500224FF480510548FFF7BF
:1010C000EFF94FF47A73012269460348FFF78EFD6A
:1010D00008BD0000000002406000002001B50122B0
:1010E00011030548FFF7DCF94FF47A7301226946D2
:1010F0000248FFF77BFD08BD0000024060000020B1
:101100007047000038B504461248134B0068B0FB26
:10111000F3F04FF47A73584300906068B0F5827F23
:101120000DD10B46009200228021204600F016F8D7
:1011300070B1606D40F020006065032038BD0098FC
:1011400030B1401E009020688068C0430006F6D58C
:10115000002038BD1400002000366E012DE9F0415A
:101160001D4617460E460446DDF8188008E0681C48
:1011700006D0FFF79BF9A0EB0800A8420BD255B1AF
:101180002068806836EA000030D00020B842EED1F6
:101190000020BDE8F0812068416821F0E001416055
:1011A0006068B0F5827F0BD1A068B0F5004F02D027
:1011B000B0F5806F04D12068016821F04001016022
:1011C000A06AB0F5005F09D12068016821F40051E0
:1011D00001602068016841F400510160012084F839
:1011E0005100002084F850000320D2E70120CDE711
:1011F0007047FFF761B9000030B593B03021684601
:10120000FFF720F814210CA8FFF71CF81C48002455
:10121000016841F080510160006800F08050119039
:101220001848016841F4404101600068022500F45B
:1012300040401190012003901020009506950490E5
:10124000CDE90740C820CDE9090504200B90684688
:10125000FFF7AAFA08B172B6FEE70F20CDE90C0538
:101260004FF48050CDE90E4003210CA81094FFF7F5
:10127000AFF9002801D072B6FEE713B030BD000010
:1012800040380240007000400548016841F4700198
:10129000016003494FF0006080390860704700002A
:1012A00088ED00E02DE9F041044600680169E2683C
:1012B00021F44051114301612169A068E2690843AA
:1012C0006169114308432168CA6849F20C639A4373
:1012D0000243CA6020684169A26921F44071114348
:1012E0004161E069192764253226B0F5004F354A7F
:1012F000354920684FF0000806D0884201D090425E
:1013000036D1FFF70FFA35E0884201D0904202D182
:10131000FFF708FA01E0FFF7F5F961684A18A0FB4A
:10132000070148EB0803FEF755FF0146B0FBF5F057
:101330000201B1FBF5F06FF01803584301EB800098
:1013400006EBC000B0FBF5F000F0F80002EB400245
:10135000B1FBF5F0584301EB800006EBC000B0FB99
:10136000F5F000F00700216810448860BDE8F081C6
:10137000FFF7C8F961688B0F8A00A0FB0701FEF731
:1013800029FF0146B0FBF5F06FF01802504301EB66
:10139000800006EB0010B0FBF5F000F0F002B1FBAE
:1013A000F5F002EB0012B1FBF5F06FF018035843B3
:1013B00001EB800006EB0010B0FBF5F000F00F0031
:1013C000D1E700000014014000100140FEE70907CA
:1013D000090E002804DB00F1E02080F800147047BB
:1013E00000F00F0000F1E02080F8141D70470000AD
:1013F00030B528B1144C031F002021680A4605E0CF
:10140000084630BD9A4203D810465268002AF9D1E6
:10141000002800D041680BD00468A3EB0005A5426A
:1014200004D11B681C440346046002E0436000E0F2
:1014300023603AB11C68D51AA54203D115682C4423
:101440001C6052685A6030BD300000202DE9F04722
:1014500082460F4C10480D4E0E4F001B4FF00008F7
:1014600020F007054FF0010900221146504600F018
:1014700025F8002802D1306810B10020BDE8F087BF
:101480003C60C4E90058C6F80090EDE73400002045
:10149000FC00002030000020F802002002E008C814
:1014A000121F08C1002AFAD170477047002001E0DE
:1014B00001C1121F002AFBD1704700002DE9F04145
:1014C0000B3020F00706104D19E02068B04215D30C
:1014D000B0420AD9871B201DD4F80480FEF7DCFE39
:1014E000A019C0E90078286004E060682860201D29
:1014F000FEF7D2FE201D2660BDE8F081251D2C6878
:10150000002CE2D10020F7E73000002008B5FEF7FC
:10151000DBFFFFF771FEFFF795FCFFF7E3FCFFF73A
:1015200003FD0A20FEF7E0FE00F0CAF9FFF736FDE2
:101530000A2000F0CFF8244D244FDFF894800024D7
:101540004FF0100907F1140608F1140A68606201EF
:101550000021042000F0DEF847F8240058F8241099
:1015600000F0F4F809EB44120021022000F0D2F858
:1015700046F824005AF8241000F0E8F856F8240041
:10158000042100F04CF957F824100022686800F09C
:1015900086F856F824100022686800F080F8641C71
:1015A000E4B2052CD3D340220021686800F09DF8F6
:1015B000002400944FF4E1736FF03F022146686805
:1015C00000F04EF82C70FEE70000002038000020EC
:1015D000A81900082DE9F047DFF8808004469946F5
:1015E00016460F46DDF820A00025D8F8040003E0D9
:1015F0000168A14219D080690028F9D11C20FFF7A9
:1016000025FF98F8002041465AB18B68C0E905359E
:101610009861521C886088F8002004600781468128
:1016200011E0456185614860F3E721888288891A65
:1016300002893A44511A01816188C288891A428913
:101640003244511A4181218881806188C180C581DD
:10165000A0F80C90C0F810A0BDE8F087180000209A
:101660002DE9F84F061D984691468A460546002406
:101670000A9F0FE0401EA04201D1384600E0002042
:10168000009056F8340043464A465146FFF7A2FF01
:10169000641CE4B22878A042ECD8BDE8F88F10B5FD
:1016A0000478031D43F83410017803EBC1010A717B
:1016B00062B190F90110491C08D1017853F831103A
:1016C0000A7A42F020020A72017841700178491CBE
:1016D000017010BD10B5042101EBC000FFF7B6FE8C
:1016E00000210170FF21417010BD2DE9F041061D60
:1016F000174688460546002407E056F834003A4667
:10170000414600F0D6F8641CE4B22878A042F4D830
:10171000BDE8F0812DE9F04115460E46074600F080
:1017200075F8068004464580007A40F00101217278
:101730000220FFF78BFEE060014607700020487032
:10174000204600F04FF82046BDE8F0812DE9F04139
:101750000F46C168064600252C463846491C00F055
:1017600007F9012832D000213A46084608E00D2B3F
:101770002ED00A2B2CD0401CC0B2491C89B2521C5E
:101780001378002BF3D120B16D1CEDB2A04200D92B
:101790000446891CF06800F0B5F80346411CF0606F
:1017A000384600F0F5F818780D4911F8100060433C
:1017B00000B2B0801A7801EB4201497811FB05F1C3
:1017C000F1801978042901D14010B080BDE8F08182
:1017D0006D1CEDB2A04200D904460020CDE7000008
:1017E000E8190008084910B50A7800233AB18C6856
:1017F000C0E904436061521C88600A7010BD036137
:1018000043614860F7E700002400002010B518206D
:10181000FFF71CFE102101720021C16010BD0022E3
:101820000C290DD2DFE801F033060B0D121B242624
:101830002E35373FB0F90610C1F1400116E00280A5
:101840007047B0F90410C1F1800106E0B0F904104E
:10185000C1F1800101EBD171491001807047B0F9ED
:101860000610C1F1400101EBD17149104180704770
:1018700002800CE0B0F90410C1F1800101EBD171DC
:10188000491003E0B0F90410C1F1800101804280E9
:1018900070470280CEE7B0F90410C1F1800101EB7E
:1018A000D171491003E0B0F90410C1F18001018049
:1018B000C0E7038819440180418811444180704782
:1018C00010B50E4886B00024016841F001010160A6
:1018D0000068142100F0010005906846FEF7B2FC94
:1018E0004FF4184000900120CDE9010469460448F6
:1018F0000394FEF70BFD06B010BD00003038024027
:10190000000002402DE9F04704008A4616D054F842
:10191000047CD4F800903E1F564500D95646204618
:10192000FFF766FD05468846324621465046FFF7DA
:10193000C5FD40B1C0F80090BDE8F087BDE8F047B4
:101940000846FFF783BD44E9017955B129686A1853
:10195000211F8A4202D9611B091F2960C5F8048032
:10196000EAE7024AC2F80080E6E700003000002003
:1019700005E000BF11F8013B401C934204D10278FE
:10198000002AF7D1087808B100207047012070477D
:1019900003E000BF01F8012B401C0278002AF9D1B6
:1019A00000200870704700002C1A0008201A000858
:1019B000381A0008141A0008441A0008FC19000814
:1019C000F4190008081A00080000000000000000D8
:1019D00000000000000000000102030406070809DF
:1019E000000000000102030406080808081008109F
:1019F0001010000076322E302E30000069576174CE
:101A000063682D76322E30005365702032322032DA
:101A100030323200B5E7B3D8B5E7D1B9A3BA000088
:101A2000B9CCBCFEB0E6B1BEA3BA0000C9E8B1B8FB
:101A3000D0CDBAC5A3BA0000B1E0D2EBCAB1BCE4C4
:101A4000A3BA0000C9CFB4CEB3E4B5E7A3BA00008F
:101A5000701A000800000020380000009C140008E4
:101A6000A81A000838000020C0060000AC140008C6
:101A70000000000000000000010000001000000055
:101A8000000000000024F40000000000000000003E
:101A90000000000000000000000000000000000046
:081AA00000000000000000003E
:040000050800019955
:00000001FF
