:0200000400FFFB
:1000000002008B75E900A9D7BA75EA0075930075EF
:10001000940075910075920075950075960075B104
:100020000075B20075B30075B40075C90075CA00DB
:1000300075CB0075CC0075E10075E2007590FFA2EC
:10004000B4E4337807B29074FF120075A2B5E433BC
:100050007807B29174FF120075A2B6E4337807B244
:10006000CA74FF120075A2B7E43378D3B29374FF59
:1000700012007580CA7CAB7E440FA07D341B347D9A
:100080004378F87CBA147CAB78ED227584017E4409
:10009000041FE47A49B01B4478F97EF80007020097
:0100A000035C
:00000001FF
