:020000040800F2
:1000000000040020450100084D0100084F010008D0
:1000100051010008530100085501000800000000CC
:100020000000000000000000000000005701000870
:1000300059010008000000005B0100085D01000894
:100040005F0100085F0100085F0100085F01000810
:100050005F0100085F0100085F0100085F01000800
:100060005F0100085F0100085F0100085F010008F0
:100070005F0100085F0100085F0100085F010008E0
:100080005F0100085F0100085F0100085F010008D0
:100090005F0100085F0100085F0100085F010008C0
:1000A0005F0100085F0100085F0100085F010008B0
:1000B0005F0100085F0100085F0100085F010008A0
:1000C0005F0100085F0100085F0100085F01000890
:1000D0005F0100085F0100085F0100085F01000880
:1000E0005F0100085F0100085F0100085F01000870
:1000F0005F0100085F0100085F0100085F01000860
:100100005F0100085F0100085F0100085F0100084F
:100110005F0100085F0100085F0100085F0100083F
:100120005F0100085F0100085F0100085F0100082F
:10013000DFF80CD000F018F800480047BD010008B7
:10014000000400200648804706480047FEE7FEE717
:10015000FEE7FEE7FEE7FEE7FEE7FEE7FEE7FEE777
:10016000B901000831010008064C074D06E0E068BF
:1001700040F0010394E8070098471034AC42F6D3EE
:10018000FFF7DAFFE0010008F001000841F2180073
:10019000C4F20200016841F00801016040F600402D
:1001A000C4F201000168C26841F00101016022F05F
:1001B0000101C1607047000070470000FFF7E6FFD3
:1001C000FEE702E008C8121F08C1002AFAD17047F2
:1001D0007047002001E001C1121F002AFBD17047C7
:1001E000F00100080000002000040000D201000817
:0400000508000131BD
:00000001FF
