:020000040800F2
:10000000E8090020B1010008EB0C0008E10B000832
:10001000E90C0008BD020008C90E0008000000003D
:10002000000000000000000000000000EF0C0008CD
:10003000BF02000800000000ED0C0008F10C0008F1
:10004000CB010008CB010008CB010008CB01000860
:10005000CB010008CB010008CB010008CB01000850
:10006000CB010008CB010008CB010008CB01000840
:10007000CB010008CB010008CB010008CB01000830
:10008000CB010008CB010008CB01000800000000F4
:10009000000000000000000000000000CB0100088C
:1000A000CB010008CB010008CB010008CB01000800
:1000B000CB010008CB010008CB010008CB010008F0
:1000C000CB010008CB010008CB010008CB010008E0
:1000D000CB010008CB010008CB01000800000000A4
:1000E000CB010008CB010008CB0100080000000094
:1000F000000000000000000000000000CB0100082C
:1001000000000000CB010008CB010008CB01000873
:1001100000000000000000000000000000000000DF
:10012000CB010008CB010008CB010008CB0100087F
:10013000CB010008000000000000000000000000EB
:10014000000000000000000000000000CB010008DB
:10015000CB010008CB010008CB010008CB0100084F
:10016000CB010008CB0100080000000000000000E7
:10017000000000000000000000000000000000007F
:1001800000000000CB01000800000000000000009B
:10019000CB010008CB010008DFF810D000F07CF89C
:1001A000004800473B1B0008AFF30080E80900202F
:1001B0000648804706480047FEE7FEE7FEE7FEE701
:1001C000FEE7FEE7FEE7FEE7FEE7FEE7850D000837
:1001D000990100082DE9F05F0546002092469B46F4
:1001E00088460646814640241BE02846414647464D
:1001F000224600F041F853465A46C01A914110D3A6
:1002000011461846224600F028F82D1A67EB01081F
:100210004F4622460120002100F01FF817EB00098D
:100220004E41201EA4F10104DFDC484631462A4637
:100230004346BDE8F09FD2B201E000F8012B491E11
:10024000FBD270470022F6E710B513460A46044673
:100250001946FFF7F0FF204610BD202A04DB203AA4
:1002600000FA02F1002070479140C2F1200320FA09
:1002700003F3194390407047202A04DB203A21FA07
:1002800002F00021704721FA02F3D040C2F12002AF
:100290009140084319467047064C074D06E0E06858
:1002A00040F0010394E8070098471034AC42F6D3BD
:1002B000FFF776FF8C4E0008AC4E0008FEE7704753
:1002C00072B6FEE770B5044600F0E2F80546601C21
:1002D00002D004480078044400F0DAF8401BA04241
:1002E000FAD370BD000000202DE9F84F00224FF036
:1002F000010803254FF00F0E0B6808FA02F42340A3
:10030000A34271D14E68012E05D0022E03D0112ECA
:1003100001D0122E15D18668570005FA07FC26EA8F
:100320000C06D1F80CC00CFA07FC4CEA060CC0F81D
:1003300008C04668A6430C79C4F3001494403443C3
:100340004460C668570005FA07FC8C6826EA0C066C
:10035000BC403443C4604C68022C01D0122C13D131
:10036000D40800EB8404A346D4F8209054074FEA45
:10037000D46A0EFA0AF629EA06090E6906FA0AF69E
:1003800046EA0906CBF8206004680E7924EA0C04DA
:1003900006F00306BE40264306604C68E40056D5CE
:1003A0002E4C266846F480462660246822F0030618
:1003B00004F4804400942A4C3444A446D4F80848F9
:1003C0009607370F0EFA07F6B443264EB04201D116
:1003D000002615E0244EB04201D1012610E0234E44
:1003E000B04202D102260BE031E0214EB04201D1F1
:1003F000032605E01F4EB04201D1042600E0072687
:10040000BE402643CCF808681B4E34684F689C43B6
:10041000FF0300D51C433460174E361D34684F6807
:100420009C43BF0300D51C433460134E0836346828
:100430004F689C43FF0200D51C4334600E4E0C36BF
:1004400034684F689C43BF0200D51C433460521C83
:10045000102AFFF451AFBDE8F88F00004438024085
:100460000030014000000240000402400008024049
:10047000000C024000100240003C014000690840AE
:1004800000D0012070470AB1816170470904FBE781
:100490000148806870470000000000200248816821
:1004A0000278114481607047000000200B4810B5AD
:1004B000016841F400710160016841F480610160EC
:1004C000016841F480710160032000F061F80020B0
:1004D00000F006F800F024F8002010BD003C0240B7
:1004E00070B50D4D04464FF47A712878B1FBF0F0E9
:1004F0000A490968B1FBF0F000F0F6FA48B9102C8F
:1005000007D200222146501E00F022F800206C6025
:1005100070BD012070BD0000000000200C00002014
:100520000A4808B5016841F480410160006800F4A0
:10053000804000900548001F016841F08051016033
:10054000006800F08050009008BD00004438024070
:10055000F0B40E4B1B680C46C3F30223C3F107052E
:10056000042D00D90425191D072901D2002300E01C
:10057000DB1E012606FA05F1491E214099409E40E6
:10058000761E16403143F0BC00F09FBC0CED00E03D
:10059000064900F0070208684FF6FF03184040EADA
:1005A0000220034A10430860704700000CED00E091
:1005B0000000FA052DE9F0470E46050065D0DFF88A
:1005C0001481D8F80000F7B200F00F00B04207D253
:1005D00088F80070D8F8000000F00F00B04254D145
:1005E00028683D4C810712D5400703D5206840F4A8
:1005F000E05020602878000703D5206840F4604070
:1006000020602068A96820F0F00008432060287866
:10061000C0072DD0304968680839012812D0022857
:1006200013D0032811D00968890700292DDA216821
:1006300021F0030101432160FFF72AFF814641F2C7
:10064000883A0EE009688903EFE709688901ECE759
:10065000FFF71EFFA0EB0901514502D90320BDE8B9
:10066000F0872068696800F00C00B0EB810FEFD1D3
:10067000D8F80010404601F00F01B14207D90770C9
:10068000006800F00F00B04201D00120E7E72878B1
:10069000400705D52068E96820F4E0500843206051
:1006A0002878000706D52068296920F4604040EAD0
:1006B000C100206000F038F82168084AC1F3031136
:1006C000515CC8400649086006480068FFF708FF0B
:1006D0000020C4E7003C024008380240442A0008D9
:1006E0000C00002004000020044805490068096847
:1006F000044AC1F38221515CC84070470C000020BD
:1007000008380240542A000804480549006809686E
:10071000044AC1F34231515CC84070470C000020CC
:1007200008380240542A0008154810B5006810F037
:100730000C02144813D01449042A0FD0082A0ED1F1
:100740000F4C241F2268236802F03F025B0207D58A
:100750002068C0F38810A0FB010106E0084610BD28
:100760002168C1F38811A1FB00010023FFF732FDCE
:100770002168C1F30141491C4900B0FBF1F010BDF3
:10078000083802400024F40040787D012DE9F84F3C
:1007900004006ED02078DFF83C93C007A9F104056F
:1007A0004AD009F104000168C1F38101012908D090
:1007B0000068C0F3810002280AD1D9F80000400285
:1007C00006D52868800337D560680028E1D033E07B
:1007D0006068B0F5803F10D0B0F5A02F286810D029
:1007E00020F480302860286820F480202860606829
:1007F000A8B1FFF74DFE06460DE0286840F48030B2
:10080000F4E740F480202860F7E700BFFFF740FEE0
:10081000801B642873D828688003F7D50CE0FFF7A5
:1008200037FE064605E000BFFFF732FE801B642856
:10083000F0D828688003F7D42078DFF89C828007FE
:100840004FF0000A3ED5A348001D016811F00C0FBF
:1008500008D00068C0F3810002280BD1D9F800004D
:10086000400207D42868800716D5E068012800D127
:1008700012E02BE1E068B8B10120C8F80000FFF7F2
:1008800007FE064605E000BFFFF702FE801B0228B8
:10089000C0D828688007F7D52868216920F0F800BB
:1008A00040EAC10028600DE0C8F800A0FFF7F0FDA5
:1008B000064604E0FFF7ECFD801B02281FD82868DD
:1008C0008007F7D42078000722D5824E83486169DB
:1008D000703671B101210160FFF7DAFD074604E0CF
:1008E000FFF7D6FDC01B022809D830688007F7D56E
:1008F0000EE0C0F800A0FFF7CBFD074605E082E060
:10090000FFF7C6FDC01B02287DD830688007F7D4EA
:100910002078400768D5DFF8BCB100270BF13C0B0D
:10092000DBF80000C0000BD4DBF8001041F0805170
:10093000CBF80010DBF80000012700F08050009099
:10094000674E3068C00510D4306840F48070306065
:10095000FFF79EFD009005E0FFF79AFD0099401A11
:10096000022850D83068C005F6D55A4EA0686C36BB
:1009700001280FD00528306810D020F00100306029
:10098000306820F004003060A068B8B1FFF780FD47
:1009900000900FE0306840F00100F4E740F0040000
:1009A0003060F7E7FFF774FD0099411A41F2883093
:1009B000814266D830688007F4D50EE0FFF768FD05
:1009C000009007E0FFF764FD0099411A41F288307A
:1009D000814256D830688007F4D42FB1DBF800107C
:1009E00021F08051CBF80010A069C8B33949091D26
:1009F0000968C1F3810102294AD00228504607D074
:100A0000C8F8600000E03CE0FFF742FD04463BE030
:100A10004746C8F86000FFF73BFD064605E000BF0B
:100A2000FFF736FD801B02282BD828688001F7D4F9
:100A3000D4E907010843A16A2A4A490802EB0141A7
:100A4000626A41EA8211084394F82C1040EA01617D
:100A5000C9F8001001203866FFF71AFD044606E0C9
:100A600036E000BFFFF714FD001B022809D82868F4
:100A70008001F7D52CE000BFFFF70AFD001B02281C
:100A800002D90320BDE8F88F28688001F4D41FE064
:100A90000128F7D0D9F80000E26900F48001914202
:100AA00014D1226A00F03F0191420FD147F6C07184
:100AB000626A0140914209D1A26A00F44031914238
:100AC00004D1E16A00F07060884201D00120D9E7CA
:100AD0000020D7E70438024000004742800E47421A
:100AE000007000400000FFFF10B5401EB0F1807F95
:100AF00001D3012010BD4FF0E02460610F21601789
:100B000000F0E3F90020A06107202061002010BD63
:100B100070B5040004D094F83900002510B106E047
:100B2000012070BD84F83850204600F023F82420BE
:100B300084F839002068C16821F40051C160204662
:100B400000F02EF92068016921F4904101612068CC
:100B5000416921F02A0141612068C16841F40051D6
:100B6000C160E563202084F8390084F83A00002051
:100B700070BD000010B586B0044614216846FFF72A
:100B800061FB14492068884221D113480021026882
:100B900042F010020260006800F0100005900E485C
:100BA0001438026842F001020260006800F001009F
:100BB00005904FF4C06000900220CDE901010320B0
:100BC00003900720049069460448FFF78DFB06B0A8
:100BD00010BD0000001001404438024000000240F7
:100BE000FEE7000010B50C4886B00024016841F013
:100BF000020101600068142100F0020005906846BF
:100C0000FFF720FB2020CDE9000469460348029449
:100C1000FFF76AFB06B010BD303802400004024006
:100C200070B586B014216846FFF70CFB1D48002400
:100C3000016841F004010160016801F004010591BF
:100C4000016841F080010160016801F080010591B7
:100C5000016841F001010160016801F001010591A5
:100C6000016841F00201016000680F4E00F00200CF
:100C70004FF400550590002229463046FFF703FC4B
:100C800000950125CDE90154694630460394FFF7EC
:100C90002BFBCDE90054694604480294FFF724FB7E
:100CA00006B070BD3038024000080240000002402B
:100CB0000C4810B50A4901604FF4E1314160002150
:100CC00081600C22C160C0E904128161C161FFF73B
:100CD0001FFF002803D0BDE81040FFF7F1BA10BD98
:100CE0000010014010010020FEE7FEE7704770474A
:100CF000FFF7D4BB30B593B030216846FFF7A2FAB6
:100D000014210CA8FFF79EFA1C480024016841F04A
:100D100080510160006800F080501190184801680F
:100D200041F4404101600068022500F44040119008
:100D3000012003901020009506950490CDE907400E
:100D4000C820CDE9090504200B906846FFF71EFD79
:100D500008B172B6FEE70F20CDE90C054FF48050C4
:100D6000CDE90E4003210CA81094FFF723FC0028C6
:100D700001D072B6FEE713B030BD0000403802402B
:100D8000007000400548016841F4700101600349AA
:100D90004FF00060803908607047000088ED00E087
:100DA0002DE9F041044600680169E26821F44051F0
:100DB000114301612169A068E26908436169114337
:100DC00008432168CA6849F20C639A430243CA6027
:100DD00020684169A26921F4407111434161E069D1
:100DE000192764253226B0F5004F354A3549206869
:100DF0004FF0000806D0884201D0904236D1FFF76C
:100E000083FC35E0884201D0904202D1FFF77CFCA0
:100E100001E0FFF769FC61684A18A0FB070148EB95
:100E20000803FFF7D7F90146B0FBF5F00201B1FB6B
:100E3000F5F06FF01803584301EB800006EBC0009B
:100E4000B0FBF5F000F0F80002EB4002B1FBF5F06A
:100E5000584301EB800006EBC000B0FBF5F000F05A
:100E60000700216810448860BDE8F081FFF73CFC72
:100E700061688B0F8A00A0FB0701FFF7ABF9014601
:100E8000B0FBF5F06FF01802504301EB800006EB69
:100E90000010B0FBF5F000F0F002B1FBF5F002EB52
:100EA0000012B1FBF5F06FF01803584301EB80001E
:100EB00006EB0010B0FBF5F000F00F00D1E70000EA
:100EC0000014014000100140FEE70907090E002848
:100ED00004DB00F1E02080F80014704700F00F0000
:100EE00000F1E02080F8141D704702E008C8121FCE
:100EF00008C1002AFAD170477047002001E001C103
:100F0000121F002AFBD1704710B50DA3102200213B
:100F10000D4800F03BFF0DA3202200210A4800F0FD
:100F200035FF0EA330220021074800F02FFF40229A
:100F3000BDE810400AA30021034800F027BF0000CD
:100F400053544D3332000000500500204D756C7431
:100F500069204D656E7520546573740000000000B3
:100F6000456E74657220746F2054657374000000C0
:100F700010B510A3102200210F4800F007FF102227
:100F80000EA311460C4800F001FF0EA320221021F1
:100F9000094800F0FBFE0DA330221021064800F0A6
:100FA000F5FE4022BDE810400BA31021024800F0DE
:100FB000EDBE00003E000000500500205765617442
:100FC000686572004D757369630000004465766959
:100FD000636520496E666F0072657475726E0000FD
:100FE00010B510A3102200210F4800F0CFFE1022F0
:100FF0000EA311460C4800F0C9FE0FA320221021B9
:10100000094800F0C3FE0EA330221021064800F06C
:10101000BDFE4022BDE810400CA31021024800F0A4
:10102000B5BE00003E0000005005002048616E671C
:101030005A686F75000000004265694A696E670072
:101040005368616E674861690000000072657475DD
:10105000726E000010B510A3202200210F4800F08E
:1010600095FE10220EA311460C4800F08FFE0FA330
:1010700020221021094800F089FE0EA33022102101
:10108000064800F083FE4022BDE810400CA310216A
:10109000024800F07BBE00003E000000500500202A
:1010A00048616E675A686F75000000004265694AC2
:1010B000696E67005368616E6748616900000000EF
:1010C00072657475726E000010B510A33022002195
:1010D0000F4800F05BFE10220EA311460C4800F0F2
:1010E00055FE0FA320221021094800F04FFE0EA349
:1010F00030221021064800F049FE4022BDE8104091
:101100000CA31021024800F041BE00003E00000088
:101110005005002048616E675A686F750000000036
:101120004265694A696E67005368616E6748616924
:101130000000000072657475726E000010B510A397
:10114000402200210F4800F021FE10220EA311467C
:101150000C4800F01BFE0FA320221021094800F0CC
:1011600015FE0EA330221021064800F00FFE40228B
:10117000BDE810400CA31021024800F007BE00009B
:101180003E0000005005002048616E675A686F7588
:10119000000000004265694A696E67005368616E2D
:1011A000674861690000000072657475726E000026
:1011B00010B50DA310220021104800F0E7FD10A388
:1011C000202200210D4800F0E1FD0BA33022002178
:1011D0000A4800F0DBFD4022BDE810400AA30021D0
:1011E000064800F0D3BD000048616E675A686F750D
:1011F000205765617468657200000000500500208A
:1012000053756E6E79000000456E74657220746FC0
:101210002052657475726E0010B50DA31022002166
:101220000F4800F0B3FD0FA3202200210C4800F06E
:10123000ADFD0EA330220021094800F0A7FD402299
:10124000BDE810400AA30021054800F09FBD000042
:101250004265694A696E6720576561746865720006
:101260005005002053756E6E7900000000000000EC
:10127000456E74657220746F2052657475726E00CD
:1012800010B50DA310220021104800F07FFD10A31F
:10129000202200210D4800F079FD0BA3302200210F
:1012A0000A4800F073FD4022BDE810400AA3002167
:1012B000064800F06BBD00005368616E67486169C5
:1012C00020576561746865720000000050050020B9
:1012D00053756E6E79000000456E74657220746FF0
:1012E0002052657475726E0010B510A32022002183
:1012F0000F4800F04BFD10220EA311460C4800F0E1
:1013000045FD0EA320221021094800F03FFD0DA34A
:1013100030221021064800F039FD4022BDE810407F
:101320000BA31021024800F031BD00003E00000078
:101330005005002057656174686572004D757369CA
:101340006300000044657669636520496E666F003E
:1013500072657475726E000010B510A31022002122
:101360000F4800F013FD10220EA311460C4800F0A8
:101370000DFD0FA320221021094800F007FD0EA348
:1013800030221021064800F001FD4022BDE8104047
:101390000DA31021024800F0F9BC00003E0000003F
:1013A0005005002057696E647948696C6C00000034
:1013B0004E657720426F79004B69737320546865DE
:1013C000205261696E00000072657475726E0000D3
:1013D00010B510A3202200210F4800F0D7FC1022E6
:1013E0000EA311460C4800F0D1FC0FA320221021BF
:1013F000094800F0CBFC0EA330221021064800F073
:10140000C5FC4022BDE810400DA31021024800F0A9
:10141000BDBC00003E0000005005002057696E640E
:101420007948696C6C0000004E657720426F790046
:101430004B69737320546865205261696E00000027
:1014400072657475726E000010B510A33022002111
:101450000F4800F09BFC10220EA311460C4800F030
:1014600095FC0FA320221021094800F08FFC0EA349
:1014700030221021064800F089FC4022BDE81040CF
:101480000DA31021024800F081BC00003E000000C6
:101490005005002057696E647948696C6C00000043
:1014A0004E657720426F79004B69737320546865ED
:1014B000205261696E00000072657475726E0000E2
:1014C00010B510A3402200210F4800F05FFC10224D
:1014D0000EA311460C4800F059FC0FA32022102146
:1014E000094800F053FC0EA330221021064800F0FA
:1014F0004DFC4022BDE810400DA31021024800F031
:1015000045BC00003E0000005005002057696E6495
:101510007948696C6C0000004E657720426F790055
:101520004B69737320546865205261696E00000036
:1015300072657475726E000010B50DA31022002143
:101540000F4800F023FC0FA3202200210C4800F0DC
:101550001DFC0FA330220021094800F017FC402297
:10156000BDE810400BA30021054800F00FBC0000AF
:101570002A2A2A204D75736963202A2A2A0000002E
:101580005005002057696E647948696C6C00000052
:1015900000000000456E74657220746F20526574FF
:1015A00075726E0010B50DA3102200210F4800F0D7
:1015B000EDFB0FA3202200210C4800F0E7FB0EA357
:1015C00030220021094800F0E1FB4022BDE8104034
:1015D0000AA30021054800F0D9BB00002A2A2A20CE
:1015E0004D75736963202A2A2A00000050050020E7
:1015F0004E657720426F790000000000456E7465EB
:101600007220746F2052657475726E0010B50DA350
:10161000102200210F4800F0B9FB0FA32022002167
:101620000C4800F0B3FB10A330220021094800F061
:10163000ADFB4022BDE810400CA30021054800F09E
:10164000A5BB00002A2A2A204D75736963202A2A27
:101650002A000000500500204B696C6C205468651E
:10166000205261696E00000000000000456E746544
:101670007220746F2052657475726E0010B510A3DD
:10168000302200210F4800F081FB10220EA31146EA
:101690000C4800F07BFB0EA320221021094800F02B
:1016A00075FB0DA330221021064800F06FFB40228D
:1016B000BDE810400BA31021024800F067BB0000FA
:1016C0003E00000050050020576561746865720097
:1016D0004D75736963000000446576696365204950
:1016E0006E666F0072657475726E000010B510A39F
:1016F000102200210F4800F049FB10220EA31146D2
:101700000C4800F043FB0FA320221021094800F0F1
:101710003DFB0EA330221021064800F037FB40228B
:10172000BDE810400BA31021024800F02FBB0000C1
:101730003E000000500500205769466920496E664A
:101740006F000000566F6C756D6500005665727312
:10175000696F6E0072657475726E000010B510A32B
:10176000202200210F4800F011FB10220EA3114689
:101770000C4800F00BFB0FA320221021094800F0B9
:1017800005FB0EA330221021064800F0FFFA40228C
:10179000BDE810400BA31021024800F0F7BA00008A
:1017A0003E000000500500205769466920496E66DA
:1017B0006F000000566F6C756D65000056657273A2
:1017C000696F6E0072657475726E000010B510A3BB
:1017D000302200210F4800F0D9FA10220EA3114642
:1017E0000C4800F0D3FA0FA320221021094800F082
:1017F000CDFA0EA330221021064800F0C7FA40228D
:10180000BDE810400BA31021024800F0BFBA000051
:101810003E000000500500205769466920496E6669
:101820006F000000566F6C756D6500005665727331
:10183000696F6E0072657475726E000010B510A34A
:10184000402200210F4800F0A1FA10220EA31146F9
:101850000C4800F09BFA0FA320221021094800F049
:1018600095FA0EA330221021064800F08FFA40228C
:10187000BDE810400BA31021024800F087BA000019
:101880003E000000500500205769466920496E66F9
:101890006F000000566F6C756D65000056657273C1
:1018A000696F6E0072657475726E000010B50DA3DD
:1018B000102200210E4800F069FA0EA32022002118
:1018C0000B4800F063FA0EA330220021084800F014
:1018D0005DFA4022BDE810400CA30021044800F04E
:1018E00055BA00005769464920696E666F000000CE
:1018F00050050020737369643A787878000000001E
:101900007061737377643A7878780000456E746517
:101910007220746F2052657475726E0010B50DA33D
:10192000102200210E4800F031FA0EA320220021DF
:101930000B4800F02BFA0EA330220021084800F0DB
:1019400025FA4022BDE810400AA30021044800F017
:101950001DBA0000566F6C756D6520696E666F006C
:1019600050050020766F6C756D653A787800000040
:1019700000000000456E74657220746F205265741B
:1019800075726E0010B50DA3102200210F4800F0F3
:10199000FDF90FA3202200210C4800F0F7F90AA35B
:1019A00030220021094800F0F1F94022BDE8104042
:1019B0000BA30021054800F0E9B9000056657273D9
:1019C000696F6E20696E666F000000005005002090
:1019D00076657273696F6E3A56312E302E30000084
:1019E000456E74657220746F2052657475726E0056
:1019F00010B510A3402200210F4800F0C7F91022B3
:101A00000EA311460C4800F0C1F90EA320221021AC
:101A1000094800F0BBF90DA330221021064800F060
:101A2000B5F94022BDE810400BA31021024800F098
:101A3000ADB900003E0000005005002057656174FC
:101A4000686572004D7573696300000044657669CE
:101A5000636520496E666F0072657475726E000072
:101A600000224C2100F0CEBF00224D2100F0CABF61
:101A700001684A7B2D2100F0C5BF10B50446012244
:101A80004C2100F0BFFF2046BDE81040FFF7F0BF3B
:101A900001224D2100F0B6BF10B5044611B1FFF789
:101AA000F7FF01E0FFF7E0FF2046FFF7E1FF2046E8
:101AB000FFF7E3FF2046BDE81040FFF7D1BF70B548
:101AC0000C46054601F08001FFF7E6FF04F04001F7
:101AD0002846FFF7E1FF04F020012846FFF7DCFF6E
:101AE00004F010012846FFF7D7FF04F0080128464C
:101AF000FFF7D2FF04F004012846FFF7CDFF04F002
:101B000002012846FFF7C8FF04F001012846FFF74D
:101B1000C3FF2846FFF7BCFF2846FFF7A9FF28466A
:101B2000FFF7ABFF2846FFF7B3FF2846FFF7A0FFFC
:101B30002846BDE87040FFF793BFFEF7B7FCFFF7FC
:101B4000D9F8FFF76DF8FFF7B3F800F003F800F0ED
:101B50000BF8FCE710B5FFF745F8BDE81040014869
:101B600000F03AB85005002070B5174D20212846E6
:101B7000FEF784FC154E164C90B90A20FEF7A2FB26
:101B800020212846FEF77AFC50B9207806EBC000E9
:101B9000C078207020212846FEF770FC0028F9D07C
:101BA0002078617888420DD006EBC0004068606004
:101BB000084800F053F860688047064800F006F9CE
:101BC0002078607070BD0000000402401800002002
:101BD000080100205005002030B51A49054687B09D
:101BE0000868002440F0020008600868142100F032
:101BF000020005906846FEF725FBC02000900120FA
:101C0000CDE90104694610480394FEF76DFB0F4BC4
:101C10000F4A1049284600F02BF9284600F077FCBF
:101C20000021284600F083FC284600F017F8012127
:101C3000284600F0E4F807B02846BDE830400649E1
:101C400000F0CDB830380240000402407529000889
:101C5000D1250008284D00085C2A0008016890F88A
:101C60003820097C12FB01F1C900406BFEF7EABA8B
:101C70002DE9F041044690F870001F4615460E46C7
:101C800030B1012809D002280CD0032815D10FE06B
:101C9000E16D20468847284408E0E16D20468847EA
:101CA000301A09E0E16D20468847281A85B204E021
:101CB000E16D20468847304486B22846A4F8646027
:101CC000A4F8660039460025204600F0C7FA010056
:101CD00003D0204600F0F2F985B22846BDE8F08135
:101CE0003FB581B0044690F88C00089900283AD09E
:101CF000BDF81000002836D0012811D9022902D0E1
:101D0000032907D00CE0BDF80820101A401CADF8DC
:101D1000080005E0BDF80C20101A401CADF80C00BE
:101D200011F0010521D0B4F84810BDF80800814237
:101D300019D8B4F84A10814215D9B4F84E30B4F825
:101D40004C2004A90DF10C0000F02AF900280AD05B
:101D50000095206BBDF81030BDF80C208568BDF8EB
:101D600008102046A84705B030BDB4F84C10BDF8A7
:101D70000C008142F7D8B4F84E108142F3D9B4F880
:101D80004A30B4F8482004A902A8DDE730B4024C78
:101D9000446030BC00F031B99525000870B50D469F
:101DA0001E460446B0F84E10B0F84C00049B00F0FC
:101DB000B2FA002809D0B4F84A10B4F84800334603
:101DC0002A46BDE8704000F0A6BA70BD10B50446C2
:101DD00000F031FB2046BDE8104000F0A0BB10B57C
:101DE0000446806D884209D004F17400A16500F0BA
:101DF000EDFA2046BDE8104000F056B810BD80F85E
:101E00006D1070470149C1657047000071200008DE
:101E10000021A0F85010A0F854104FF6FF71A0F860
:101E20005210A0F85610016B4968084770B5044677
:101E300000250498A565E362616384F8382084F87E
:101E4000395084F86D5084F89150012184F8921033
:101E500084F8931020630168204688472046FFF7E6
:101E6000D7FF2046FFF7CEFF84F8705070BD00000A
:101E70007CB50C46009313460546084A084900F015
:101E80005EFB01A800F09CFA0146064B00949DF809
:101E900004202846FFF7CAFF7CBD00004527000844
:101EA0006D2800083123000810B5816D00291AD073
:101EB00090F9813080F88E3090F9822080F88F2060
:101EC00090F88D1000290ED001290DD090F97E4098
:101ED00090F980100C449C4201DD80F88E408A42CB
:101EE00001DD80F88F1010BD90F983108B4201DA6C
:101EF00080F88E1090F98410F1E72BB1012B05D0FA
:101F0000022B06D0104402E0084400E0801A80B2A0
:101F10007047401AFBE72BB1012B05D0022B06D0EE
:101F2000401A02E0104400E0084480B27047801A72
:101F3000FBE738B50446B0F856000090B4F85230CC
:101F4000B4F85420B4F850102046FFF727FF18B318
:101F5000012084F88C00B4F84810B4F85000814295
:101F600001D2A4F84800B4F84A10B4F852008142F3
:101F700001D9A4F84A00B4F84C10B4F854008142D6
:101F800001D2A4F84C00B4F84E10B4F856008142C7
:101F900001D9A4F84E0038BD002084F88C0038BD6B
:101FA00030B504880D882544ADB2AC4205D99C42B9
:101FB00002D25D1EADB200E014469C4201D29542B1
:101FC00001D8002030BD944200D214469D4200D971
:101FD0001D460480281B0880012030BD38B5C58F00
:101FE000049C0094521BC46A92B2A04738BD38B515
:101FF000049C0094FFF7F2FF38BD2DE9F0471C4622
:1020000091468846064600F019FD00254FF6FF77F9
:1020100072682178304690470346B84225D0641C48
:10202000A3F57F40FE38F3D04A4641463046FFF7DD
:102030001FFE96F8701031B1012907D0022908D08F
:1020400003290FD10AE008EB000104E009EB0001CD
:1020500006E0A8EB00011FFA81F803E0A9EB0001FC
:102060001FFA81F9284485B2D2E72846BDE8F087F7
:102070000020704710B50C4600F006F80122641EDF
:10208000A240801A40B210BD30B50568047B2A78A2
:10209000E2406318DBB2082B09D36D1C05602D7874
:1020A000C4F10804A5401543083BEAB2DBB20124A1
:1020B0008C40641E14400373204630BD2DE9F84364
:1020C000054600F1600400F00CF915F96B6F20462D
:1020D000E97BFFF7CFFF8146297C2046FFF7CAFF47
:1020E0000746697C20466B3DFFF7C4FF804694F9A4
:1020F0000A00002857DDF019404247B2237CA0882F
:102100003A464946FFF7F9FEA080237C3A46E0882C
:102110004946FFF700FFE080A188277C02460B4676
:1021200037B1012F0AD0022F40D0032F0FD146E044
:1021300094F90A7030443B449BB207E0891B491C68
:1021400094F90A705B1C89B29BB2384480B200904B
:102150002846FFF723FE30B30020207284F80900E0
:1021600095F876102046FFF78FFF814695F8771097
:102170002046FFF789FF074600224946284600F01F
:1021800027F801223946284600F022F8012120468E
:10219000FFF77AFF0028EFD194F90900B042DFDBA6
:1021A000A07B85F892004046BDE8F88394F90A7058
:1021B0005B1CC91B491C89B29BB2921B04E094F9B9
:1021C0000A7033449BB2D21B521C92B2401CBDE732
:1021D0002DE9F74F84B00D46049C94F8687094F88C
:1021E00069806034A07AC01BC6B20196B54200D2A5
:1021F00001954FFA88F279B2A088B4F806B0237C32
:1022000092468946FFF779FE0290237C5246494662
:102210005846FFF780FE0246069808B1A17B02E00F
:10222000607B50B9E17B049880F89210207C00908C
:10223000DDE901310498FFF753FDB54207D3A81B30
:10224000C5B208F10100002700F0FF08CAE77819BD
:10225000207284F8098007B0BDE8F08F70B50D4694
:102260000146806D1730FF2D10D8612D02D3B1F8D3
:10227000881003E0412D02D3B1F88610084441785C
:1022800019B30278AA42F9D1801C70BDB1F88A1046
:102290000C1826460021304600F019F804440221AB
:1022A000304600F014F8361DA842F3D34FF6FF7203
:1022B000207802EA00216078084306D0A84201D1C4
:1022C000E01C70BDA0780444F2E7002070BD084413
:1022D0004FF6FF720178407802EA0121084480B28B
:1022E000704730B5054600F1600401660020207398
:1022F00015F8781F2046FFF7C7FEA07269782046C0
:10230000FFF7C2FEE072A87EA07310B10020E07358
:1023100030BD0120FBE78A4205D2834201D89A42B0
:1023200003D9012070478342F9D80020704700008C
:10233000F0B502F007060124B440002590F892E0C1
:10234000E7B2DDF814C02C46BEF1010F01D83D46BE
:1023500000D03C46076822F00702BCF1000F3F7C2A
:1023600007FB02F7BAB2476B3A44114409D1087827
:102370005B1E284360401B0401F8010B1B0CF6D1C7
:10238000F0BD0A78761C2A436240A3F101030A706B
:1023900016F007069BB206D06A06150E6206140EEA
:1023A000002BEED1F0BD428F114490F89220012A0B
:1023B00003D800BF4FF00105F2D04FF00104EFE762
:1023C00008210170004870475001002070B5054693
:1023D00008782870487868708878A870C878E8709D
:1023E000087928714879687188790C46A871E07974
:1023F000E871207A2872607A6872A07AA872E07A0E
:10240000E872207B2873607B6873A07BA873E07BF5
:10241000E873207C287411212046FFF758FF68825A
:1024200013212046FFF753FFA88215212046FFF70E
:102430004EFFE88270BD2DE9F843064690F83870EB
:1024400090F83950006800244FF6FF7890F811900A
:10245000316830462A460B7C716B04FB03FC1FFA83
:102460008CFC08EACC0C61440091002100F040F89B
:10247000641C6D1CE4B2EDB2BC4201D24D45E7D301
:10248000BDE8F883F0B590F838204FF6FF75036883
:1024900005EAC2018187197C05EAC101418790F8EC
:1024A000394005EAC401C1875E7CA718B74201D94B
:1024B000321B92B205EAC20220F8401F114441804B
:1024C000998A8180D98AC180F0BDFFF7DBBF0021E6
:1024D000A0F84810B0F84410A0F84A10B0F8401026
:1024E000A0F84C10B0F84210A0F84E10FFF721BD34
:1024F0001CB58DF805108DF80620049C8DF804306D
:102500000094012284686B460F21A0471CBD30B4A3
:1025100084680023A44630BC1A460A21604730B4C0
:1025200084680023A44630BC1A461021604730B4AA
:1025300084680023A4460A4630BC0B2160472DE97D
:10254000F04115460E460446069F00F009F8676103
:10255000A660C4E903532046BDE8F04100F012B87C
:10256000002140F8081B064A026042608260C26097
:10257000C17681770161FF21017780F820107047D3
:102580007129000830B484680023A44630BC1A4680
:1025900009216047080001D00A2801D14FF6FF70D9
:1025A000704730B404690023A44630BC1A46192190
:1025B000604713B50122046901AB1721A0471CBD78
:1025C00030B404690023A44630BC1A461821604781
:1025D00070B516460446182924D004DC142914D0FA
:1025E000172904D105E019293DD020294CD000201D
:1025F00070BD1D4606E029782046FFF760FA761E7A
:10260000F6B26D1C002EF6D13EE001224C2100F006
:10261000F9F901224D21204600F0F4F92046FFF798
:1026200027FA31E094F8250040B12046FFF730FA50
:102630002046FFF71DFA2046FFF71FFA2046FFF756
:1026400027FA2046FFF710FA2046FFF711FA204636
:10265000FFF706FA012184F82510204694F824108B
:10266000FFF72DFA10E0FFF7FFF92046FFF700FA19
:102670002046FFF702FA2046FFF70AFA2046FFF746
:10268000F7F9002084F82500012070BD30B4C4683B
:102690000023A44630BC1A461921604730B4C468F0
:1026A0000023A4460A4630BC1621604730B4C468F3
:1026B0000023A4460A4630BC1521604730B4C468E4
:1026C0001346A4460A4630BC17216047F8B50C46AD
:1026D0004FEA000514F8011B182924D00EDC152937
:1026E00019D0162917D0172923D120788DF800008A
:1026F0006A4601212846FFF7E1FF0AE0192912D0B6
:10270000FE2916D122788DF800202921284600F0D4
:1027100079F9641CDEE722788DF80020EE6800234A
:102720002846B047F5E70023EE681A462846B0472A
:10273000D0E7F8BD30B4C4680023A44630BC1A46C4
:10274000182160472DE9F041DFF8B08014460646B5
:10275000A1F11402002798F800001D46062A4AD26B
:10276000DFE802F02F03161B3E4310B13046FFF79F
:1027700018FF3046FFF724FF00213046FFF719FF0E
:1027800021463046FFF715FF012088F8000029E0B8
:1027900021463046FFF70DFF24E050B13046FFF7E9
:1027A00000FF06E01821304600F032F9183CE4B290
:1027B0001835182C2A46F5D82146304600F028F95D
:1027C0000EE096F82400FF2802D1782086F8240035
:1027D00037692B4622463046BC46BDE8F04160478B
:1027E00088F800700120BDE8F0810028F8D030465C
:1027F000FFF7D7FEF4E70020F5E700001000002007
:1028000070B50023456904461A462821A8470023CD
:10281000E5681A4614212046A84701224B2120468C
:1028200000F0F0F8206829210279204600F0EAF84B
:1028300000224B21204600F0E5F82068292102798A
:10284000204600F0DFF801224B21204600F0DAF8A4
:102850002068292142792046BDE8704000F0D2B8B6
:102860000160897C80F822107047000070B50C462A
:10287000054600F019F888B9092C0BD00A2C01D0B4
:10288000002070BD2846FFF7BBFF05492846FFF72B
:102890001DFF03E003492846FFF7E2FF012070BD5A
:1028A0005A4D00085C4E00082DE9F0411E461446C2
:1028B00005460B2908D00D290ED00E291ED00F2950
:1028C00027D00020BDE8F0811AB12849FFF7FEFEAD
:1028D0004AE02649491FF9E74AB124490C31FFF77C
:1028E000F5FE286890F8130085F822003CE01F49A7
:1028F000491DFFF7EBFE2868807CF5E7FFF71AFF1C
:1029000081212846FFF7D2FE21462846FFF7C6FE62
:1029100027E0FFF70FFF707995F8221001EBC00058
:10292000C7B240212846FFF7C1FE102040EA171128
:102930002846FFF7BBFE07F00F012846FFF7AEFE63
:10294000B07940F0B0012846FFF7A8FE3079326830
:10295000C006010E2846FFF7B1FE641E14F0FF0406
:10296000F4D12846FFF792FE0120ABE7394D00086D
:102970000020704710B5224B4D2935D00CDC2B2997
:1029800018D004DC292920D02A290ED114E02D29C1
:102990001FD04C2909D121E0002250292DD05129E6
:1029A0002BD0522929D0532927D0012180F8271074
:1029B000012010BD00BFFBE700204FF4A07100BF55
:1029C000401C80B28842FAD3F2E70120FDF77AFC7E
:1029D000EEE7D22000BF401EFCD2E9E7012A01D079
:1029E000002AE5D1402104E0012A01D0002ADFD1EC
:1029F00080211846FDF747FDDAE780F82720D7E762
:102A00000004024030B444690023A44630BC60474F
:102A10002DE9F04115460E460446FFF7D1FD402151
:102A20002046FFF7C6FD27692B4632461721204670
:102A3000B8472046BDE8F041FFF7B3BD002180F85C
:102A4000261070470000000000000000010203048F
:102A50000607080900000000010203041300030335
:102A60000505040506101000FE0AFE0BFF019D037C
:102A7000370F18200600A04701210741314471118A
:102A8000220885284611D316230D46254495A74BC9
:102A900028CB294F00241247254417AC8442A2E0DA
:102AA000781812A514630025164725442313459270
:102AB000222149341C8D8822A148924C02261447B9
:102AC0002544354B8AA5048591902C228CC444A3BF
:102AD00000270681304641280D83ED431509454204
:102AE000790BC502290E83E943110BC542790945CB
:102AF00042002A0EE764449794926D16C994160317
:102B00002B0BE76444174EBB85D3002C0982AC43E2
:102B1000218948002D06242845412E06422C444197
:102B20002F0D4625449B981A8C0653A3003014465B
:102B30002544250B4582B25144129A0923A19808D5
:102B400000310B45294415134582F954320E4625B0
:102B50004443090AA3315930356A331046254443AA
:102B6000090AA3A17154288C500034114625441938
:102B700094454229B1482C628CA600350E46254466
:102B8000714D2D47A3C2080500360F462544350A6E
:102B900046A395A0C6080500370C462544614D8C18
:102BA00026463301380F46254443092A4628418DDD
:102BB000110A00390E46254443092A46AA1943231F
:102BC000003A07E26C4441263B0A22ED4341964419
:102BD00024003C0925294419CB35073D08A6A44407
:102BE0006147343E0A25254411CD2D47003F0F464D
:102BF000254443090AA3C1D438301A02401446259B
:102C000044358A892292C82424094942A24998005D
:102C1000410E462544250B65090A0F418D01420DE1
:102C200046254451092A5A821A2D00430D4625444F
:102C30004309AAE6288C5000440D462544418A45A4
:102C400082FA162101450B462544714DAD44B31A55
:102C5000460B462544714DAD447305470E46254449
:102C60004309AA2611D5249300480B46254411D4C4
:102C70007808EA18490A452944510AE6A7024A0E8B
:102C8000472544550CE729168AC566004B1346258F
:102C900044119445422931A130120BA54582014CC3
:102CA0000946254411CD5F0D4D0D46254411148E66
:102CB00048131D35064E12462544119CCD2421494A
:102CC00048141145648B014F0C4625444309EAC75B
:102CD000080500500C46254451092A5AA2B9025150
:102CE0001767E543430A468291602418094682919A
:102CF00088242212D105521046254451092A5A42ED
:102D000069915824280C530D46254443092A6B1415
:102D1000462800540A472544710BE76F00550B46BF
:102D2000254411D41F231400561347254411558DF3
:102D3000C442B1502C251889866300570D4625449E
:102D400011D445CB88341406581146254411144635
:102D500042D984B25096A0300059104725441195AD
:102D60004662A1584A349C1B005A0B462544614DCB
:102D7000CC6BD4005B0983F14341CA3F0D5C0D4627
:102D80002544110DA786A3E1D4005D0983E54331F5
:102D9000CA3F115E0A666446250B4582015F06271D
:102DA000E44371600763A846114B610E0625444356
:102DB0000946234635C92400620F66254411CD32E9
:102DC000910935CE241300630C06254443094A7348
:102DD0008C5000640D6625449B65221BEA269904ED
:102DE000650E06254443090A0FD1C4080500660C88
:102DF000652544270A2695827902671466A5431B38
:102E000099C822B1482C348B5282C2080500680C44
:102E100066254411CD329109F518690B65294415D1
:102E20008C4384F9546A0DA5A543990E11E6A32895
:102E300024026B1266254411CD1609A5C48491584D
:102E4000282D120C6C0965294423CC3F156D1407FD
:102E5000254431918442A29028240A8942A29028D4
:102E6000016E0B0625441199C8847A0C6F0B062558
:102E7000444309EA314201700F46A5431199C884C1
:102E80001A679249340A710D46A54333910D759323
:102E90004CA209720C0625441199C884D25C0173B6
:102EA0000C06254443098A35462800740B45254401
:102EB000154C2A057315750B06254411D437C92402
:102EC00000760D06254411548C84F22614017713E4
:102ED0000725441115854421514814128544292A97
:102EE0000078100625441114464231A12C14090A19
:102EF00003790E46A54311D431125289A650007AA7
:102F00000A062544610DE6D5007B0FA4A943258957
:102F10000563A1C4B4502C287C07C1B143F1007DE6
:102F200010A4A943218C8562C1A4B4602C22027E26
:102F30000B6724462313856412007F2510A283119A
:102F4000C9EF48729CE448234A6C14094643114A6D
:102F50006C14094647143B4E729CE44891FC008077
:102F60002710A28311C9EF48729CE44833D164143E
:102F7000094542A11125440C454289A1C8448E93BC
:102F80001C273952243F812810A28311C9EF4872AF
:102F90009CE44849A2C928128A84429450642912A8
:102FA0008A444321514C8E931C273952243F822559
:102FB00010A28311C9EF48729CE4484B215224149B
:102FC0000985964E916028340A86E638C9719223A5
:102FD00045F203832610A28311C9EF48729CE4488E
:102FE00029A3502529124A918C4E9150249465149E
:102FF0009AE324C7498E14C90F842A10A28311C9E9
:10300000EF48729CE4489350642409499282A18855
:10301000241491845242B149283292E324C7498E44
:1030200014C90F852510A28311C9EF48729CE4488A
:1030300029941825311A915062A348301A8A50EC0D
:1030400038C971922345F203862210A28311C9EF79
:1030500048729CE468A39164981453B20523A1D0EC
:1030600052688E931C273952243F872310A2831164
:10307000C9EF48729CE448A4916498142289EE91A7
:103080005088320ACD7192E324478AE407882310DE
:10309000A28311C9EF48729CE44829A3C9283329A7
:1030A000261AA5C6424923394E729CE44891FC0079
:1030B000892410A28311C9EF48729CE468A1C88AD0
:1030C00024941824052392506252923A4E729CE442
:1030D0004891FC008A2510A28311C9EF48729CE434
:1030E00048B1C848320BA5C642B190242D180D86B0
:1030F000D47192E324478AE4078B2410A28311C978
:10310000EF48729CE448A3E06414098642A36088F7
:1031100098944899C87192E324478AE4078C241054
:10312000A28311C9EF48729CE448A3608814098601
:1031300042A3608898944892C87192E324478AE435
:10314000078D2210A28311C9EF48729CE4A8B3A096
:103150002C940E9A056591581C94518E931C273916
:1031600052243F8E2110A28311C9EF48729CE4685B
:10317000A3C9623CA645168C4447233B4E729CE48F
:103180004891FC008F1F10A28311C9EF48729CE484
:1031900068A3C9623CA645164CDA22C7498E931C27
:1031A00029921F902510A28311C9EF48729CE44810
:1031B000B39129128C862251C928120FCD261339BA
:1031C0004E729CE44891FC00912410A28311C9EF37
:1031D00048729CE448A3B4C828120AC946699161A0
:1031E00028962AABE324C7498E14C90F922410A253
:1031F0008311C9EF48729CE448A394A54828181A83
:10320000254986A148342AB2E324C7498E14C90F40
:10321000932410A28311C9EF48729CE46893D1648F
:103220001A8ACB622259281A9B8546729CE438C9B7
:103230009122F901942110A28311C9EF48729CE4F4
:1032400068A349889894183C26C54693D01C273912
:103250004E72A4487E952510A28311C9EF48729C36
:10326000E46829B1904425168DE449128BA8C62242
:10327000B1901C27394E72A4487E962510A2831166
:10328000C9EF48729CE468939964188A8462A29199
:103290002D120C8546C1D01C27394E72A4487E974A
:1032A0002410A28311C9EF48729CE44894996418D1
:1032B0008A844294D13129440986E638C97192231F
:1032C00045F203982510A28311C9EF48729CE46867
:1032D00023993114098B9224B24828189A892672AE
:1032E0009CE438C99122F901992610A28311C9EFF3
:1032F00048729CE468A29184168C254524B151241F
:103300001489856423C91C27394E72A4487E9A23E8
:1033100010A28311C9EF48729CE468A3C962342AE1
:103320008A86649168703699C87192E324478AE46A
:10333000079B2210A28311C9EF48729CE468A3C9BD
:103340006234189585E6A1E8643491E324C7498E78
:1033500014C90F9C2210A28311C9EF48729CE4A8E3
:103360009392281C070983D2581C320CCA7192E32D
:1033700024478AE4079D2410A28311C9EF48729C58
:10338000E468B29129128C8642A2D82818098B666B
:10339000759CE438C99122F9019E2410A28311C9B9
:1033A000EF48729CE488A3584894A23C8A248982FE
:1033B000B170301692E324C7498E14C90F9F2510AF
:1033C000A28311C9EF48729CE468A29929128A4429
:1033D00029A3D828128C8622D13A4E729CE44891B7
:1033E000FC00A00600A04701A1074131442139A2F9
:1033F00013472544170E564221512C140BA514C314
:103400003100A30E472544370B2716C3A9156100C9
:10341000A410066544118C905282C24828440906C3
:10342000A510472544118DC452A2B15BEC164E0382
:10343000A6074131444122A71046254443098A2961
:103440004161842C8C5000A808442847111205A91A
:1034500018482144450B46422AA1882428094A429B
:10346000119128128C9100AA0BE56845338DD42266
:10347000D402AB0F262544954B284B2816CA16CAF2
:1034800000AC0886244461CD00AD2510A28311C98B
:10349000EF4872B44948460C451245A4902C124A94
:1034A0001C6592E32447A7CA71922345F203AE1923
:1034B000482144450B462223492822094524234913
:1034C000922414498C9100AF0626E44661B00B8427
:1034D000A845230989221200B10C276544174EBB69
:1034E00085D36107B20DE5244533890543A258B061
:1034F00000B30DE524453389052353596402B4080C
:1035000063AC46154902B51648A143130C0543C1E7
:103510005030140C05434A1151241C07B61967E5B5
:103520004373984428114A68128C0423C14830120E
:103530008C04231100B706422C4541B80743A84329
:103540003501B90BE5244515134582990ABA0BE5F7
:1035500068453389A945C605BB1026254411CA16FE
:10356000CA168A84B2843201BC13462544139B4593
:103570004229B14830942249111103BD1446254413
:10358000139B454229B148301293A4C922A101BE20
:1035900013462544210BA584622249309422491107
:1035A0001103BF0F462544158D03A3C1D4A030429B
:1035B00001C011C625442396A3C8425982C2435074
:1035C0006300C111C625442792A3C9425982C24350
:1035D000506300C212C62544250BC55164A12C417D
:1035E000E121A83100C311C625442352479185B279
:1035F000048587A0C600C411C6254413CA8E220BB9
:1036000065090A0F418D01C512C62544250BC5E485
:103610003059284B5078086A0CC61547254455493F
:103620000BC542B14328168A8562A1588800C70F8E
:1036300086A5434309AAE6288C10633200C80EC64B
:103640002544239683AFA995685603C90EC6254421
:103650002792A35C532BD1AC06CA0FC62544250B79
:10366000C5C1D7D44A34AB01CB0EC6254413CA0E0C
:10367000BEA656A2590DCC0CC529442395C34AC1F8
:10368000FC54CD0CC529442591834BC1FC54CE0D6F
:10369000C52944234A079682F9A900CF0EC52944BB
:1036A000118A84E2C052303F15D015472144434B64
:1036B0000A4682A54830128C0423B1100900D115A6
:1036C000C62544235207076733494812124544115F
:1036D000D96200D20EC625442396C32941FD18A104
:1036E00000D30EC625442792235182FA314201D4D9
:1036F0000FC62544250BC5E194A07E8C5000D50E45
:10370000C625442352875382FA314201D60EC6257C
:103710004413CA0EA704F5638402D70DA6A444116E
:103720008C8462B2502418D81786E5431B99C822AE
:10373000B1514414918424A1592426994401D90DEE
:10374000C6254423968383FA638402DA0EC6254491
:103750002792A304F5C7080500DB0EC62544250BF8
:10376000C5C141FD314201DC0EC6254413CA0E0E0F
:10377000EA8F110A00DD12C72544A78E189546620C
:10378000A1584A349C1B00DE10662544118D9262BC
:1037900091A05A84144D05DF13462544338A4562AF
:1037A00091508A281609AA845400E01086254423E3
:1037B00096C329C168C4A8269904E1108625442728
:1037C00092235182D188514D3209E2118625442538
:1037D0000BC5E19460346254934C02E31086254497
:1037E0002352875382D188514D3209E410862544F3
:1037F00013CA0EA704A311A39A6412E512A62544C6
:10380000250BC5E4289460346254934C02E61107FA
:1038100025445309A58522A75828164AA900E70E72
:1038200046A54343094A738C10633200E81086258D
:10383000442396C32941E1219A18A100E910862565
:10384000442792235182C24334314201EA11862532
:1038500044250BC5E194A0F0104D8C5000EB108670
:10386000254413CA0EA704858768628402EC0B8581
:10387000294421954385F954ED0B8529442591C3AD
:1038800085F954EE0C852944234A870AF3A900EFF1
:103890000D852944118A84E250613E15F011862578
:1038A00044238AC922A1583462D4314201F10E86E0
:1038B0002544235207472632A11E03F20E862544D3
:1038C0002396C329413D462800F30E8625442792BE
:1038D0002351827A8C5000F40F862544250BC5E1D4
:1038E00094A01E231400F50E86254423528753828C
:1038F0007A8C5000F60E86254413CA0EA704F518DC
:10390000A100F70BE664442587DBE12200F81446AA
:10391000E5431BA1C44611514412928466114A1416
:1039200000F90D86254423968383FA269904FA0D1F
:103930008625442792A304F54D3209FB0E862544C3
:10394000250BC5C1417D934C02FC0D86254413CA4D
:103950000E0EEA9B6412FD11C6A5432792A30475BF
:103960008C8454A2291400FE11A6A54311CD3291D6
:103970000935CE2493681400FF11C6A54313CA0E5F
:103980000EEA1809A9445328000000000C23F00790
:103990001125DA0545FFFF20A0104625444389A6DE
:1039A000546291202D1A2520A11446254417899888
:1039B0002292BC484292D048328B0120A215462563
:1039C00044358A09A591C84414894582A2D00400CF
:1039D00020A30F482144658AA7D7E251633C0A20FF
:1039E000A410472544370B076D415B385A11062058
:1039F000A5164725441DA648421291441412852459
:103A0000A24968120A20A617472544130BC542A2F3
:103A1000C825CB25240A8962A158040020A717478E
:103A200025442189456411CB48224A490A8942A28A
:103A300090680220A819472544310CC5429191682D
:103A4000128A24454291504814124D0020A916476D
:103A50006544130BC542B1C825CB4549228A85620E
:103A6000110020AA150721444192452429921449A6
:103A70008A24451293500020AB19A7A5431BA486A6
:103A80002669926024180946829198681287580026
:103A900020AC12462544270B4582A560291A0EC585
:103AA000240020AD14472144138CC4426991A0F036
:103AB00092188A25050320AE0F472544710B8747CE
:103AC000E3D1381B0020AF1987A543310CC542B1A3
:103AD000502C140B4D42129144349984930020B021
:103AE0001786A543338A45629158281214455244DB
:103AF000119930130020B114882144530B460E91C4
:103B000060E41009866AF19C0120B21CC6A5431529
:103B10000D52922421492C128B442621494812919E
:103B20004C42D1180020B318482144270D0543A169
:103B3000432418394482A16028180A460020B4138F
:103B4000482144450BC6530E21E121120FC64800FF
:103B500020B51BC6A543150D52922421492C128B6A
:103B6000C422B14848128AD0A2310020B618472595
:103B7000449318094662A64830128C0423C1482891
:103B800012920020B71887A143450A4682A1B83C8B
:103B9000140949522429974C91240020B80B07217D
:103BA0004471BF85730320B91AAAAD8371180A0F37
:103BB0005339444C9ECF2171581C1687C5611100A2
:103BC00020BA13672144154E092A4612D524B15054
:103BD000DA080020BB14472144138D046D29C14825
:103BE00096492C1C8B8D0020BC10E52444158C4D6F
:103BF0005224114944920020BD11462544438A4570
:103C000062919829588A260220BE1287214415897C
:103C100055B248522429E2EC890720BF1CC7A143B2
:103C200015094642A660241809464AC14830128C3C
:103C3000046F91602404210317C72144138D0423CA
:103C4000D13829180946C2394682210A00210912B1
:103C5000C72144138D0423D1B0259C5C0AE70A21B7
:103C600026114725445389EA1A89A50423A1C900CE
:103C700021900CA72445158D5EE2410021910DC5D0
:103C8000A943159B640AE63F0121920BA720451921
:103C90008F5C930021930EC5294415CC7F8AA4CC58
:103CA000420021940FA8204595168C1C22C158284B
:103CB00004219510852944159B640AE62992320B4C
:103CC0000121960DC6E44441124662A1700221977B
:103CD0000EC6E4444594454229C1280021980DC6EA
:103CE000E444114E8A4582220221990EC6A4441B47
:103CF0008C845262421200219A1227A544190E4662
:103D000062A1D025148C849300219B1127A1441516
:103D10004E098622A7B448301C04219C12AE688547
:103D20003107CA4791682C188B06E700219D12AE17
:103D300060850F1CCD25B168441A8BC38600219E77
:103D40000FA8204595168A1D22A1682804219F10DE
:103D5000C5A943159B648A4D3205F3130021A00FBA
:103D6000A82045951A8A1C62A158280421A111E5B2
:103D7000E94315CC9F2229B3502465160221A20CD9
:103D8000A72445158BC422B51C21A30EA7204511DD
:103D9000CB56894562210021A40CA624459512BB6F
:103DA000C4420921A50D852944159B640AE6A70292
:103DB00021A60EA62445114A8BDC22A1100021A7C2
:103DC0000E852944510AE6A748CA2C0421A810856B
:103DD0002944159B640AE6144999850A21A90DC74F
:103DE00024451B4B099EE2410021AA0EC72445131E
:103DF0008D8582216B120021AB0FC724451B8B647C
:103E00008A9C1223210021AC10C72445138D244520
:103E10004221535A240421AD10A8204595169144FF
:103E20004693602C140221AE1528A144198F4664D4
:103E3000A148E41009456211713C0621AF138625A3
:103E40004411CD9422928452D32249C3100021B050
:103E50000D65A543158B91B204F30121B10E65A93F
:103E600043150D952249C13C0221B20D45254599C6
:103E7000A74852291A0221B30D45294511CC4B28D8
:103E800089960421B40DA8A044618F4612C7210071
:103E900021B50D45254599A74892251A0221B60F4F
:103EA000A8A044470B4A9222B350140021B70FA890
:103EB000A044430B865222B271080021B80E06E5D9
:103EC0004461260923B150380121B91466254411F3
:103ED00089090FC1481C1A091E82B2480021BA0F75
:103EE000C664441321494211A130420121BB0FC6CF
:103EF00064443109A98484C208050021D00BA6249A
:103F000045153497620021D11A852944158B4454F4
:103F10009222A14828128A8422A14828128A4400A9
:103F200021D20BA62445172A1B430021D31985292A
:103F30004493140945429150241409454291502458
:103F4000A292160221D40EA82045956609476CA1BD
:103F5000100021D518852944158B44549222A1487C
:103F600028128A84221195B4100021D610C6E44488
:103F7000418AC424A1486224180121D70FC6E44411
:103F8000458B8422921449300821D80FC6E444138B
:103F90008C0423491159244421D90FC6E4449922A1
:103FA0004991842231120021E60FE8E04417964639
:103FB000CC9148491E0421E719872544178DC45226
:103FC0009622C14830128C0423C14830121C0121B2
:103FD000E80FE8E044191755922D51710C0021E9C2
:103FE0001A872544358C0423C14830128C0423C120
:103FF00048683289A544630023E9152B2984110DF3
:10400000AA2DB1540E22CA6C249445830023EA16CB
:104010002B2984198D0945B309E920A99048B39942
:1040200050180D23EB12692D84199FD62E073938AD
:104030003EAD5D0E0223EC1369ED837190DCAAF3B3
:1040400038F820B955E7410023ED132D2584118D53
:104050000E85B459896469625B544D23EE162D2593
:1040600084118D0A85B3198954A99848B519513816
:104070004D23EF172A2D84110D0D43B450296409E7
:104080009542B4D030240D0523F020CBE9831B16D4
:10409000852492CA241A494B090685416150161598
:1040A0008523F15834785B0123F11EAB298429075D
:1040B000C921155174124B0906854161500E928336
:1040C00022F158345A0323F2196B2984574D8B4738
:1040D00042615954189483E4A0483C168DD60023BD
:1040E000F322AD25847130C583F16028128A4A22FB
:1040F00072891C14898324F2685AA2244518C9E9DC
:104100006023F4106631841B948D28074A89369405
:104110000623F5116631841115CE489503853413B5
:10412000460123F60ECBA8841B07CDABB783E44032
:1041300023F70FCBA88471A01C64D7FA1C140523A5
:10414000F80A66358421E27F1223F90A4A2D84F1A8
:10415000FF0F0223FA104A2D84653B440EFF817243
:1041600088990025800908A145F17F082581084824
:10417000A043F12025820988A043F103012583098A
:10418000C8A043F10F0625840908A143F17F082543
:10419000850A48A143F1FF610025860A88A143F101
:1041A000FF8702258709C8A143F1FF3F25880A0838
:1041B000A243F1FFFF2025890907A243F1FF3F2514
:1041C0008A0A06A243F1FF8702258B0A05A243F162
:1041D000FF6100258C0904A243F17F08258D0903A6
:1041E000A243F10F06258E0902A243F10301258F98
:1041F0000801A243F12025900904B243F17F08256C
:10420000911C07A243110BC664C1982C1893056337
:10421000B2604C168CC9823159301625922608A2FC
:104220004311C9144991648AA44832455224992201
:1042300029924C911449A6488A24532445922992E4
:104240000125932308A24331994426954964529944
:1042500044269549645299442695496452994426C6
:1042600095496422259408482047F12025950801A6
:10427000BE43F12025960904A143F10301259709C6
:1042800004B143F1030125980904A145F103012577
:10429000990D08A24341E48F87FF2100259A0C085D
:1042A000A24341E4EF10227F259B0C08A243F17F3B
:1042B00028F24700259C0B08A243F17F08F20F2546
:1042C0009D0904B145F10301259E0C08A243C91FB5
:1042D0000F41FE08259F0C08A243C91F0FFF430191
:1042E00025A008E72444F11F25A10BE76444718849
:1042F000EA7A0825A20CE764445389EA1AA9002542
:10430000A310E7644471884A26928964223D0425FB
:10431000A40EE7644471881EA407E9210025A513B3
:10432000E764447188A448522429921449CA2100A0
:1043300025A611E764447188A41C24290749CA21D1
:104340000025A712E7644471888446A15144121ADB
:10435000850E0125A812E76444711045442149885F
:104360001411850E0125A912E764447188A44C221A
:104370009394496492720825AA0884A844F12025E0
:10438000AB0984284551121525AC08872445F10353
:1043900025AD0B87244571884A0F0125AE08E4A896
:1043A00044F10325AF0AE4A84451D2A90025B0097D
:1043B00068204565710225B10B6820456509464CAA
:1043C0000025B20CC6E44425949128870225B30C3D
:1043D000C6E444259485B2040F25B40966E4442557
:1043E000A31825B50A66E444250B450C25B60DC671
:1043F000E44421241D0E22210025B70EC6E44421E9
:104400008C88622B22210025B80A842845213A8C09
:104410000025B90B842845218A4C480025BA0CA6F2
:10442000E44421241D46420025BB0EA6E444218C11
:1044300088621391100025BC0DC6E44471A89068F1
:1044400042110025BD0DC6E444718C84B2094500BB
:1044500025BE0A66E44461A1890025BF0B66E444D9
:104460006109C5440025C00CC6E444293A1C4444F3
:104470000125C10EC6E4442992CC6621495000258D
:10448000C20984284575180925C30A842845459919
:10449000840425C40BA6E444293A8C880225C50D62
:1044A000A6E4442992CC4292A00025C60EE7A4447B
:1044B000179D552EB5690C0025C710E7A444178D2C
:1044C000C452A291584A340625C811E7A444178D56
:1044D000C4225926B945A2310025C911E7A44435A3
:1044E0004B8988241391242D360225CA124665442F
:1044F000259485B20485915036A1080025CB0FE79D
:10450000A444354B89AA4662B1110025CC10E7A41A
:1045100044158983A2F1681C14090125CD11E7A473
:1045200044359348B248522459D4460025CE11E769
:10453000A444354B09852429A294586C0425CF0D39
:10454000E7A44435AB1C5E6A230025D00FE7A444E2
:10455000351345666C11516C0425D10FE7A4443521
:104560000B49626C93906C0425D20FE7A444354B41
:10457000894A0F91DA080025D30FE7A44435AB1C14
:10458000A2D2482C360225D40FE7A444358B4C42E6
:10459000AD91586C0425D50FE7A444350B4962B49E
:1045A000C3A4360225D60CE4A44425391C222301D9
:1045B00025D70DE4B044219A1C0E11110025D80F07
:1045C00008A243F11F444562E9F00F0225D91408FF
:1045D000A243F10FA18A644291502692D2E10F01C9
:1045E00025DA0D08A145F10FA18A64420925DB0EE9
:1045F00008A14311A14C24A5C31F0225DC0B846430
:10460000452509C5620025DD09847045214C0B252F
:10461000DE0A84B0449714110125DF0A84A44411F2
:104620000B060525E00B876445354B894A0325E1D8
:104630000D87A44411954662B1110025E20CC6E431
:10464000431B948D28070225E30CC6E4431115CEC5
:1046500048150325E40DC6A44571A09066C2280044
:1046600025E50CC6A4456129D186D20025E60CA516
:10467000A4443389A945260025E70AC6E4447110FD
:10468000713A25E80AC6E44471E2741025E90CC6C3
:10469000E44471989066C20325EA0CC6E444719420
:1046A0008D28870125EB10C7E4447108854421510A
:1046B00048143A0425EC10E7A444178D0423B1A450
:1046C00048D6430025ED0EC6A4442594494292C81D
:1046D000E80025EE0FE6A44425944544114988746A
:1046E0001025EF21ADE9833B87C8A4F1581C940E37
:1046F0008AC48172A01C188983D241B1785426875C
:104700004C0125F00CC6244471099184C20325F1A3
:104710000CC6244471149224A10325F20BC6244430
:10472000715422450E25F30CC62444718A8888C230
:104730000325F413082144458B8422A1584D2C8E67
:104740000463240025F512082144450B46C2E29A71
:104750002816498A910025F612082144450B46C2C5
:104760006AB550241489910025F712082144450B9D
:1047700045D242B2B238128C910025F80EC6A4453B
:10478000718B845262C2280025F90EC6A445618946
:1047900085D22241690025FA0EC6E443111546620E
:1047A000A1B4880125FB09C6E44371D47825FC092E
:1047B000C62444F1870025FD09842844511215259B
:1047C000FE09A56444F1810025FF0DC6E4431B9456
:1047D000454229B1032600148725449794128BC3C0
:1047E00066A5DA1C96124A8B0126010D88A0451594
:1047F0009E480E110B0026020D07A54435ABDCC206
:1048000059830026033310A283118B90E2203A24AF
:1048100072884583A1B44828128E8443D148281257
:104820000D854491783025660785E3C158904C4C3E
:104830008B87E3202B00260418672544130BC54201
:1048400069A1582418094543C2502C1414022605A6
:104850000EC7E444178E9D6612512C02260612E7FD
:10486000E444178E4D26B1502449228A450026077C
:104870000C25294419CB3525261A2608100625446F
:104880007194454229B15044361A26091108214431
:10489000450B46C2229D23C1180900260A11C8A053
:1048A00044270D054331912429921801260B12C883
:1048B000A044138C244522225928188ACA00260CA9
:1048C0000EC5A444190B895242211100260D13274D
:1048D0002544290CC542416150188A858242002630
:1048E0000E0EC764445391C92159640701260F1065
:1048F000E7644453894A26914A28243D0426101B24
:104900008B298471A883E42039480E9283E42039EE
:10491000480E9283E4A0430126111D8B298471A8BF
:1049200083E42039252891C44492904C12114AA660
:1049300012B11C742826121A8C298471B0C3E43079
:10494000895022D24613AAD1445A841239EC6026E7
:1049500013134529441193459222B1602C128AA465
:10496000C90226141387A5441991C421A168685669
:10497000B985B3060126151EAC29849531941A4ACF
:104980000EA5861243E968A7C86122B144E4908865
:104990007C740426161DAB29841B0745E2B1685AB6
:1049A0003C1207C94172901C2407C94172D0A10072
:1049B000261711AB29841B07CDABB783E4F0FF8129
:1049C00000261822ADE5831B8983EA90AA6824217A
:1049D0008528070A294491C5C471681C1A07C68135
:1049E00071100026191F8D25840F0D8FD22A69960C
:1049F000A44BE420111D22B353D0142D85677160A0
:104A00000400261A0B87A444612BD52600261B0B15
:104A100087A4447320D56600261C0C87A444614BF0
:104A200012C52600261D0DE4A844975211892212B2
:104A300000261E0C87A444730B85643300261F0DCB
:104A4000E4284423098926915902265414672544F1
:104A5000179DC626948928244AC972881E022655A5
:104A600014472544178E85523245B24C722AC542EE
:104A7000150026561327254411493948A591582871
:104A800016894A0F01265714472544178DC4926290
:104A9000A1582896129A500F012658126625441BD9
:104AA000A2C484C2C8249412130A0F26590E0625E4
:104AB00044250B659385B2040F265A1267254417C7
:104AC0009DC626948928244AC97278265B114725F9
:104AD00044178E85523245B24C72EA02265C0F278B
:104AE00025441149393C444A95C303265D114725A5
:104AF00044179D4944B19044541B1D1E265E0F6609
:104B000025441BA2480E9712E5F020265F0E0625CD
:104B1000442523D16424CAA10026600F47254417E9
:104B20008ECE2A8797627404266111272544A3122A
:104B30000A495523B194683806266213452944155D
:104B40008C45429134592429120B86002663114763
:104B50002544355C8D1D0E92882C1C1D0126641188
:104B6000472544178E46622951D548313A022665B9
:104B70000E272544A372F8529B86630026661045D3
:104B80002944158C8D2687C968160C0126671347A2
:104B90002544358C04A7B1096525220B474700261B
:104BA000800E296D8471986B8BC9D50F03268110F7
:104BB000296D847198AB44E5D2885C7E18268212F8
:104BC000296D8471984BA272594C2E8DC80F032603
:104BD0008311296D8471984B6211B99658447E18DF
:104BE000268414296D8471984B6211B92C2697C4C0
:104BF00022F2C300268515296D8471984B6211B984
:104C00002416914B6211F9610027131C4DE5830FA7
:104C10008D03E3C0501C128B4793837148280E8A82
:104C2000C48171100027141C6FE1830F8E832771DC
:104C3000D0643E1A0F5767F3C91C6287D1A1721066
:104C4000002715176B6984138F4C27B395697D5E18
:104C50009DCC56A69378040027161CEFE183178F8E
:104C6000AEB57CB01DA807F983F4403B585E6AB529
:104C7000E9341E0327171FAC25842187A8CA645373
:104C8000891C3207CD21EA22A950552497C82192C8
:104C9000380C0027181FCCE5832187544732DA648B
:104CA0005C87CC2175C97434148EA613791D128AC1
:104CB000C300274F1D8C6D847118C521A138840E47
:104CC000A143E8103A840EA1430E87D061741827DF
:104CD000501C8C6D8475181D1EE4103A840EA1437F
:104CE000E8103A840EA1434287110027511D8C6DB4
:104CF000847118C5219238840EA143E8103A840EBD
:104D0000A1430E87C881741827521C8C6D84759836
:104D10001C1EE6103A840EA143E8103A840EA1430B
:104D20002487110000000000CB240008CF240008D5
:104D3000EF1F00081815AF19FF1815AE19FF181549
:104D4000A115C819FF1815A015C019FF1815A11530
:104D5000C019FF1815A015C819FF1815AE15D516DE
:104D60008015A8163F15D316001540158D1614157D
:104D700020160015A115C815DA1612158116CF15C3
:104D8000D916F115DB1640152E15A415A619FF1816
:104D900015AE15D5168015A8163F15D3160015406B
:104DA000158D16141520160015A115C815DA161242
:104DB000158116EF15D916A115DB1600152E15A4B1
:104DC00015A619FF1815AE15D5168015A8163F158E
:104DD000D316001540158D16141520160015A115B3
:104DE000C815DA1602158116CF15D916F115DB167E
:104DF00040152E15A415A619FF1815AE15A415D526
:104E0000165015A8163F15D31600154015AD168B74
:104E100015D9162215DB16351532158116FF15A684
:104E200015DA161219FF1815AE15D5168015A81625
:104E30003F15D316001540158D16141520160015B4
:104E4000A115C015DA1612158116CF15D916F11550
:104E5000DB1640152E15A415A619FF000001140A33
:104E60006464323200127A000004289610080000B0
:104E7000800040000001140A6464323200093D00E1
:104E8000000428961008020280004000AC4E000882
:104E90000000002010010000EA0E0008BC4F0008CE
:104EA00010010020D8080000FA0E000801000000E0
:104EB00010000000000000000024F40000000000CA
:104EC0000000000000000001090F000801040205B5
:104ED000710F000802010309E91200080302040D22
:104EE0007D16000804030100F119000805080611E9
:104EF000E10F000806050712551000080706081301
:104F0000C9100008080705013D110008090C0A1422
:104F1000591300080A090B15D11300080B0A0C16C7
:104F2000491400080C0B0902C11400080D100E17DB
:104F3000ED1600080E0D0F185D1700080F0E101962
:104F4000CD170008100F0D033D18000811111105B1
:104F5000B1110008121212061912000813131307D8
:104F60008112000814141409391500081515150AC2
:104F7000A51500081616160B0D1600081717170DA5
:104F8000AD1800081818180E1D1900081919190F66
:104F9000851900080000000000000000000000006B
:104FA0000000000000000000000000000000000001
:0C4FB00000000000007F00000000000076
:040000050800019955
:00000001FF
