:020000040800F2
:10000000680D00203D020008FD080008F508000802
:10001000F908000809040008C115000800000000E4
:100020000000000000000000000000001B0B0008A2
:100030000D04000800000000450A0008B90B000884
:10004000570200085702000857020008050B000875
:1000500057020008570200085D040008590500080F
:1000600081050008A9050008D1050008570200080D
:1000700057020008570200085702000857020008FC
:10008000570200085702000857020008000000004D
:10009000000000000000000000000000F90500085A
:1000A00057020008D90C0008570200085702000840
:1000B0002D0D0008590D0008890D00085702000891
:1000C00057020008570200085702000857020008AC
:1000D000570200082515000835150008000000002B
:1000E00085040008A90A0008570200080000000063
:1000F000000000000000000000000000570200089F
:100100000000000057020008B90D0008570200085F
:1001100000000000000000000000000000000000DF
:10012000570200085702000857020008570200084B
:10013000570200080000000000000000000000005E
:10014000000000000000000000000000570200084E
:10015000570200085702000857020008570200081B
:1001600057020008570200080000000000000000CD
:10017000000000000000000000000000000000007F
:10018000000000005702000800000000000000000E
:10019000570200085702000800F002F800F03EF88D
:1001A0000AA090E8000C82448344AAF10107DA45D2
:1001B00001D100F033F8AFF2090EBAE80F0013F0E6
:1001C000010F18BFFB1A43F001031847702100000C
:1001D00090210000103A24BF78C878C1FAD852079D
:1001E00024BF30C830C144BF04680C6070470000B1
:1001F0000023002400250026103A28BF78C1FBD830
:10020000520728BF30C148BF0B6070471FB501F0CF
:10021000E1FA00F037F81FBD10B510BD00F04EF840
:100220001146FFF7F3FF01F091FA00F06CF803B408
:10023000FFF7F2FF03BC00F03BF8000009488047DD
:1002400009480047FEE7FEE7FEE7FEE7FEE7FEE7B8
:10025000FEE7FEE7FEE7FEE704480549054A064BD0
:1002600070470000710C0008990100086803002025
:10027000680D002068050020680500207047704761
:100280007047000070B5064C7C44064D7D4403E089
:10029000206820448047241DAC42F9D170BD000085
:1002A000D0200000D4200000004870470403002044
:1002B00001491820ABBEFEE7260002007546FFF795
:1002C000F3FFAE4605006946534620F00700854619
:1002D00018B020B5FFF7C0FFBDE820404FF0000682
:1002E0004FF000074FF000084FF0000B21F007011E
:1002F000AC46ACE8C009ACE8C009ACE8C009ACE861
:10030000C0098D46704710B50446AFF30080204603
:10031000BDE81040FFF78BBF7047000010B50446E2
:100320002A48007868B9002005E0FF21284A22F811
:100330001010411CC8B21228F7DB0121234A1170AA
:1003400000BF34B3012C24D0022C22D0032C20D0A7
:10035000042C1ED0052C1CD0062C1AD0072C18D02B
:10036000082C16D0092C14D00A2C12D00B2C10D02B
:100370000C2C0ED00D2C0CD00E2C0AD00F2C08D02B
:10038000102C06D0112C04D0122C02D04FF0FF30CC
:1003900010BD204600F020F8401C10B16FF00100A5
:1003A000F6E70C480078122802DB6FF00200EFE756
:1003B00007480849097820F8114006480078401C91
:1003C0000449087008460078401EE1E71500002047
:1003D00044020020140000200246002108E00848E2
:1003E00030F81100904201D108467047481CC1B254
:1003F000044800788142F2DB4FF0FF30F5E700005F
:10040000440200201400002000BFFEE770470000F7
:1004100010B500F0D9FB104800684FF47A71B0FBBA
:10042000F1F4601EB0F1807F00D30FE0601E4FF04A
:10043000E02148610F214FF0FF3000F061FA002009
:100440004FF0E02188610720086100BF0021481EAD
:1004500000F056FA10BD00000000002010B500BFEB
:10046000012000F023F940B10548006810B10449AB
:1004700008688047012000F013F900BF10BD00009C
:100480008C02002010B500BF4FF4806000F00EF920
:1004900048B13048806A10B12E49886A80474FF4CD
:1004A000806000F0FDF800BF00BF4FF4006000F076
:1004B000FDF848B12748C06A10B12649C86A80478C
:1004C0004FF4006000F0ECF800BF00BF4FF4805024
:1004D00000F0ECF848B11F48006B10B11D49086BE3
:1004E00080474FF4805000F0DBF800BF00BF4FF4AE
:1004F000005000F0DBF848B11648406B10B11549C8
:10050000486B80474FF4005000F0CAF800BF00BFAE
:100510004FF4804000F0CAF848B10E48806B10B12B
:100520000C49886B80474FF4804000F0B9F800BF59
:1005300000BF4FF4004000F0B9F848B10548C06B67
:1005400010B10449C86B80474FF4004000F0A8F890
:1005500000BF10BD8C02002010B500BF022000F0CB
:10056000A5F840B10548406810B104494868804783
:10057000022000F095F800BF10BD00008C020020A2
:1005800010B500BF042000F091F840B10548806824
:1005900010B1044988688047042000F081F800BF4A
:1005A00010BD00008C02002010B500BF082000F034
:1005B0007DF840B10548C06810B10449C86880475B
:1005C000082000F06DF800BF10BD00008C02002074
:1005D00010B500BF102000F069F840B1054800696F
:1005E00010B1044908698047102000F059F800BF95
:1005F00010BD00008C02002010B500BF202000F0CC
:1006000055F840B12548406910B1244948698047F0
:10061000202000F045F800BF00BF402000F046F861
:1006200040B11E48806910B11C498869804740204C
:1006300000F036F800BF00BF802000F037F840B16E
:100640001648C06910B11549C8698047802000F07C
:1006500027F800BF00BF4FF4807000F027F848B1C2
:100660000E48006A10B10D49086A80474FF4807047
:1006700000F016F800BF00BF4FF4007000F016F84D
:1006800048B10648406A10B10449486A80474FF4AF
:10069000007000F005F800BF10BD00008C020020C3
:1006A0000149086070470000143C014001460020E9
:1006B000034A12680A400AB1012000E00020704796
:1006C000143C014000B50346034901EB031188893E
:1006D00000F004F800BD0000E01700080146002209
:1006E00002E04910501C82B20129FADCD0B27047F6
:1006F000F0B50A4600210023002400BF3DE001259B
:1007000005FA01F3156805EA03049C4234D1056833
:100710004F000326BE40B543056015794E00B54035
:100720000668354305601579012D02D01579022D33
:1007300016D185684F000326BE40B54385605579C4
:100740004E00B540866835438560456801268E4079
:10075000B5434560456896798E40B6B235434560ED
:10076000C5684F000326BE40B543C560D5794E002D
:10077000B540C6683543C560491C1029BFD3F0BDDC
:10078000F0B5002300244D07ED0E02FA05F3CE105C
:1007900000F1200555F826504E07F70E0F26BE40F3
:1007A000B543CF1000F1200646F82750CE1000F1D7
:1007B000200555F8265045EA0304CE1000F1200527
:1007C00045F82640F0BD00002DE9FC5F04468A464E
:1007D00016469B463C48844201D1012533E03B4804
:1007E000844201D102252EE03948844201D10425FA
:1007F00029E03848844201D1082524E03648844263
:1008000001D110251FE03548844201D120251AE08E
:100810003348844201D1402515E03248844201D159
:10082000802510E03048844201D185150BE02F4827
:10083000844201D1451506E02D48844201D10515B9
:1008400001E0BDE8FC9F16B90027B84628E0012E5C
:1008500002D10027B04623E0022E02D10027B04685
:100860001EE0032E03D103274FF0000818E0052EE9
:1008700005D101274FF000094FF0000810E0062EC7
:1008800005D101274FF001094FF0000808E0072EBD
:1008900005D102274FF000094FF0000800E0D0E733
:1008A000CDF800A08DF804708DF805B08DF8069095
:1008B0008DF807800121284600F0C6F869462046D9
:1008C000FFF716FF00BFBCE7000002400004024033
:1008D00000080240000C02400010024000140240D8
:1008E00000180240001C0240002002400024024088
:1008F0000028024000BFFEE700BFFEE7704700008F
:1009000010B5002807DA0A07140E054A00F00F0395
:100910001B1FD45403E00A07130E024A135410BDE0
:1009200018ED00E000E400E02DE9F04704460D4634
:100930001646B02C09DA3C4800EB0410406820B1A0
:10094000394800EB0410807B10B90020BDE8F08727
:1009500035B12EB105FB06F034490968884201D94A
:100960000020F3E70721204600F0F8FE204600F0C3
:1009700059FA81462046FFF7A5FE82462A4901EB37
:1009800004114A4608685146FFF7FAFE2F462748E9
:100990000068B0FBF5F0B0FBF6F8234800EB04105C
:1009A0004068234988421DD01F4800EB041040686E
:1009B0002049884216D01C4800EB041040681E49AC
:1009C00088420FD0184800EB041040681B49884249
:1009D00008D0154800EB041040681949884201D03E
:1009E0004FEA5808104901EB04114868002100F053
:1009F000FEF9DFF834C00CEB041C9CF80E30A8F1B3
:100A0000010C1FFA8CF2A7F1010C1FFA8CF1DFF830
:100A100018C00CEB041CDCF8040000F04FFC02488A
:100A200000EB0410807B91E7E01700080000002035
:100A3000000001400004014000400140004401402A
:100A4000004801407047000029B1064A126802437D
:100A5000044B1A6004E0034A12688243014B1A6097
:100A6000704700003038024029B1064A126802433C
:100A7000044B1A6004E0034A12688243014B1A6077
:100A8000704700004038024029B1064A126802430C
:100A9000044B1A6004E0034A12688243014B1A6057
:100AA000704700004438024010B54FF4807000F0E9
:100AB00015F8012802D1000200F002F810BD000074
:100AC00081B241F08001044A126802F0800262EAB9
:100AD0000101014A116070470C28004010B5014621
:100AE00000200022054B1B68054C03EA040202EAC1
:100AF00001030BB1012000E0002010BD0C280040D4
:100B00007F7F010010B54FF48060FFF7E7FF0128F9
:100B100002D18002FFF7D4FF10BD70472248006861
:100B200040F08050204908602048006840F4404070
:100B30001E4908601C48383800681B49383908606D
:100B40000846006808600846006840F48050086065
:100B50001748091F0860081F006840F08070091FCF
:100B6000086000BF10484038006800F0007000289E
:100B7000F8D040F202700F4908600B48383800681E
:100B800020F003000849383908600846006840F042
:100B90000200086000BF04483838006800F00C000C
:100BA0000828F8D17047000040380240007000402B
:100BB000195F0008003C024002480068401C0149DF
:100BC000086070471800002070B500200021022244
:100BD00000230224214D2D6805F00C0020B10428CB
:100BE00006D0082829D107E01D4D1E4E356028E0AB
:100BF0001D4D1C4E356024E0184D2D1F2D68C5F38A
:100C00008053164D2D1F2D6805F03F044BB9144D30
:100C1000B5FBF4F5114E361F3668C6F3881605FB92
:100C200006F10E4D2D1F2D68C5F301456D1C6A00A0
:100C3000B1FBF2F50B4E356003E0094D094E35600E
:100C400000BF00BF054D2D68C5F30315074E705D4D
:100C5000044D2D68C540034E356070BD0838024014
:100C60000024F4000000002040787D0104000020F2
:100C700010B51548006840F4700013490860134827
:100C8000006840F001001149086000200F49083158
:100C900008600E4800680E4908400C4908600D487D
:100CA000091D0860081F006820F48020091F0860E3
:100CB000002006490C310860FFF730FF4FF000605C
:100CC00001498039086010BD88ED00E0003802401D
:100CD000FFFFF6FE1030002410B500BF01211048C0
:100CE00000F038F948B10F48006810B10D490868A4
:100CF000804701210A4800F077F800BF00BF0121BA
:100D0000094800F027F948B10648406A10B1054982
:100D1000486A80470121044800F066F800BF10BD12
:100D200000000140CC0200200044014010B500BF8B
:100D30000121880700F00EF948B10648406810B15B
:100D40000449486880470121880700F04DF800BF3A
:100D500010BD0000CC02002010B500BF01210848E2
:100D600000F0F8F848B10748806810B10549886874
:100D700080470121024800F037F800BF10BD000095
:100D800000040040CC02002010B500BF012108483B
:100D900000F0E0F848B10748C06810B10549C868DC
:100DA00080470121024800F01FF800BF10BD00007D
:100DB00000080040CC02002010B500BF0121084807
:100DC00000F0C8F848B10748006910B10549086942
:100DD00080470121024800F007F800BF10BD000065
:100DE000000C0040CC020020CA430282704721B1AF
:100DF000028842F00102028004E002884FF6FE738E
:100E00001A400280704731B1B0F8442042F40042E9
:100E1000A0F8442005E0B0F84420C2F30E02A0F888
:100E200044207047024600233C4800EB0210416812
:100E30003B48814228D0B1F1804F25D039488142CA
:100E400022D0394881421FD0384881421CD03848CE
:100E5000814219D03748814216D03748814213D099
:100E60003648814210D0364881420DD03548814203
:100E70000AD03548814207D03448814204D03448F2
:100E8000814201D00020704700BF2548814200D137
:100E9000012300BF00BFB1F1804F00D1012300BF8B
:100EA00000BF2048814200D1022300BF00BF1E487E
:100EB000814200D1022300BF00BF1C48814200D103
:100EC000022300BF00BF1C48814200D1032300BFA2
:100ED00000BF1A48814200D1032300BF00BF184859
:100EE000814200D1032300BF00BF1648814200D1D8
:100EF000032300BF00BF1448814200D1092300BF73
:100F000000BF1248814200D1092300BF00BF104832
:100F1000814200D1092300BF1846B4E7E01700085A
:100F2000000001400004004000080040000C0040A8
:100F30000010004000140040000401400040014047
:100F4000004401400048014000180040001C0040DF
:100F50000020004030B50246002000230024158AFE
:100F600005EA0103958905EA010413B10CB10120DA
:100F700000E0002030BD000070B5002400220023F6
:100F8000058C4FF6FE7635400584028C8388048BF1
:100F90004FF68F752C40B51E2C400D882C43751EC6
:100FA0002A408D892A434D882A43104DA84202D0F9
:100FB0000F4DA84213D14FF6F7752A40CD892A4329
:100FC0004FF6FB752A408D882A434FF6FF652B406C
:100FD0004FF6FF552B400D8A2B434D8A2B438380C0
:100FE00004838D684563028470BD000000000140E9
:100FF000000401400A460021018B4FF6F7731940A7
:10100000114301837047000070B5002400220023C3
:10101000058C4FF6EF7635400584028C8388048B6F
:1010200048F6FF752C404FF6FF452C400D884FF6D3
:10103000FF7606EA05252C434FF6DF752A408D8999
:1010400006EA05152A434D8806EA05152A43154D7B
:10105000A84202D0144DA8421DD14FF67F752A40F8
:10106000CD894FF6FF7606EA05152A434FF6BF7580
:101070002A408D8806EA05152A434FF6FF352B4096
:101080004FF2FF752B400D8A06EA85052B434D8AEA
:1010900006EA85052B43838004838D68856302847B
:1010A00070BD000000000140000401400A4600211C
:1010B000018B4FF2FF7319404FF6FF7303EA0223CF
:1010C000194301837047000070B5002400220023FB
:1010D000058C4FF6FF6635400584028C8388848B2F
:1010E0004FF68F752C404FF6FC752C400D882C4325
:1010F0004FF6FF552A408D894FF6FF7606EA052503
:101100002A434D8806EA05252A43154DA84202D0F8
:10111000144DA8421DD14FF2FF752A40CD894FF6DC
:10112000FF7606EA05252A434FF6FF352A408D88CB
:1011300006EA05252A434EF6FF752B404DF6FF754E
:101140002B400D8A06EA05152B434D8A06EA051544
:101150002B43838084838D68C563028470BD000047
:1011600000000140000401400A460021818B4FF637
:10117000F7731940114381837047000070B5002256
:1011800000230024058C4EF6FF7635400584038C41
:101190008488828B48F6FF752A404FF6FF452A4027
:1011A0000D884FF6FF7606EA05252A434DF6FF75B2
:1011B0002B408D8906EA05352B434D8806EA053517
:1011C0002B430A4DA84202D0094DA84208D14BF644
:1011D000FF752C400D8A4FF6FF7606EA85152C43E5
:1011E000848082838D680564038470BD00000140A3
:1011F000000401400A460021818B4FF2FF73194021
:101200004FF6FF7303EA02231943818370470021DD
:1012100001804180818081608181C1810182418220
:101220007047000000220288184B98420ED0184BDD
:1012300098420BD0B0F1804F08D0164B984205D0A1
:10124000154B984202D0154B984204D14FF68F733C
:101250001A404B881A43124B984207D0114B9842C0
:1012600004D04FF6FF431A400B891A4302804B68A3
:10127000C3620B880385054B984202D0044B984209
:1012800001D18B7A038601238382704700000140DD
:10129000000401400004004000080040000C004031
:1012A00000100040001400404FF0FF314160002169
:1012B000018001814180817270470000F0B589B0E2
:1012C00004460D4616461F464148844228D0B4F1D4
:1012D000804F25D03F48844222D03F4884421FD0CF
:1012E0003E4884421CD03E48844219D03D48844246
:1012F00016D03D48844213D03C48844210D03C482C
:1013000084420DD03B4884420AD03B48844207D0F7
:101310003A48844204D03A48844201D009B0F0BD32
:101320000121204600F06EF806A8FFF7BDFF0795E3
:10133000ADF818600020ADF82000ADF81A0006A93D
:101340002046FFF76FFF01A8FFF761FF7020ADF89F
:1013500004000120ADF806000220ADF81000012FB6
:1013600006D0022F0DD0032F14D0042F24D11AE061
:1013700001A92046FFF700FE08212046FFF73AFEAC
:101380001AE001A92046FFF73FFE08212046FFF79B
:101390008DFE11E001A92046FFF796FE08212046A8
:1013A000FFF7E2FE08E001A92046FFF7E7FE08216B
:1013B0002046FFF71FFF00BF00BF01212046FFF7B7
:1013C00016FD01212046FFF71EFD00BFA6E7000025
:1013D000000001400004004000080040000C0040F4
:1013E0000010004000140040000401400040014093
:1013F000004401400048014000180040001C00402B
:101400000020004070B504460D463948844204D19E
:1014100029460120FFF738FB69E0B4F1804F04D181
:1014200029460120FFF720FB61E03248844204D1C5
:1014300029460220FFF718FB59E02F48844204D1C7
:1014400029460420FFF710FB51E02C48844204D1C8
:1014500029460820FFF708FB49E02948844204D1C7
:1014600029461020FFF700FB41E02648844204D1C2
:1014700029462020FFF7F8FA39E02348844204D1B6
:1014800029460220FFF700FB31E02048844205D1C5
:1014900029464FF48030FFF7F7FA28E01C488442D1
:1014A00005D129464FF40030FFF7EEFA1FE0194846
:1014B000844205D129464FF48020FFF7E5FA16E073
:1014C0001548844204D129464020FFF7CDFA0EE0AA
:1014D0001248844204D129468020FFF7C5FA06E06D
:1014E0000F48844203D129468015FFF7BDFA70BD2D
:1014F000000001400004004000080040000C0040D3
:101500000010004000140040000401400040014071
:10151000004401400048014000180040001C004009
:101520000020004010B5024800F060F810BD000037
:101530001C00002010B5024800F058F810BD000053
:10154000B800002010B50022002340F66A14A14222
:1015500000D100BF0A1201249440A3B2DC430480EE
:1015600010BD70B50246002400230025002040F67F
:101570006A16B14200D100BFC1F3421501F01F034A
:10158000012606FA03F3012D02D19689334006E0C5
:10159000022D02D1168A334001E0968A33400C12A4
:1015A000012606FA04F41688344013B10CB1012068
:1015B00000E0002070BD01468888C0F30800704735
:1015C00000BFFEE710B501210C2000F0A3F8C820F1
:1015D00000F094F800210C2000F09CF8C82000F0E6
:1015E0008DF810BD10B500F04FF810BD70B5044671
:1015F00040F225512069FFF7B4FFF8B12069FFF7E9
:10160000DAFFC6B2218B491C88B2C11700EB5161C9
:10161000C911A0EBC1118DB2608BA84204D0218BFF
:1016200004F11C0046542583606908B16069804755
:1016300040F225512069FFF785FF00BF70BD000013
:1016400000BF094A02600022426000BF074A0260F0
:101650004FF47A72826000BF054A02600161002285
:1016600042614283028370470C2300082023000854
:10167000E822000810B505210C2000F06FF80121C8
:101680000C2000F047F810BD10B5FFF7F3FF10BDB8
:101690000160704700B506490648FFF7D1FF0649CB
:1016A0000648FFF7CDFF06490648FFF7C9FF00BD12
:1016B000001001401C00002000440040B800002041
:1016C000004800405401002000B506490648FFF7D5
:1016D000DFFF06490648FFF7DBFF06490648FFF72C
:1016E000D7FF00BD00300140F0010020003800406D
:1016F0000C020020003C004028020020044A12682E
:10170000111800BF024A12688A42FBD370470000DA
:1017100018000020B02800DB704749B10A4A02EBEC
:1017200000129289084B03EB00131B681A8308E030
:10173000054A02EB00129289034B03EB00131B686E
:101740005A8300BFE8E70000E0170008FEF760FEDC
:10175000FFF748FF00BFFFF735FFFCE770B5044611
:101760000D46B02C00DB70BD042D18D1B02C0ADA68
:10177000174800EB0410806828B1154800EB0410EE
:10178000C07BFF2800D1EEE703212046FFF7E6FFEC
:101790000F4901EB0411C87BFEF7C0FD15E0082DD1
:1017A00007D142F210724FF47A712046FFF7BCF86D
:1017B0000BE0074A02EB04129189054A02EB04127E
:1017C000032310682A46FEF7FFFF00BFCBE70000A7
:1017D000E01700084FF04070E1EE100A704700007B
:1017E0000000024000000040002001400100010014
:1017F0000000024000000040002001400200020101
:1018000000000240000000400020014004000302EC
:1018100000000240000000400020014008000403D6
:101820000000024000000000002001401000000401
:1018300000000240000000000020014020000005E0
:10184000000002400004004000200140400001066A
:101850000000024000040040002001408000020718
:10186000000002400000014000000000000101FFF4
:10187000000002400000014000000000000202FFE2
:10188000000002400000014000000000000403FFCF
:10189000000002400000014000000000000804FFBA
:1018A000000002400000000000000000001000FFE7
:1018B000000002400000000000000000002000FFC7
:1018C000000002400000000000000000004000FF97
:1018D000000002400000004000000000008001FF06
:1018E0000004024000040040002001400100030801
:1018F00000040240000400400020014002000409EE
:10190000000402400000000000000000040000FF8E
:10191000000402400000004000000000080002FF38
:10192000000402400004004000000000100001FF1D
:10193000000402400004004000000000200002FFFC
:10194000000402400008004000000000400001FFC9
:10195000000402400008004000000000800002FF78
:10196000000402400008004000000000000103FFE6
:10197000000402400008004000000000000204FFD4
:10198000000402400000004000000000000403FFCB
:10199000000402400000004000000000000804FFB6
:1019A000000402400000000000000000001000FFE2
:1019B000000402400000000000000000002000FFC2
:1019C000000402400018004000000000004001FF39
:1019D000000402400000000000000000008000FF42
:1019E0000008024000000000002001400100000A41
:1019F0000008024000000000002001400200000B2F
:101A00000008024000000000002001400400000C1B
:101A10000008024000000000002001400800000D06
:101A20000008024000000000002001401000000EED
:101A30000008024000000000002001402000000FCC
:101A4000000802400004004000000000400001FFC8
:101A5000000802400004004000000000800002FF77
:101A6000000802400004004000000000000103FFE5
:101A7000000802400004004000000000000204FFD3
:101A8000000802400000000000000000000400FF09
:101A9000000802400000000000000000000800FFF5
:101AA000000802400000000000000000001000FFDD
:101AB000000802400000000000000000002000FFBD
:101AC000000802400000000000000000004000FF8D
:101AD000000802400000000000000000008000FF3D
:101AE000000C02400000000000000000010000FFA8
:101AF000000C02400000000000000000020000FF97
:101B0000000C02400000000000000000040000FF84
:101B1000000C02400000000000000000080000FF70
:101B2000000C02400000000000000000100000FF58
:101B3000000C02400000000000000000200000FF38
:101B4000000C02400000000000000000400000FF08
:101B5000000C02400000000000000000800000FFB8
:101B6000000C02400000000000000000000100FF27
:101B7000000C02400000000000000000000200FF16
:101B8000000C02400000000000000000000400FF04
:101B9000000C02400000000000000000000800FFF0
:101BA000000C02400008004000000000001001FF8F
:101BB000000C02400008004000000000002002FF6E
:101BC000000C02400008004000000000004003FF3D
:101BD000000C02400008004000000000008004FFEC
:101BE000001002400000000000000000010000FFA3
:101BF000001002400000000000000000020000FF92
:101C0000001002400000000000000000040000FF7F
:101C1000001002400000000000000000080000FF6B
:101C2000001002400000000000000000100000FF53
:101C3000001002400040014000000000200001FFB1
:101C4000001002400040014000000000400002FF80
:101C5000001002400000000000000000800000FFB3
:101C6000001002400000000000000000000100FF22
:101C7000001002400000014000000000000201FFCF
:101C8000001002400000000000000000000400FFFF
:101C9000001002400000014000000000000802FFA8
:101CA000001002400000000000000000001000FFD3
:101CB000001002400000014000000000002003FF6F
:101CC000001002400000014000000000004004FF3E
:101CD000001002400000000000000000008000FF33
:101CE000001402400000000000000000010000FF9E
:101CF000001402400000000000000000020000FF8D
:101D0000001402400000000000000000040000FF7A
:101D100000140240000000000022014008000009F9
:101D20000014024000000000002201401000000EDC
:101D30000014024000000000002201402000000FBB
:101D40000014024000440140002201404000010410
:101D500000140240004801400022014080000105BB
:101D600000140240001C0040002201400001010656
:101D70000014024000200040002201400002010740
:101D8000001402400000000000220140000400088E
:101D9000001402400000000000000000000800FFE6
:101DA000001402400000000000000000001000FFCE
:101DB000001402400000000000000000002000FFAE
:101DC000001402400000000000000000004000FF7E
:101DD000001402400000000000000000008000FF2E
:101DE000001802400000000000000000010000FF99
:101DF000001802400000000000000000020000FF88
:101E0000001802400000000000000000040000FF75
:101E1000001802400000000000000000080000FF61
:101E2000001802400000000000000000100000FF49
:101E3000001802400000000000000000200000FF29
:101E4000001802400000000000000000400000FFF9
:101E5000001802400000000000000000800000FFA9
:101E6000001802400000000000000000000100FF18
:101E7000001802400000000000000000000200FF07
:101E8000001802400000000000000000000400FFF5
:101E9000001802400000000000000000000800FFE1
:101EA000001802400000000000000000001000FFC9
:101EB000001802400000000000000000002000FFA9
:101EC000001802400000000000000000004000FF79
:101ED000001802400000000000000000008000FF29
:101EE000001C02400000000000000000010000FF94
:101EF000001C02400000000000000000020000FF83
:101F0000001C02400000000000000000040000FF70
:101F1000001C02400000000000000000080000FF5C
:101F2000001C02400000000000000000100000FF44
:101F3000001C02400000000000000000200000FF24
:101F4000001C02400000000000000000400000FFF4
:101F5000001C02400000000000000000800000FFA4
:101F6000001C02400000000000000000000100FF13
:101F7000001C02400000000000000000000200FF02
:101F8000001C02400000000000000000000400FFF0
:101F9000001C02400000000000000000000800FFDC
:101FA000001C02400000000000000000001000FFC4
:101FB000001C02400000000000000000002000FFA4
:101FC000001C02400000000000000000004000FF74
:101FD000001C02400000000000000000008000FF24
:101FE000002002400000000000000000010000FF8F
:101FF000002002400000000000000000020000FF7E
:10200000002002400000000000000000040000FF6B
:10201000002002400000000000000000080000FF57
:10202000002002400000000000000000100000FF3F
:10203000002002400000000000000000200000FF1F
:10204000002002400000000000000000400000FFEF
:10205000002002400000000000000000800000FF9F
:10206000002002400000000000000000000100FF0E
:10207000002002400000000000000000000200FFFD
:10208000002002400000000000000000000400FFEB
:10209000002002400000000000000000000800FFD7
:1020A000002002400000000000000000001000FFBF
:1020B000002002400000000000000000002000FF9F
:1020C000002002400000000000000000004000FF6F
:1020D000002002400000000000000000008000FF1F
:1020E000002402400000000000000000010000FF8A
:1020F000002402400000000000000000020000FF79
:10210000002402400000000000000000040000FF66
:10211000002402400000000000000000080000FF52
:10212000002402400000000000000000100000FF3A
:10213000002402400000000000000000200000FF1A
:10214000002402400000000000000000400000FFEA
:10215000002402400000000000000000800000FF9A
:10216000002402400000000000000000000100FF09
:10217000002402400000000000000000000200FFF8
:10218000002402400000000000000000000400FFE6
:10219000002402400000000000000000000800FFD2
:1021A000002402400000000000000000001000FFBA
:1021B000002402400000000000000000002000FF9A
:1021C000002402400000000000000000004000FF6A
:1021D000002402400000000000000000008000FF1A
:1021E000002802400000000000000000010000FF85
:1021F000002802400000000000000000020000FF74
:10220000002802400000000000000000040000FF61
:10221000002802400000000000000000080000FF4D
:10222000002802400000000000000000100000FF35
:10223000002802400000000000000000200000FF15
:10224000002802400000000000000000400000FFE5
:10225000002802400000000000000000800000FF95
:10226000002802400000000000000000000100FF04
:10227000002802400000000000000000000200FFF3
:10228000002802400000000000000000000400FFE1
:10229000002802400000000000000000000800FFCD
:1022A000002802400000000000000000001000FFB5
:1022B000002802400000000000000000002000FF95
:1022C000002802400000000000000000004000FF65
:1022D000002802400000000000000000008000FF15
:1022E00000000000000000000000000000000000EE
:1022F00000000000000000000000000000000000DE
:1023000000000000000000000000000000000000CD
:1023100000000000000000000000000000000000BD
:1023200000000000000000000000000000000000AD
:10233000000000000000000000000000642300080E
:10234000000000201C000000D401000880230008C9
:102350001C0000204C0D0000F001000839F3FFFFC5
:1023600069F3FFFF0095BA0A0000000000000000BA
:102370000102030406070809000000000000000035
:040000050800019955
:00000001FF
