:0200000400FFFB
:1000000002009C75E900A9D7BA75EA0075930075DE
:10001000940075910075920075950075960075B104
:100020000075B20075B30075B40075C90075CA00DB
:1000300075CB0075CC0075E10075E200C29074FAD2
:10004000120086D290C29174FA120086D291C2CA6E
:1000500074FA120086D2CAC29374FA120086D2933E
:10006000C29474FA120086D294C29574FA12008671
:10007000D295C29674FA120086D296C29774FA127A
:100080000086D29780B67CAB7E440FA07D341B34B3
:100090007D4378F87CBA147CAB78ED227584017EC0
:1000A00044041FE47A49B01B4478F97EF800070243
:0200B00000034B
:00000001FF
