:020000040800F2
:10000000508F0120890200081911000815110008FD
:10001000171100086D0A0008E91D00080000000023
:10002000000000000000000000000000391400087B
:10003000FD0C0008000000005D120008B11400086B
:10004000A3020008A3020008A3020008C1130008CD
:10005000A3020008A3020008450D0008090E0008CD
:100060002D0E0008510E0008750E0008A3020008AE
:10007000A3020008A3020008A3020008A3020008CC
:10008000A3020008A3020008A30200080000000069
:10009000000000000000000000000000990E0008B1
:1000A000A302000891150008A3020008A30200089B
:1000B000DD1500080916000839160008A30200081B
:1000C000A3020008A3020008A3020008A30200087C
:1000D000A30200088D1C0008991C00080000000005
:1000E000690D00086D130008A3020008000000005D
:1000F000000000000000000000000000A302000853
:1001000000000000A302000869160008A30200080E
:1001100000000000000000000000000000000000DF
:10012000A3020008A3020008A3020008710A000845
:10013000A302000800000000000000000000000012
:10014000000000000000000000000000A302000802
:10015000A3020008A3020008A3020008A3020008EB
:10016000A3020008A3020008000000000000000035
:10017000000000000000000000000000000000007F
:1001800000000000A30200080000000000000000C2
:10019000A3020008A302000800F002F800F065F8CE
:1001A0000AA090E8000C82448344AAF10107DA45D2
:1001B00001D100F05AF8AFF2090EBAE80F0013F0BF
:1001C000010F18BFFB1A43F0010318478410020007
:1001D000A41002000A444FF0000C10F8013B13F089
:1001E000070408BF10F8014B1D1108BF10F8015B90
:1001F000641E05D010F8016B641E01F8016BF9D183
:1002000013F0080F1EBF10F8014BAD1C0C1B09D1D9
:100210006D1E58BF01F801CBFAD505E014F8016B4B
:1002200001F8016B6D1EF9D59142D6D370470000DD
:100230000023002400250026103A28BF78C1FBD8EF
:10024000520728BF30C148BF0B6070471FB519F077
:1002500081F89DE8030000F01BFA00F0E3F91FBDF0
:1002600010B5002000F04AFA10BD00F0D2FA114695
:10027000FFF7ECFF15F0CCFD00F0F4FA03B4FFF744
:10028000EFFF03BC00F0BEFA094880470948004769
:10029000FEE7FEE7FEE7FEE7FEE7FEE7FEE7FEE736
:1002A000FEE7FEE704480549054A064B7047000093
:1002B000351500089901000850850120508F012054
:1002C000508701205087012070B5064600F0BCF928
:1002D000056806F10B0020F00704B4429CBF002023
:1002E00070BD2B466A68BAB11068A04210D304F101
:1002F000080188423CBF5068586007D35168101904
:1003000041601168091B016058601460101D70BDC8
:1003100013465268002AE7D12146284600F0A4F986
:100320000028DED170BD70B50446051F00F08CF9C1
:100330000068002C14BF446870BD002C18BFAC428C
:100340003CBF20466468F8D301680A18AA4218BF67
:10035000456003D12A6805461144016028684119A7
:10036000A1421CBF6C6070BD61686960216808446F
:10037000286070BD70B50D460646041F00F064F994
:10038000D0F800C0C5B1E6B105F10B0020F00703BD
:10039000AB423CBF002070BD2068984238BFDCF8FB
:1003A000042013D3C11A08292FD3E01840F8041BE6
:1003B0002360FFF7B8FF28E03046FFF7B4FF0020C6
:1003C00070BD2846BDE87040FFF77EBF002A18BF09
:1003D000A2423CBF94465268F8D30119914216D10B
:1003E00011680844984212D3C11A08293CBF206002
:1003F000506808D35168E0184160216812681144C0
:10040000C91A01602360CCF80400201D70BD181FBC
:10041000FFF75AFF050007D021680A1F211D00F0D1
:100420008BF8201DFFF77FFF284670BD2DE9F041B6
:10043000074615460E461020FFF746FF04000AD077
:100440006760C4E9026500F007F901682160046093
:100450000020BDE8F0810120FBE740EA010310B570
:100460009B070FD1042A0DD310C808C9121F9C4244
:10047000F8D020BA19BA884201D9012010BD4FF036
:10048000FF3010BD1AB1D30703D0521C07E0002083
:1004900010BD10F8013B11F8014B1B1B07D110F8E0
:1004A000013B11F8014B1B1B01D1921EF1D11846E3
:1004B00010BD40EA0103024630B59B0710D14FF052
:1004C000013400E008C208C91D1B9D4315EAC41F82
:1004D000F8D013F0FF0102F8011B0DD01B0AF8E75A
:1004E00011F8013B002B02F8013B05D011F8013B4C
:1004F000002B02F8013BF3D130BD10B5431C02E0E4
:1005000010F8011B71B18107FAD14FF0013202C816
:100510008C1A8C4314EAC211F9D0C01A0A0603D00F
:10052000C01E10BDC01A10BD0A0401D0801E10BD2F
:100530000902FCD0401E10BD10B5203AC0F00B805F
:10054000B1E81850203AA0E81850B1E81850A0E8D7
:100550001850BFF4F5AF5FEA027C24BFB1E8185031
:10056000A0E8185044BF18C918C0BDE810405FEAA1
:10057000827C24BF51F8043B40F8043B08BF70471D
:10058000D20728BF31F8023B48BF11F8012B28BF22
:1005900020F8023B48BF00F8012B70474FF0013CA8
:1005A00050F8042B51F8043B9A4221D1A2EB0C03E2
:1005B000934313EACC1317D150F8042B51F8043BA2
:1005C0009A4215D1A2EB0C03934313EACC130BD13F
:1005D00050F8042B51F8043B9A4209D1A2EB0C03CA
:1005E000934313EACC13DBD04FF00000704700BFF9
:1005F000D01A01BAB1FA81F101F0180122FA01F022
:10060000CB40C1F12001DBB2C0B2C01A2CFA01F319
:10061000D11A914311EAC311E6D170477047704770
:100620007047000070B5064C7C44064D7D4403E0E5
:10063000206820448047241DAC42F9D170BD0000E1
:10064000440C0200540C020000487047F88401205A
:100650000048704724850120004870472885012004
:10066000704770477047704738B504460A46002007
:100670006946AFF30080002808BF38BD02460099E4
:10068000204600F063F8012038BD012000F07DB85D
:10069000F8B5AFF30080054600200C46102000BFDF
:1006A0000646A819A0420DD9324669460020AFF38C
:1006B0000080070008BF00F068F80098A04218BF4B
:1006C0000546C419FFF7C0FF05600746F01D20F07E
:1006D00007004619284600F00AF8B44208BFF8BDE2
:1006E000A21B31463868BDE8F84000F02FB8002161
:1006F0000160C0E901107047102070472DE9F041FA
:100700000646FFF7A9FF8046454613E016B1E068AC
:10071000B0420ED120682860D4E90101D8F80070F9
:1007200088472046FFF7FFFDD8F80000B842EBD11C
:1007300000E025462C68002CE8D1BDE8F08100F0EF
:100740002BB8000000487047F08401200346406841
:100750008C46002818BF88423CBF03464068F8D347
:1007600018681844884207D00CF1030020F00700F5
:10077000001D411A521A0146081D0A60FFF7D3BD39
:10078000002801D000F03EB8704710B500F098F88E
:10079000BDE81040FFF7F4BF10B500F00EF8016996
:1007A00019B100220261884701E08068804700F0AB
:1007B00062F8000010B500F05EF870B500F04EF879
:1007C00004680546A4B92020FFF77EFD040011D07F
:1007D000094900202C60C4E900010849A160207388
:1007E000206160610649A06109B100F091F8E06103
:1007F000204670BD00F03FF800000000B50700087B
:100800000000000001491820ABBEFEE726000200F0
:1008100070477546FFF796FFAE460500694653469A
:1008200020F00700854618B020B5FFF73BFDBDE876
:1008300020404FF000064FF000074FF000084FF047
:10084000000B21F00701AC46ACE8C009ACE8C009D8
:10085000ACE8C009ACE8C0098D4670470048704755
:100860002C85012010B50446AFF300802046BDE87A
:100870001040FFF703BD10B5002000F06EF8FFF741
:10088000EFFCBDE810400120FFF7BCBF70B5054686
:100890000C460A2000E06D1C00F058F835B12878AD
:1008A0000028F8D102E0641C00F050F814B1207860
:1008B0000028F8D1BDE870400A2000F047B80000D9
:1008C00010B5012805D0002103A0FFF7DFFF0120AC
:1008D00010BD09A1F8E7000053494752544D454D5A
:1008E0003A204F7574206F662068656170206D65D1
:1008F0006D6F7279000000003A2048656170206DCC
:10090000656D6F727920636F7272757074656400C3
:1009100010B58820FFF7D8FC002801D00021017015
:1009200010BD802902D808B1017809B100207047B4
:10093000012100F8081B704718B100F1080291422C
:1009400001D00020704700210170704708B569464A
:100950008DF800000320ABBE08BD10B500F004F810
:10096000BDE81040FFF70CBF10B5002102A0FFF753
:100970008DFF012010BD0000534947414252543AB7
:100980002041626E6F726D616C207465726D696E6C
:100990006174696F6E00000070B5264D0446264EE6
:1009A000687848B90020FF2126F81010401CC0B21A
:1009B0001228F9D30120687034B3012C24D0022C02
:1009C00022D0032C20D0042C1ED0052C1CD0062CA9
:1009D0001AD0072C18D0082C16D0092C14D00A2CA9
:1009E00012D00B2C10D00C2C0ED00D2C0CD00E2CA9
:1009F0000AD00F2C08D0102C06D0112C04D0122CA9
:100A000002D04FF0FF3070BD204600F017F8401CB8
:100A100002D06FF0010070BD2878122802D36FF069
:100A2000020070BD26F81040401CC0B22870401E65
:100A300070BD000024000020C00300200A4910B54A
:100A400002460020074B097806E000BF33F810404B
:100A5000944205D0401CC0B28842F7D34FF0FF301B
:100A600010BD0000C003002024000020FEE70000AD
:100A700070B50C4C0C4D2146284600F0D5F80028E6
:100A80000FD00A4AD2F8F010B2F8FC0008830848E8
:100A900000680CF0B7FE21462846BDE8704000F023
:100AA00009B870BD008000185864024060930108C6
:100AB00090010020074A904201D2074801E0054812
:100AC0001038064A8B0001EA020101D5C160704767
:100AD0008160704710640240006002407D0F7D0F0E
:100AE0000029016802D041F0010101E021F001017B
:100AF000016070472DE9F043016821F001010160B8
:100B00000021016041608160C1600161212141617A
:100B10003C493C4A3D251039904202D18D60BDE8E8
:100B2000F083384A4FF474661832904201D18E60D7
:100B3000F5E7344A4FF474173032904201D18F6098
:100B4000EDE7304A4FF0746C4832904202D1C1F860
:100B500008C0E4E72B4B2C4A6033984201D1CA60AD
:100B6000DDE7284C294B7834A04201D1CB60D6E791
:100B7000DFF89080264C08F19008404501D1CC6008
:100B8000CDE7DFF880804FF03D5908F1A8084045D7
:100B900002D1C1F80C90C2E71E49DFF8788008390D
:100BA000404501D10D60BAE71A4D1835A84201D170
:100BB0000E60B4E7174D3035A84201D10F60AEE7A3
:100BC000144D4835A84202D1C1F800C0A7E7114D25
:100BD00010496035091FA84201D10A609FE70D4AFC
:100BE0007832904201D10B6099E70A4A90329042E4
:100BF00001D10C6093E7074AA83290428FD1C1F827
:100C000000908CE7106002403D000020400F002063
:100C100000003D2010640240014600200968C90719
:100C200000D001207047000030B5104A00249042E7
:100C300001D20F4B01E00D4B103B0E4A114205D083
:100C40001E2202EAD12502682A4002E0406900F033
:100C50008002880001D5586800E01868064B1840EB
:100C6000084201D002B10124204630BD1064024088
:100C7000006002403C0F3C0F7D0F7D0F0B0607D537
:100C8000436912B143F0800301E023F08003436124
:100C9000802908D0002A026801F01E0101D00A4311
:100CA00000E08A430260704730B50368124ACC689E
:100CB00013400A682243D1E905452C432243CC69FD
:100CC00022430C6A22434C6A22438C6A22434C6BB7
:100CD00022438C6B22431A430260426922F00703CD
:100CE000D1E90B2422431A4342610A6942604A68EF
:100CF00082608968C16030BD3F801CF07047000091
:100D000070B500F0DDFB0E484FF47A714FF0FF35FF
:100D10000068B0FBF1F1491EB1F1807F0AD24FF0BB
:100D2000E02461610F21284600F02AFA0020A0612A
:100D3000072020612846BDE87040002100F020BA5D
:100D40001000002010B5012000F0EAF8002808D0BB
:100D50000448006800B18047BDE81040012000F061
:100D6000D9B810BD0804002070B54FF4806528463E
:100D700000F0D6F8234C28B1A16A01B18847284673
:100D800000F0C8F84FF40065284600F0C9F828B113
:100D9000E16A01B18847284600F0BCF84FF480555D
:100DA000284600F0BDF828B1216B01B188472846DC
:100DB00000F0B0F84FF40055284600F0B1F828B123
:100DC000616B01B18847284600F0A4F84FF48045D4
:100DD000284600F0A5F828B1A16B01B18847284644
:100DE00000F098F84FF40045284600F099F80028E4
:100DF00007D0E16B01B188472846BDE8704000F09C
:100E000089B870BD0804002010B5022000F088F8F1
:100E1000002808D00448406800B18047BDE8104071
:100E2000022000F077B810BD0804002010B504209F
:100E300000F076F8002808D00448806800B18047A8
:100E4000BDE81040042000F065B810BD0804002083
:100E500010B5082000F064F8002808D00448C068E5
:100E600000B18047BDE81040082000F053B810BD25
:100E70000804002010B5102000F052F8002808D017
:100E80000448006900B18047BDE81040102000F020
:100E900041B810BD0804002070B5202000F040F8D3
:100EA0001B4C28B1606900B18047202000F032F867
:100EB000402000F035F828B1A06900B180474020FB
:100EC00000F028F8802000F02BF828B1E06900B18C
:100ED0008047802000F01EF84FF48075284600F00F
:100EE0001FF828B1216A01B18847284600F012F89E
:100EF0004FF40075284600F013F8002807D0616A07
:100F000001B188472846BDE8704000F003B870BDC5
:100F1000080400200149086070470000143C0140AB
:100F2000034A0146002012680A4200D0012070479F
:100F3000143C0140024901EB0010808900F002B826
:100F400060930108002102E04008491C89B2012891
:100F5000FAD8C8B27047F0B50023012403270D6802
:100F600004FA03F21540954242D1D0F800C05E0069
:100F700007FA06F52CEA050CC0F800C091F804C089
:100F8000D0F800E00CFA06FC4CEA0E0CC0F800C0E9
:100F900091F804C0BCF1010F02D0BCF1020F1FD1C7
:100FA000D0F808C02CEA050CC0F808C091F805C0BC
:100FB000D0F808E00CFA06FC4CEA0E0CC0F808C0A9
:100FC000D0F804C02CEA020CC0F804C0426891F8C2
:100FD00006C00CFA03FC1FFA8CFC42EA0C024260C9
:100FE000C268AA43C260CA79C568B2402A43C260D7
:100FF0005B1C102BB3D3F0BD4B07DB0E9A40C90826
:1010000010B500EB8100016A0F249C40A1430162EE
:10101000016A1143016210BD7CB504463248844226
:1010200001D1012030E03148844201D102202BE07F
:101030002F48844201D1042026E02E48844201D169
:10104000082021E02C48844201D110201CE02B48CC
:10105000844201D1202017E02948844201D1402058
:1010600012E02848844201D180200DE026488442C5
:1010700001D1801508E02548844201D1401503E0E4
:101080002348844220D10015FAB1012A1FD0022A38
:1010900020D0032A21D0052A21D0062A21D0072AD0
:1010A00012D10225002600228DF804508DF805305B
:1010B00000918DF806608DF80720012100F0D0F82E
:1010C00069462046FFF747FF7CBD0025EBE700257A
:1010D0000122E9E700250222E6E70325E3E70125EF
:1010E000E0E701252E46DEE7000002400004024052
:1010F00000080240000C02400010024000140240B0
:1011000000180240001C024000200240002402405F
:1011100000280240FEE7FEE77047000030B50F22CE
:10112000C47801780123FCB1144C246801F1E0215A
:1011300004F4E064C4F5E064C4F30724C4F10405D6
:10114000E2404478AC408578154025432A0181F877
:101150000024007800F01F018B404009800000F15E
:10116000E020C0F8003130BD01F01F008340480985
:10117000800000F1E020C0F8803130BD0CED00E0CF
:101180000907090E002806DA00F00F0000F1E02040
:1011900080F8141D704700F1E02080F800147047BB
:1011A0002DE9F04717460C460646B02810D22448D1
:1011B00000EB0615686858B1A87B48B144B13FB14F
:1011C000DFF8808004FB07F0D8F80010884202D9CD
:1011D0000020BDE8F0870721304615F04FFB304670
:1011E00000F072FA81463046FFF7A4FE01464A46F7
:1011F0002868FFF701FFD8F800002646B0FBF6F09C
:10120000B0FBF7F41049686888420CD00F49884257
:1012100009D00F49884206D00E49884203D00E49B2
:10122000884200D06408002100F039FA641E761E5E
:10123000AB7BA2B2B1B2686800F022FCA87BC8E721
:1012400060930108100000200000014000040140EC
:101250000040014000440140004801407047000048
:10126000044A0029116801D0014300E08143116064
:101270007047000030380240044A0029116801D04C
:10128000014300E081431160704700004038024094
:10129000044A0029116801D0014300E08143116034
:1012A0007047000020380240044A0029116801D02C
:1012B000014300E081431160704700004438024060
:1012C000044A0029116801D0014300E08143116004
:1012D000704700002438024070B5204A1168204C45
:1012E00011F00C0104D01F4E042903D0082903D0AB
:1012F00004601BE0066019E01849091F0B68C3F37E
:1013000080550B6803F03F0315B1B6FBF3F301E022
:10131000B4FBF3F30C680968C4F388146343C1F3A6
:101320000141491C4900B3FBF1F1016011680F2331
:1013300003EA11110C4B5C5C0168E14041601468E8
:10134000072505EA94241C5D21FA04F484601268E0
:1013500005EA52329A5CD140C16070BD0838024043
:101360000024F40040787D010000002010B54FF407
:101370008074204600F016F8012804D12046BDE80C
:10138000104000F001B810BD80B240F08000C143B1
:101390000348026802F080021143016070470000B8
:1013A0000C2800400449024600200968034B1940FC
:1013B000114200D0012070470C2800407F7F0100BF
:1013C00010B54FF480642046FFF7ECFF012804D1EC
:1013D0002046BDE81040FFF7D7BF10BD00290188A7
:1013E00002D041F0400101E021F04001018070474E
:1013F000002A828801D00A4300E08A438280704735
:1014000030B502884C8802F441530A88CD882243C3
:101410008C882C4322430C8922434C8922438C899B
:101420002243CC8922431A430280828B22F4006239
:101430008283098A018230BD704700001848016824
:1014400041F0805101601748016841F4404101605A
:10145000134838380168016001680160016841F48F
:1014600080510160021F10491160111F0A6842F08B
:1014700080720A600A689201FCD50C4A40F202713F
:101480001160016821F003010160016841F002016F
:1014900001600168C1F381010229FAD1704700009F
:1014A0004038024000700040195F0008003C0240D4
:1014B00002480168491C01607047000028000020B4
:1014C00070B5184D00212868174A10F00C03174812
:1014D00003D0042B03D0082B03D0026018E014497A
:1014E00015E0104B1B1F1C681E68C4F3805406F0E7
:1014F0003F062CB9B2FBF6F11A68C2F388125143C9
:101500001A68C2F30142521C5200B1FBF2F10160B1
:101510002968064AC1F30311121D515C0268CA40D2
:10152000026070BD083802400024F4001000002062
:1015300040787D01124810B5016841F470010160E6
:101540001048016841F0010101600E4A0021083293
:10155000116002680C4B1A400260031D0B4A1A60AE
:10156000026822F48022026006480C300160FFF716
:1015700065FF03494FF000608039086010BD00002E
:1015800088ED00E000380240FFFFF6FE1030002436
:1015900070B50F4D0121284600F016F90D4C30B101
:1015A000216801B188470121284600F075F80A4DED
:1015B0000121284600F008F9002808D0616A01B12D
:1015C00088472846BDE87040012100F065B870BD2D
:1015D00000000140480400200044014010B50121F2
:1015E0008C07204600F0F0F8002809D00548416833
:1015F00001B188472046BDE81040012100F04CB8F9
:1016000010BD00004804002010B5094C01212046FF
:1016100000F0DAF8002809D00648816801B188474F
:101620002046BDE81040012100F036B810BD000092
:10163000000400404804002010B5094C0121204658
:1016400000F0C2F8002809D00648C16801B18847F7
:101650002046BDE81040012100F01EB810BD00007A
:10166000000800404804002010B5094C0121204624
:1016700000F0AAF8002809D00648016901B188479E
:101680002046BDE81040012100F006B810BD000062
:10169000000C004048040020C94301827047002923
:1016A000018802D041F0010101E021F00101018037
:1016B0007047002930F8441F02D041F4004101E096
:1016C000C1F30E01018070472DE9F04F314A014608
:1016D00002EB0111DFF8C08049680020DFF8BCC0D0
:1016E0002F4A304B304CDFF8C4A0DFF8C4B0314D86
:1016F000314E324FDFF8C890414522D0B1F1804FD2
:101700001DD061451FD091421DD099421BD04FEA98
:10171000B848414517D0DFF8AC80414513D0A1420D
:1017200011D051450FD059450DD0A9420BD0B1422F
:1017300009D0B94207D0494529D0BDE8F08F012032
:10174000FBE7012003E0614501D1022003E0914263
:1017500001D1022003E0994201D1022003E0A1421D
:1017600001D1032003E0514501D1032003E0594595
:1017700001D1032003E0A94201D1032003E0B142DB
:1017800001D1092001E0B94201D04945D5D1092054
:10179000D3E700006093010800000140000400400E
:1017A00000080040000C00400004014000400140DF
:1017B000004401400048014000180040001C004067
:1017C000002000400014004002460020138A928945
:1017D0000B4202EA010202D0002A00D00120704729
:1017E00030B5028C22F001020284028C8388048BC3
:1017F00022F0020224F073050C882C438D891543D6
:101800004A882A430C4DA84202D00C4DA8420DD163
:1018100022F00805CA8923F440732A4322F0040504
:101820008A882A430D8A1D434B8A2B438380048375
:1018300089684163028430BD00000140000401401A
:10184000028B22F008020A430283704770B5028CB3
:1018500022F010020284028C8488038B0D8823F40A
:10186000E6464FF6FF7303EA052535438E8922F0DD
:10187000200203EA061616434A8803EA021232439C
:10188000104EB04202D0104EB04215D122F0800668
:10189000CA8924F4406403EA0212324322F040066B
:1018A0008A8803EA021232430E8A03EA8606264336
:1018B0004C8A03EA84043443848005838968816305
:1018C000028470BD0000014000040140028B4FF60D
:1018D000FF7322F4006203EA012111430183704780
:1018E00070B5028C22F480720284028C8488838B0F
:1018F0000D8823F073031D4322F400738E894FF685
:10190000FF7202EA06261E434B8802EA0323334392
:10191000104EB04202D0104EB04215D123F40066F2
:10192000CB8924F4405402EA0323334323F4806632
:101930008B8802EA032333430E8A02EA0616264303
:101940004C8A02EA04143443848085838968C16325
:10195000038470BD0000014000040140828B22F02E
:1019600008020A438283704770B5028C22F48052C9
:101970000284048C8288838B0D8823F4E6464FF61C
:10198000FF7303EA0525354324F400568C8903EAE6
:10199000043434434E8803EA06362643084CA042FA
:1019A00002D0084CA04205D122F480440A8A03EAFE
:1019B000821222438280858389680164068470BD17
:1019C0000000014000040140828B4FF6FF7322F4B7
:1019D000006203EA012111438183704700210180E5
:1019E0004180818081608181C18101824182704713
:1019F00030B50288164B174C98420DD0A0420BD040
:101A0000B0F1804F08D0144DA84205D0134DA84224
:101A100002D0134DA84203D122F070054A882A4310
:101A2000104DA84206D0104DA84203D022F44075B4
:101A30000A892A4302804A68C2620A88028598425B
:101A400001D0A04201D1897A01860121818230BD75
:101A50000000014000040140000400400008004074
:101A6000000C004000100040001400404FF0FF3117
:101A70004160002101800181418081727047000036
:101A8000F0B50446414889B01D4616460F468442CB
:101A900026D0B4F1804F23D03D48844220D03D4829
:101AA00084421DD03C4884421AD03C48844217D01E
:101AB0003B48844214D03B48844211D03A48844287
:101AC0000ED03A4884420BD03948844208D0394875
:101AD000844205D03848844202D03848844252D1EA
:101AE0000121204600F06CF805A8FFF7BFFF002099
:101AF000ADF81460ADF81C00ADF81600069705A906
:101B00002046FFF775FF6846FFF768FF7020ADF8C5
:101B100000000120ADF802000220ADF80C00012DFC
:101B200006D0022D0DD0032D14D0042D23D11AE0A0
:101B300069462046FFF754FE08212046FFF780FE45
:101B400019E069462046FFF781FE08212046FFF78D
:101B5000BDFE10E069462046FFF7C2FE0821204680
:101B6000FFF7FCFE07E069462046FFF7FDFE08216F
:101B70002046FFF729FF01212046FFF790FD0121B4
:101B80002046FFF796FD09B0F0BD000000000140BF
:101B90000004004000080040000C0040001000401D
:101BA0000014004000040140004001400044014096
:101BB0000048014000180040001C00400020004088
:101BC000254A904201D1012033E0B0F1804F04D08A
:101BD000224A904203D102203BE0012039E0204A12
:101BE000904201D1042034E01E4A904201D10820E5
:101BF0002FE01D4A904201D110202AE01B4A90425A
:101C000001D1202025E01A4A904201D1022010E0A3
:101C1000184A904202D14FF480300AE0164A9042AE
:101C200002D14FF4003004E0144A904203D14FF443
:101C30008020FFF739BB124A904201D1402008E0D2
:101C4000104A904201D1802003E00F4A904202D115
:101C50008015FFF711BB70470000014000040040F1
:101C600000080040000C004000100040001400403C
:101C70000004014000400140004401400048014090
:101C800000180040001C004000200040014800F007
:101C900075BA000098010020014800F06FBA0000FA
:101CA000340200200A0A01219140C9430180704793
:101CB0000029818902D041F4005101E021F4005152
:101CC0008181704730B501F01F0201240025C1F366
:101CD000421304FA02F2012B0FD0022B0FD0838A99
:101CE0004FEA11210088134204FA01F400EA0400CB
:101CF00001D000B10125284630BD8389F0E7038A71
:101D0000EEE710B5C1F3421301F01F040121A14019
:101D1000012B07D0022B07D01430002A026805D00F
:101D20000A4304E00C30F8E71030F6E78A4302601B
:101D300010BD00007FB50446008A0D4620F44051D6
:101D4000E88808432082A08941F20C618843A98871
:101D50002A8911436A8902431143A181A08A20F490
:101D60004071A8890843A0826846FFF7B5FA1A486F
:101D7000844202D01948844201D1039800E00298BD
:101D8000A189090400EBC00101EB0010296801D50D
:101D9000490000E08900B0FBF1F26420B2FBF0F1F1
:101DA00009010B096FF018056B4302EB8302A3894D
:101DB0001D044FF0320306D503EBC202B2FBF0F074
:101DC00000F0070005E003EB0212B2FBF0F000F0B8
:101DD0000F00084320817FBD001001400014014026
:101DE0008088C0F308007047FEE70000F8B514468D
:101DF000174A1060B1F90430B1F90000B1F906607A
:101E0000B1F902201D1AB11A491C6D1C15FB01F114
:101E10004D0001460F48009600F056FB0E48B0F802
:101E2000FC1050F8F02F5183B0F85C10006D018366
:101E30000A4E00213046FEF753FE08480C3004607D
:101E4000301D05603046BDE8F8400121FEF748BE70
:101E500090010020408700206093010858640240F0
:101E600010B50BF0D7FCBDE810400BF015BD44F6E3
:101E700020624FF47A711720FFF792B910B503482A
:101E800000F00EFD024880ED000A10BD34870020EE
:101E90008C01002010B5012190B08805FFF7E0F912
:101EA0001C4C2046FEF726FE2046FEF7B5FE002815
:101EB000FAD14FF0C0600090174801901748029087
:101EC00040200390002147F69060CDE904014FF4D3
:101ED0008060CDE9060180010891CDE90910032059
:101EE000CDE90B100D910E9169462046FEF7DCFE00
:101EF0000948012202210C38FFF77AFA08494FF00D
:101F00000060C1F80001012210212046FEF7B6FE54
:101F100010B010BD586402400C300140D087002042
:101F200004E000E000B58DB0FFF7B4FF0A4A43F6C5
:101F30004873A2EB4301A1F124000BF0C1FB6846FA
:101F40000BF0CEFB054803900548019068460BF066
:101F5000E7FB0DB000BD000060060120ED1D00088C
:101F6000AC870020034890F87E11D0F8740116F079
:101F70007DBD000060930108002801DA002004E024
:101F80004FF47A71884200DD084681B2172003F0D1
:101F900059BC0000032901D0052903D1024800687B
:101FA00011F056BF7047000094010020032901D0B2
:101FB000052903D10248006811F072BF7047000084
:101FC0009401002030B47F2444EA022230BC02F0A5
:101FD0009DBE000010B500F0B5FD00F065FD0123C9
:101FE0001A460F490F4800F0C3FC01230A220E498C
:101FF0000C4800F0BDFC01230A220C49094800F0FE
:10200000B7FC01234FF47A720949064800F0B0FC8E
:102010000123BDE810400A220649024800F0A8BC8E
:10202000DD2A000834870020612B0008E12A00081F
:102030007D1E0008E12B000870B5044613F03CFD3E
:10204000054601E012F0B2FB284613F02FFDA04236
:10205000F8D970BD70B50446C0690D46002866D039
:10206000607E0126D0B114F0E3F92169401AE188BD
:10207000884229D3E078A84226D002202071A07E91
:10208000C0B114F0D5F9E168401A218988423CD3E7
:1020900014F0CEF9E0600321E26934E0E078884290
:1020A00045D066762670267114F0C2F920610121B0
:1020B000E26924E0E26902212046904714F0B8F971
:1020C000E060A676A67020E0607E00282FD0E07841
:1020D000A8421DD100206076A0766670207114F0B1
:1020E000A7F9606114F0A4F92169401AE1888842D7
:1020F00003D2E269062120469047E2690421204686
:102100009047E269052120469047607E00280ED066
:1021100014F08EF96169401AC82808D2207E401C4C
:1021200020762046E269BDE870400721104770BD67
:10213000C170C2800381002101614161C1604176AB
:102140008176C1617047000010B500230A4CC0E9D8
:1021500000430181428189B2818191B2C18143767C
:1021600003824382012101764FF6FF72C28282828E
:102170008176C376C36110BD7811020870B504463C
:1021800040F2255500692946FFF79CFD002818D02C
:102190002069FFF725FEC2B2208B618B401C00F046
:1021A0007F00814204D0238B04F11C015A54208308
:1021B000606900B1804729462069BDE87040FFF79B
:1021C00071BD70BD018B428B914202D14FF0FF3047
:1021D0007047428B00F11C01515C428B521C02F093
:1021E0007F024283084670470022AFF3008008B5A3
:1021F00003230093012300F001F808BD2DE9FF4FF0
:102200000646444900690D15434F87B093468842FE
:102210000AD144154FF001094FF0070A4946102032
:10222000FFF742F825200DE03C4988420CD10424F8
:102230004FF0010908254FF0070A4946E003FFF770
:102240001BF8262080460DE0354988425FD12C4698
:10225000C5140121334F4FF0070A4FF002098804DB
:10226000FFF70AF801214846FEF7FAFF2046FEF77D
:1022700069FE014652463846FEF7BEFE2846FEF786
:1022800061FE014652463846FEF7B6FE03202C4357
:102290008DF81500022004948DF8140000248DF8A8
:1022A000164001258DF8175004A93846FEF753FE55
:1022B0008DF818800A988DF8190014988DF81A0076
:1022C0008DF81B5006A8FEF729FF089800900BF424
:1022D0007040ADF804000BF47060ADF806000BF030
:1022E000F0000002ADF808000C20ADF80C40ADF88D
:1022F0000A0069463069FFF71DFD012240F22551B1
:102300003069FFF7FEFC01213069FFF7D1FC0BB00B
:10231000BDE8F08F00100140000002400044004082
:102320000048004000040240018B408B081A00F076
:102330007F00704700224FF47A73C0E90123034BFA
:102340000360C0E90412428302837047CC11020883
:10235000F8B50446C0890E46401E00B20090A08920
:10236000401E03B2206800221146C56C2046A847D3
:10237000A089E18910FB01F594F82900F8B1216BDF
:10238000B4F842004883616BB4F8440008831148F4
:10239000310A07E002899207FCD581810289920700
:1023A000FCD586816D1EF5D201898907FCD501898E
:1023B0000906FCD4216BB4F842000883F8BD00275D
:1023C00004E03146204600F03DF87F1CAF42F8D3D0
:1023D000F8BD00000030014010B511F003020446C2
:1023E00042764FF087004FF0F00111D0012A17D04C
:1023F000022A1DD0032A23D1A181E0813621204663
:1024000000F046F870212046BDE8104000F002BA06
:10241000A081E1813621204600F03AF80021F2E760
:10242000A181E0813621204600F032F8A021EAE7C0
:10243000A081E1813621204600F02AF8C021E2E7A0
:1024400010BD000070B504460D46216BB0F8420087
:102450004883616BB4F84400088394F82900290A82
:1024600038B10A4800F0C7FDE9B2084800F0C3FDE2
:1024700006E0204600F0B4F9E9B2204600F0B0F9D9
:10248000216BB4F84200088370BD00006C0300208B
:1024900010B50446B0F84200226B5083626BB4F86A
:1024A0004400508394F8290018B1064800F0A3FDB9
:1024B00002E0204600F094F9216BB4F84200088352
:1024C00010BD00006C0300202DE9FF5F0C46009852
:1024D0000E9D9A46417E02F1280805F1280919B39C
:1024E000343504F1280B0AF1280602F134070129DA
:1024F00003D0022924D0032946D12A210098FFF7CE
:10250000C7FF1FFA8BF10098FFF79CFFB1B200984C
:10251000FFF798FF2B210098FFF7BAFFB9B2009898
:10252000FFF790FFA9B225E02A210098FFF7B0FF3E
:102530003434A1B20098FFF785FF0AF134000AE0B5
:102540002A210098FFF7A4FF3534A1B20098FFF7C5
:1025500079FF0AF1350081B20098FFF773FF2B2154
:102560000098FFF795FF1FFA88F10098FFF76AFFC0
:102570001FFA89F10098FFF765FF009804B02C213D
:10258000BDE8F05FFFF784BFBDE8FF9F10B50446CC
:10259000052114F8200F14F071F96078052114F06A
:1025A0006DF9A078052114F069F9607A203C38B102
:1025B000894800F041FC8949874800F0DDFC09E0CA
:1025C00094F82300052114F059F994F8240005210A
:1025D00014F054F9E16AB4F840004883C82005F0CB
:1025E0009BFAE16AB4F8400008834FF4967005F056
:1025F00093FA36212046FFF74BFF0021204600F0DA
:1026000009F93A212046FFF743FF0521204600F053
:1026100001F9B2212046FFF73BFF0C21204600F0D4
:10262000F9F80C21204600F0F5F80021204600F0D2
:10263000F1F83321204600F0EDF83321204600F078
:10264000E9F8B7212046FFF723FF3521204600F0A7
:10265000E1F8BB212046FFF71BFF1921204600F0BF
:10266000D9F8C0212046FFF713FF2C21204600F0A7
:10267000D1F8C2212046FFF70BFF0121204600F0D0
:10268000C9F8C3212046FFF703FF1221204600F0BE
:10269000C1F8C4212046FFF7FBFE2021204600F0B0
:1026A000B9F8C6212046FFF7F3FE0F21204600F0BF
:1026B000B1F8D0212046FFF7EBFEA421204600F020
:1026C000A9F8A121204600F0A5F8E0212046FFF757
:1026D000DFFED021204600F09DF80421204600F0C6
:1026E00099F80D21204600F095F81121204600F0C0
:1026F00091F81321204600F08DF82B21204600F0A0
:1027000089F83F21204600F085F85421204600F04A
:1027100081F84C21204600F07DF81821204600F079
:1027200079F80D21204600F075F80B21204600F0C5
:1027300071F81F21204600F06DF82321204600F09B
:1027400069F8E1212046FFF7A3FED021204600F0E2
:1027500061F80421204600F05DF80C21204600F0CD
:1027600059F81121204600F055F81321204600F0B9
:1027700051F82C21204600F04DF83F21204600F072
:1027800049F84421204600F045F85121204600F048
:1027900041F82F21204600F03DF81F21204600F08F
:1027A00039F81F21204600F035F82021204600F09E
:1027B00031F82321204600F02DF821212046FFF793
:1027C00067FE11212046FFF763FE2046BDE810405A
:1027D0002921FFF75DBE00006C03002000C2EB0B57
:1027E00010B50022846BB0F8463063830B06B0F856
:1027F0004830C46B01D5238300E06383846BB0F859
:10280000463023834906521C090ED2B2082AE9D366
:1028100010BD000010B50446B0F84200226B508392
:10282000626BB4F84400108394F8290018B106488C
:1028300000F0E1FB02E02046FFF7D2FF216BB4F885
:102840004200088310BD00006C03002070B51546DF
:102850000E461C46F0228721FFF776FC0E4940F811
:102860000C1B0E490475467501EB0412857513683F
:1028700003629289828601EB061201EB051113684F
:1028800043629289C2860A6882628989018701212E
:1028900041770C3870BD0000F01102086093010808
:1028A00010B52DED028B13F0A5FD114C6168401A97
:1028B00000EE100A1049F8EE400A94ED000AB8EE56
:1028C000400A80EE201A9FED0B0A21EE008A18EED6
:1028D000100A884201DDB0EE408A13F08BFD606083
:1028E00000202060B0EE480ABDEC028B10BD000055
:1028F000840100200000C8420000C842881A7047C6
:1029000002680020002A03D053688B4201D1104690
:1029100070479269F6E700002DE9F04104680E4621
:102920000546002C20D06068E0B12078D0B1314657
:102930002846E268FFF7E2FFA168814212D8401AF8
:10294000E660606113F056FD07466068804713F04B
:1029500051FD0649C01B20610A6810440860287AAE
:10296000002801D1A469DCE7BDE8F08184010020E2
:102970002DE9F0411D4616460F460446FFF7C0FFFD
:1029800018B186600570BDE8F0811C2000F048FB9E
:102990000028F8D0C0E9017605700021C16001610E
:1029A00041618161216819B1616888616060EAE70D
:1029B0002060FBE70172002101604160704770B543
:1029C0000468054624B12046A46900F024FBF9E719
:1029D000284670BDF8B5FFF743FA002111F0B4F9AD
:1029E0002A4C2B4A2B49206011F0C6FA02220521FD
:1029F000206811F07DFA206811F001FC6421206844
:102A00000FF070FE002600963346324631462068AD
:102A10000EF06BFA20680EF018FF0546FFF720FA5B
:102A2000002109F08BFC2A46074611460FF028FDCD
:102A3000009605231322384621680EF056FA1F210E
:102A4000384612F0B5FF002213A311463846FFF7AF
:102A5000B9FA124938460FF065FCFFF701FA39461A
:102A600009F06CFC00960546731F102221680EF0D9
:102A70003CFA0B4928460FF055FC01B02846BDE84A
:102A8000F040002207A31146FFF79CBA94010020F2
:102A9000905F010018FCFFFFEF81A700AD1F000849
:102AA000951F0008EF81A8000EB50DF03DF9FFF766
:102AB00039FA0849084AD1E9000100920192134607
:102AC0000292002212F08AFF12F0EAFFBDE80E40E7
:102AD000FFF780BF68110208B000002011F066BE49
:102AE00010B5002005F022F828B10021BDE8104003
:102AF0000248FFF7AFBA0121F8E700008C870020F9
:102B000010B505210C2013F0B9FE0121BDE81040DD
:102B10000C2005F01BB810B5FFF724FA040007D409
:102B200020B2FFF729FA0520FFF786FA641FF7D5D0
:102B30004FF4FA70FFF780FA0021BDE8104004203E
:102B400005F004B810B54FF4E1310448FFF74CFB31
:102B5000FFF7D6FFBDE8104000F004B89801002050
:102B60007047000070B5FFF782F90020FFF704FA04
:102B70000D48FFF70BFD00210B48FFF72DFC00214E
:102B80000948FFF7E5FBFFF7EDF904464FF47A75C6
:102B900006E020B2FFF7F0F9052004F0BDFF641D48
:102BA000AC42F6DD70BD00004087002070B5012109
:102BB000042004F0CBFF4FF4FA70FFF73DFAFFF763
:102BC000D1F904464FF47A7506E020B2FFF7D4F944
:102BD0000520FFF731FA641DAC42F6DD70BD000040
:102BE0000EB525E015A0C2B21549684600F03EF8C2
:102BF000684614A100F0EEF940B1154850F8C01F26
:102C0000496982890068514041610EE0684611A11E
:102C100000F0E0F910B1FFF77EFF06E0684610A172
:102C200000F0D8F908B1FFF7C1FF684600F0C0F81E
:102C30000348FFF779FB0028D4D10EBD0D0A000030
:102C4000980100204C45445F544553540D0A000040
:102C500060930108504F5745525F4F46460D0A009A
:102C6000504F5745525F4F4E0D0A000070B50E464B
:102C7000154608A100F08CF8044603E0C1B22046D6
:102C800000F068F8304600F007F8002801DBA842A1
:102C9000F4D170BD0000000010B5044613F0C8FB6D
:102CA000E0602068016920468847002808DA13F0B0
:102CB000BFFBE168401AA1688842F2D34FF0FF30B1
:102CC00010BD10B50446006808B1FDF72CFB0020CC
:102CD0002060A060606010BD70B50D4604460068BD
:102CE000491CFDF747FB002802D0C4E9000501207C
:102CF00070BD70B50E4615460446114600F035F815
:102D000030B1A56031462068FDF7D3FB204670BD89
:102D10002046FFF7D6FFF9E700210160416081609E
:102D2000704770B5044680680E0000EB02050FD0B6
:102D300062B12946204600F018F8002807D0A168A3
:102D4000206808443146FDF7B4FBA560012070BD42
:102D5000002070BD08B501228DF8001000218DF80B
:102D600001106946FFF7DDFF08BD10B50446006895
:102D700010B16068884209D22046FFF7ADFF0028F5
:102D800005D0A06810B9216800200870012010BD8E
:102D900070B50C460546FFF7BFFF3CB12046FDF776
:102DA000ACFB024621462846FFF7A3FF284670BD2C
:102DB00010B504460068FDF7B6FA204610BD2DE9AF
:102DC000FF5F0446DDE90E8B1F4691460021DDF8CA
:102DD00040A00198FEF702FBB8F1000F09D0B8F14E
:102DE000010F08D0B8F1020F07D0B8F1030F09D1D5
:102DF00006E0002602E0002603E00226002501E0AE
:102E0000022601250020A080A4F806902781668173
:102E1000A581A4F80EB0A4F810A011986082032038
:102E2000A082211D0198FEF7EBFA019804B0012160
:102E3000BDE8F05FFEF7D2BA7FB5044601684948A5
:102E4000474A006891422AD101210D03A06128461A
:102E5000FEF72AFA0721052013F010FD07210620AE
:102E600013F00CFD0721084613F008FD3E4E052225
:102E700011463046FEF7C0F8052206213046FEF71F
:102E8000BBF8052207213046FEF7B6F80121284697
:102E9000FEF716FA00212846FEF712FA51E03148F3
:102EA000324A334D0068400891421ED101218E0301
:102EB000A0613046FEF7E0F907211D2013F0DEFC8B
:102EC00007211E2013F0DAFC07211F2013F0D6FC87
:102ED00005220D212846FEF78FF805220E212846EF
:102EE000FEF78AF805220F2120E0224A914228D1DC
:102EF0000121CE03A0613046FEF7BEF90721132061
:102F000013F0BCFC0721142013F0B8FC0721152096
:102F100013F0B4FC062203212846FEF76DF80622C2
:102F200004212846FEF768F8062205212846FEF708
:102F300063F801213046FEF7ABF900213046FEF779
:102F4000A7F9002010214A01CDE90002CDE90210C5
:102F500003464FF4827220462168FFF730FF7FBDA1
:102F60000030014010000020000002400038004006
:102F700000040240003C004010B504468069B0FBEC
:102F8000F1F082B2022A01D8002218E0042A01D806
:102F9000082214E0082A01D8102210E0102A01D8D3
:102FA00018220CE0202A01D8202208E0402A01D86B
:102FB000282204E0802A01D8302200E03822228230
:102FC000211D2068FEF71CFA2068BDE81040012191
:102FD000FEF704BA10B5826822B1006829B1FDF786
:102FE000DDFA03E029B1087800E0007808B100209C
:102FF00010BD012010BD08B502689389ADF80030FE
:103000009181006801898907FCD501890906FCD4F2
:103010008089C0B208BD10B5FDF785F910BD00006C
:1030200010B5040007D1012405E0FDF711FB00688D
:1030300000B9044880472046FDF746F90028F4D03F
:1030400010BD00003F070008C8234FF4FA720021AA
:103050000148FFF76DB800008C87002000B50749D4
:103060000748FFF767F9064806499C30FFF762F901
:10307000054906485DF804EBFFF75CB90010014014
:10308000980100200044004000480040D002002089
:10309000162314220F210148FFF7D8BB40870020D8
:1030A0000448054901601C30044901601C30044992
:1030B000016070476C030020003001400038004080
:1030C000003C004010B500210448FFF773FCBDE848
:1030D0001040034A0349FDF7A9B9000034870020D6
:1030E00000000008BF29000810B54421074801F07E
:1030F000EEF8002304221E21054811F0E3FA054CE6
:10310000A06002F0AFFB0020207010BDBC050020C5
:1031100019590008CC0000202DE9F04100251C467B
:1031200088460646152A3BD2DFE802F00B1B1D2E0F
:103130003744535C5E676A79878999A6ABB0B5BAA4
:10314000CD00304609F0D6F80546404609F0D2F8E1
:10315000014605EBD570401001EBD171A0EB610089
:10316000A1E025800EE0304609F0C4F8074640464D
:1031700009F0C0F807EBD771491000EBD070A1EB54
:1031800060008BE065800BE0304609F0B3F807463D
:10319000404609F0AFF8381A80E0258097E060805B
:1031A00020883188084420806088718808446080C5
:1031B000BDE8F081304609F09DF80546404609F02B
:1031C00099F805EBD571491000EBD070A1EB6000C8
:1031D0007CE0304609F08EF80546404609F08AF852
:1031E000281A73E025805FE0304609F083F8054631
:1031F000404609F07FF8281A55E02580084618E077
:10320000304609F077F80546404609F073F805EBBB
:10321000D571491000EBD070A1EB600007E030469B
:1032200009F068F80546404609F064F8281A20803D
:10323000404609F02DF84042B1E7258018E03046BD
:1032400009F058F80546404609F054F8014605EBE8
:10325000D570401001EBD171A0EB610007E0304662
:1032600009F048F80546404609F044F8281A20803D
:10327000304609F00DF892E7084609F03BF8404265
:103280000CE0084609F036F840420CE0084609F028
:1032900031F840421AE0304609F02CF8208071E7FE
:1032A000304609F027F82080304608F0F1FF054647
:1032B000404608F0EDFF05EBD571491000EBD070EA
:1032C000A1EB60006BE7304609F014F8208030462F
:1032D00008F0DEFF0546404608F0DAFF281A5EE7F0
:1032E00070B5B1F90030B2F90040A34200DC2346CA
:1032F0000380B1F90250B2F90240A54200DD2C462C
:103300004480B1F90460B2F90450AE4200DA3546A7
:103310008580B1F90610B2F90620914200DB114612
:10332000C1800120AB4201DC8C4200DD002070BD79
:10333000F8B50D460446B0F90000B1F90010164684
:10334000884247DBB4F90210B5F90220914241DB13
:10335000B4F90410B5F9042091423BDCB4F906102D
:10336000B5F90620914235DC96B3ADF800006088CF
:10337000ADF8020032466946284600F049F80028B8
:1033800027D0A088ADF800006088ADF80200324672
:103390006946284600F03CF800281AD02088ADF88D
:1033A0000000E088ADF8020032466946284600F089
:1033B0002FF800280DD0A088ADF80000E088ADF807
:1033C000020032466946284600F022F8002800D064
:1033D0000120F8BD0020F8BDB0F90020B1F904309B
:1033E0009A4213DCB0F90420B1F900309A420DDBA7
:1033F000B0F90220B1F906309A4207DCB0F90600B4
:10340000B1F90210884201DB0120704700207047AB
:103410002DE9FC4114460E46B1F90020B0F9001028
:1034200005468A423ADBB5F90400824236DCB6F939
:103430000270B5F90220974230DBB5F906309F42A1
:103440002CDC002C75DD401A9A1A401C521C00B26C
:1034500012B200EBD07002EBD272401052109042C8
:1034600000DB1046844200DD0446ADF800102888D9
:1034700000222044ADF804006888ADF80200688896
:1034800031462044ADF806006846FFF7C1FF40B161
:10349000BDF804002044ADF804003FE00020BDE882
:1034A000FC81E8880022001BADF80200E888ADF836
:1034B000060031466846FFF7ABFF28B1BDF80400AF
:1034C0002044ADF8040011E0A8880022001BADF8EC
:1034D0000000A888ADF8040031466846FFF798FF61
:1034E00050B1BDF80000001BADF80000BDF80200AF
:1034F000001BADF8020016E06888ADF8020068888D
:1035000000222044ADF8060031466846FFF780FFF0
:1035100070B1BDF80000001BADF80000BDF806005A
:103520002044ADF80600314668460FF06DFFB6E75F
:10353000FFE70120B3E710B5B1F90040B2F9003060
:103540009C4200DA23460380B1F90240B2F902300E
:103550009C4200DA23464380B1F90440B2F90430BA
:103560009C4200DD23468380B1F90610B2F90620A3
:10357000914200DC1146C18010BD30B50346808801
:103580001C885D88001BDC88401C198000B2641B0D
:10359000641C014624B25A80184608F0C9FE214630
:1035A000BDE83040184608F0BEBE2DE9FF4F87B099
:1035B0001D46DDE91476DDF858908B46022E50D377
:1035C000002F4ED001F0D6FB80460AF021F900F121
:1035D0001004D0F808A0D8F82410404601B188475C
:1035E0005A4604A80799FFF77BFE002839D0BDF89A
:1035F00010002188401A01B2ADF81010BDF8120079
:103600006288801AADF81200BDF814002288801A72
:1036100000B2ADF81400BDF816206388D21AADF8D8
:10362000162095B198F80820D2070ED1401A401CF8
:1036300001B2002007E02A5C802A01D9FF2200E0C5
:1036400000222A54401C8842F5DBD8F8140058B1F7
:10365000CDE90065029704AA51462046099B07F070
:1036600045F90BB0BDE8F08FB9F1000F0AD001A801
:10367000009680E8A00204AA51462046099B06F065
:10368000FBFEEEE7CDE90065029704AA514620460D
:10369000099B06F08BFFE4E72DE9FF4F87B01D463D
:1036A000DDE91476DDF858A09146022E52D3002FA2
:1036B00050D0014605A8089AFFF712FE002849D00D
:1036C00001F058FB80460AF0A3F800F11004D0F88E
:1036D00008B0D8F82410404601B18847BDF814005E
:1036E0002188401A01B2ADF81410BDF816006288A6
:1036F000801AADF81600BDF818002288801A00B2B2
:10370000ADF81800BDF81A206388D21AADF81A2057
:1037100095B198F80820D2070ED1401A401C01B28A
:10372000002007E02A5C802A01D9FF2200E0002265
:103730002A54401C8842F5DBD8F8140068B1CDF853
:1037400000900397CDE9016505AA59462046089BDC
:1037500012F0B8FD0BB0BDE8F08FBAF1000F0BD03E
:1037600002A805AA80E8A004CDE9009659462046A3
:10377000089B12F05BFBEDE7CDF800900397CDE9D5
:10378000016505AA59462046089B12F0FFFBE1E7B8
:103790002DE9FC5F054612F08FF9554C0190E86861
:1037A00060600021284611F095F86068016CA9B1AD
:1037B00010F002F80FF078FF60684E4AD0F87C11E4
:1037C00011427DD0A3460AF0BAF8002867D0DBF892
:1037D00004005D464169002961D108E04549D0F8FF
:1037E0007C21C9430A40C0F87C21BDE8FC9F0AF057
:1037F0000FF8044610F0DAF8A0690028FCD16868D8
:10380000B0F90000400000F081FE8246A168206807
:103810008946814200D16068804668680AF00CF8E9
:1038200006460024AB462DE00A1992F85E213ABB09
:1038300001EBC40131F95E2FB1F9025016FB0523EB
:1038400089885F00891A491C09B2490000910FE07C
:1038500008EB07015046009A00F0F8FE09EB07005C
:103860005146009A00F0F2FE6D1C07EB46072DB2A0
:10387000DBF8040000EBC400B0F96400A842E7DA0A
:10388000641CA4B2DBF80410D1F87C21C2F3094215
:10389000A242C9D8BAF1000001D000F099FEDBF8CD
:1038A00004004FF480715C465E3000F0DDFF60681C
:1038B000202100F5AF7000F0D7FF60680D4A00E0EE
:1038C0000FE0D0F87C11D2431140C0F87C11019870
:1038D00012F0ECF863689D691DB101461846226834
:1038E000A84700F0F1FDBDE8FC5F00F005B800005E
:1038F000400000200000FF0310B5044C20680028A1
:1039000003D00DF085FA0020206010BDF0000020EB
:103910001C21014800F0DBBCC80500202DE9FF5F39
:103920000446DDE90E0613B9B0F5807F7ED0B6F906
:1039300000504FF0FF376D42454307EB25252DB270
:103940002580B6F902C0CCF1000C0CFB00FC07EBA3
:103950002C273FB26780B6F900C0A1EB0C014143B0
:103960004FF0020C0CEB212109B2A180B6F90280C4
:10397000A2EB080242430CEB222000B2E080002BB5
:103980007ED04FF00A0A93FBFAF5684200EB800004
:1039900003EB400705F1010928B201F059FD009041
:1039A0000FFA89F001F054FD83465A3528B201F030
:1039B0004FFD804609F15A0000B201F049FD014671
:1039C000009AC7F10A0000FB02F300FB08F00BFBB2
:1039D000073301FB070193FBFAF291FBFAF04FEA80
:1039E000601AB4F90010B4F902000AFB01FCCDF82A
:1039F0000CC05511378805FB10C207EBA2220FFA45
:103A000082F905FB01F2BB46029277880AFB00218E
:103A100007EBA1210BB2B4F90410BE460AFB01FC6E
:103A200005FB10C20BEBA22216B200E02FE005FB53
:103A300001F7CDE9007CB4F90680DDF80CC00AFB83
:103A4000007005FB18C1DDF804C0009F05FB18C518
:103A5000029A0AFB087C0AFB08220BEBA1210EEB61
:103A6000AC270EEBA02009B20EEBA2220BEBA52592
:103A70000FFA87FC00B212B22DB24F46494500E062
:103A80000EE000DA0F46B54216DAA84615E000202F
:103A90002080491E6080A180521EE280BDE8FF9F09
:103AA00032882A44228072883A44628032881144E3
:103AB000A180718808444FE0B046474504DA4F467C
:103AC000494506DA0F4604E0B54201DA2F4600E028
:103AD000374627804F46494500DD0F46B54201DD98
:103AE000A84600E0B046474503DD4D46494505DCA4
:103AF00001E0B54201DD294600E03146A1809A424D
:103B000001DA154600E01D46844501DA614600E011
:103B100001468D4205DA9A4201DA114606E019465D
:103B200004E0844501DA614600E0014661809A4282
:103B300001DD114600E01946844501DD654600E0DF
:103B40000546A94205DD9A4201DD104604E018460B
:103B500002E0844500DD6046E0809FE72DE9FE4FEE
:103B60000446D0F800B0B0F90800E589081AB4F9A5
:103B70000A10511AD4E90932B5F5807F3CD0A589E5
:103B8000002DA56B05FB00F005FB01F54FEA601069
:103B90004FEA65113ED0256BE66A05FB00F706FB90
:103BA0001177464305FB016003EBA72902EBA02038
:103BB00080460612B4F904004FEA2927B84248DDCE
:103BC000002F46DBB4F90610B14242DD002E40DB87
:103BD00094F834104A073FD58A0704F114031DD422
:103BE00000FB067045004FF0020A0BEB0501524640
:103BF000184600F0D7FD22E0256BE66A05FB00F7CA
:103C000006FB1177464305FB016003EBA70902EBB6
:103C1000A000CDE703EB00095018C9E700FB0670D0
:103C200000EB40054FF0030A0BEB0501022218469A
:103C300000F0B8FDE81C584410F8010CA07594F889
:103C40003400C0071ED01948A18A008880B2814282
:103C500018D10020BDE8FE8F32B204F118002369AC
:103C6000CDE90102002539B2AA468B460BF008FBCC
:103C70000090BDF80000A082DDE9010259460BF07A
:103C800097FADBE7E07C78B1A4F83C90A4F83E809A
:103C9000A4F84070A4F84260656484F848A0204607
:103CA000BDE8FE4F00F004B80120D3E7649E010890
:103CB0002DE9F04F044690F83C10D0F8009090F8B1
:103CC0003E0087B04FF0FF36702907DAB4F9402084
:103CD0003546012A00D5002580310DE0902916DDFA
:103CE000B4F94020B4F904300125521C9A4200DB9B
:103CF0000025A1F27F114942C9B28846702809DA2D
:103D0000B4F94210012900D50026803010E00025CA
:103D1000FF21F2E790280DDDB4F94210B4F9062036
:103D20000126491C914200DB0026A0F27F10404290
:103D3000C7B201E00026FF2760690090A07D0590D2
:103D4000002083468246049094F83400400744D50E
:103D500094F84810606C11FB05014944022201A847
:103D600000F02CFDA08894F8481010FB01F0616C65
:103D7000022206FB0011494403A800F01FFDA188A0
:103D800094F8480011FB00F1626C06FB012210FB65
:103D900005901118022202A800F010FD94F83400DA
:103DA000800761D594F84800626C10FB052300EB96
:103DB00009010B4413F8013C0493A38813FB00F39F
:103DC00006FB0322114411F801BC10FB0500111879
:103DD00001EB090010F8010C45E0B4F84000B4F91B
:103DE0004220284401B204F11800814623690BF0F7
:103DF00047FA0190B4F84200B4F94010304402B2DE
:103E000054F8103F48460BF03BFA0390608E23684D
:103E1000304402B2208E284401B248460BF030FAFA
:103E2000029094F82400103C80071DD5B4F942207C
:103E300034F8400F284401B248460BF0B9F9049019
:103E40006088B4F90010304402B248460BF0B0F973
:103E500083466088304402B234F84009284401B2F5
:103E600048460BF0A5F9824694F834004246454690
:103E7000800735D5059810FB08F30499C8F1FF00B9
:103E800011FB0031C1F307211BFB08F61AFB006090
:103E9000C0F3072011FB07F3C7F1FF0610FB063341
:103EA0001B0AA375022907D8022803D8002007B0EF
:103EB000BDE8F08F002702E0022800D8FF27059810
:103EC000022800D800220498022800D8FF22BBF163
:103ED000020F00D80025BAF1020F03D8FF2501E038
:103EE000FF20A075EAB1FF2A04D0DDE9000108F047
:103EF0009BFC0090BDB1FF2D17D0DDE902102A46D2
:103F000008F092FC049097B1FF2F05D001463A4685
:103F1000009808F089FC0090BDF80000A082012004
:103F2000C5E70198E5E70298ECE70398EAE7BDF8F2
:103F30001000F3E72DE9F0470446B0F908000A271E
:103F400000026062B4F90A000002A062B4F90C1029
:103F500091FBF7F5684200EB800001EB40066842F8
:103F600005F1010800B201F073FA8246E84300B29D
:103F700001F06EFA8146C5F15A0000B201F068FA0C
:103F80000546C8F15A0000B201F062FAC6F10A0112
:103F900001FB0AF3024609FB0630694390FBF7F088
:103FA00002FB061191FBF7F14011E062481120631A
:103FB000A07C0BF067FA94F8341060F3000184F8E9
:103FC0003410A07C0BF04EFA94F8341060F34101E9
:103FD00084F83410A07C042824D0052822D0062898
:103FE00020D021F0040100BF84F834102168216240
:103FF000A16921F0E00160F30401A08860F394213D
:10400000E08860F35F51A161E0894FF4001101EB9A
:104010005001B1FBF0F0A063FF20A075208AA082C0
:10402000BDE8F08741F00401DEE700002DE9F0472C
:104030003B4E88468146318821B13A483A4C056862
:1040400000200EE00020BDE8F08700BF00EBC002BA
:1040500005EB82031A6AA24201DD521E1A62401C5D
:1040600080B28842F2D300241FFA88F721E000BF13
:1040700004EBC40005EB800001898F4217D1416831
:1040800048460BF099F990B104EBC40005EB8000B1
:104090004269016A11444FF47A720162914200DD73
:1040A00002620028CFD12C460120328811E0641C26
:1040B000A4B230888442DBD3F5E700BF00EBC00137
:1040C00005EB8101266A0B6AB34200DA0C46401CFC
:1040D00080B29042F2D3606810B120460BF009FC28
:1040E00011F0EAFC05464246494620460BF044FCE6
:1040F00020B100202062606940B10EE024212046FA
:1041000000F0B2FB4FF0004020629BE7284611F020
:10411000CDFC606108B901206061204693E7000092
:1041200050000020D80000200100008010B51421AC
:10413000074800F0CCF80BF0EFFB002807D005494A
:10414000016005494160054981600549C16010BDB4
:10415000D4050020C5F4000889F7000893F800088A
:104160009FF40008002108460BF09EBD7FB50D4668
:10417000040003D109F04EFB040025D02E4EF5B10A
:104180000020ADF80000ADF80200204609F054FB15
:10419000401EADF80400204609F0B2FB401EADF809
:1041A00006006A46294602A8FFF79AF800280BD0B5
:1041B000226912B102A920469047002511E0D4F8E7
:1041C0007C013040C4F87C017FBD00BF04EBC50119
:1041D000002202A85E31FFF7ABF80028F4D16D1C75
:1041E000ADB2D4F87C01C0F30940A842EED8D4F8AF
:1041F0007C01C0F30941202903D204EBC10002A9CC
:1042000007E03040C4F87C01C0F3094004EBC00073
:1042100069465E3008F002F8D4F87C014FF4800162
:1042200001EBB0604FEAB010C4F87C010321206BB1
:1042300010F050FB7FBD0000FFFF00FC70B50C4686
:104240001E461546114600F0F2F8AEB1002229468E
:10425000204612F039F929462046626812F02EF9FC
:10426000616819B12A46204612F02EF96560A068EF
:10427000002800D1A56070BD29462046A26812F032
:1042800023F900222946204612F018F9A16819B135
:104290002A46204612F012F9A56060680028EAD18B
:1042A000656070BD002100B1416808467047002874
:1042B00002D00068091D40587047002801D00068EE
:1042C00040587047002100B18168084670470022BD
:1042D0004260C91C21F0030182600160704770B523
:1042E0000446006808300CF03FFD050013D001467D
:1042F0000022204612F0E8F829462046626812F0B3
:10430000DDF8616819B12A46204612F0DDF86560D3
:10431000A06800B9A560284670BD2DE9F0410D46A2
:1043200007002BD055B3FFF7BDFFA84204D1384694
:10433000FFF7D5FF04461EE0386808300CF014FD86
:1043400004001BD029463846FFF7B7FF0646014652
:104350002246384612F0B2F832462146384612F06C
:10436000B3F822462946384612F0AEF82A462146CE
:10437000384612F0A3F82046BDE8F0810020FBE7A4
:1043800070B50446006808300CF0EEFC050013D050
:1043900001460022204612F091F829462046A268E4
:1043A00012F092F8A16819B12A46204612F086F858
:1043B000A560606800B96560284670BD28B1416895
:1043C00009B9806808B100207047012070472DE9C5
:1043D000F04116460D460746B14226D01EB11146A1
:1043E000FFF76BFF01E0FFF76DFF0446A5421CD00D
:1043F0002946384600F01BF82A462146384612F076
:104400005DF822462946384612F05EF82A463146C3
:10441000384612F059F832462946384612F04EF81E
:1044200006B9BD60002C00D17D60BDE8F08170B59B
:104430000A460446FFF736FF002390420AD1114690
:104440002046FFF734FF6060011E01D0002224E007
:10445000A36070BD2046FFF735FF9042114620460D
:104460000CD1FFF72AFFA060011E05D02046BDE851
:104470007040002212F022B8636070BDFFF71DFF8C
:10448000064611462046FFF712FF05460246314612
:10449000204612F013F8324629462046BDE8704007
:1044A00012F012B810B59042029C01DB204610BDFC
:1044B000884201DC184610BD521AE41A401A6043C3
:1044C00090FBF2F0184410BD70B500200D49054670
:1044D00001EBC002401CC0B295710228F8D30A4E0D
:1044E000002400BF56F8340038B10CF091FC06EB04
:1044F000C40046F8345085718580641CE4B2102CE9
:10450000F0D370BD04010020EC0500202DE9F0413E
:10451000050048D00126102D0BD82B49002000BFE4
:1045200001EBC0029279D2070ED0401CC0B2022823
:10453000F6D3264C4FF0FF30002200BF04EBC2013F
:104540008B79DB0707D018E001EBC002967151F8B8
:104550003000BDE8F0818988A9420ED305D104EB73
:10456000C200867154F83200F3E7002804DB04EB44
:10457000C0039B88994200D250B2521CD2B2102A7A
:10458000DCD3002805DB04EBC0018E7154F8300049
:10459000DFE7002704EBC7008079C00705D07F1C48
:1045A000FFB2102FF6D30020D3E754F83700294686
:1045B0000CF05CFC0028CCD004EBC7018E718D8020
:1045C00044F83700C5E7000004010020EC05002096
:1045D00010B500210C4B0A4653F83140844209D0F3
:1045E000491CC9B20229F7D3084B002153F83140C6
:1045F000844203D103EBC100827110BD491CC9B2D2
:104600001029F3D310BD000004010020EC050020A8
:10461000002803D00449884201D10020704750F897
:10462000040C400870470000FC00002006490548C3
:1046300047F6FC724860016821F0010162F35F01F6
:1046400001607047EC060020F400002030B500F057
:10465000030401F003050346A54243D14EE00C7864
:104660001C704C785C708C789C70CC78DC700C7909
:104670001C714C795C718C799C71CC79DC710C7AF1
:104680001C724C7A5C728C7A9C72CC7ADC720C7BD9
:104690001C734C7B5C738C7B9C73CC7BDC730C7CC1
:1046A0001C744C7C5C748C7C9C74CC7CDC740C7DA9
:1046B0001C754C7D5C758C7D9C75CC7DDC750C7E91
:1046C0001C764C7E5C768C7E9C76CC7EDC760C7F79
:1046D0001C774C7F5C778C7F9C77CC7FDC7720319C
:1046E000203A2033202ABAD805E000BF11F8014B48
:1046F00003F8014B521E002AF8D130BD4CB3C4F16F
:10470000040405E011F8015B521E03F8015B641E0E
:10471000FCB1002AF6D11CE010C9203A10C310C920
:1047200010C351F8084B43F8084B51F8044C43F8B8
:10473000044C51F8104B43F8104B51F80C4C43F813
:104740000C4C51F8084C43F8084C51F8044C43F811
:10475000044C202AE0D802E010C9121F10C3042A1A
:10476000FAD804E011F8014B03F8014B521E002A5D
:10477000F8D130BD10B5034605E000BF11F8014B7C
:1047800003F8014B521E002AF8D110BD10B50346A4
:1047900005E000BF11F8014B03F8014B521E002A3F
:1047A000F8D110BD10B5034605E000BF11F8014B6C
:1047B00003F8014B521E002AF8D110BD10B5034674
:1047C00005E000BF11F8014B03F8014B521E002A0F
:1047D000F8D110BD10B5034605E000BF11F8014B3C
:1047E00003F8014B521E002AF8D110BD10B5034644
:1047F00005E000BF11F8014B03F8014B521E002ADF
:10480000F8D110BD10F0030309D0C3F1040303E095
:10481000521E00F8011B5B1E0BB1002AF8D101EB00
:10482000012303EB014303EB01630EE008C0203AD0
:1048300008C040F8083B40F8043C40F8103B40F802
:104840000C3C40F8083C40F8043C202AEED801E03B
:1048500008C0121F042AFBD803E000BF00F8011BA8
:10486000521E002AFAD1704710F003034FF00002E5
:1048700019D0C3F1040303E0491E00F8012B5B1EAD
:104880008BB10029F8D1704704C0203904C040F82A
:10489000082B40F8042C40F8102B40F80C2C40F862
:1048A000082C40F8042C2029EED801E004C0091F90
:1048B0000429FBD803E000BF00F8012B491E0029A2
:1048C000FAD1704710F003024FF0FF030AD0C2F193
:1048D000040203E0491E00F8013B521E12B10029F8
:1048E000F8D170474FF0FF320EE004C0203904C009
:1048F00040F8082B40F8042C40F8102B40F80C2C02
:1049000040F8082C40F8042C2029EED801E004C01F
:10491000091F0429FBD802E000F8013B491E0029C9
:10492000FAD1704770B50D46064600242146304640
:104930000CF0EEFF38B14168641C65F3CB21E4B2A2
:104940004160402CF2D34024214630460CF0E0FF79
:10495000002807D04168641C65F3CB21E4B24160B4
:10496000FF2CF1D370BD00002DE9F04786B015464D
:104970008A461646170A04464FF0000820E05146C2
:1049800020460CF0C5FF8146514620460CF072FFD0
:1049900006EB002085B202AA2946484600F0D3FA69
:1049A000012807D038060DD5BAF1000F07D04FF017
:1049B000000A05E0BDF8080006B0BDE8F0872468ED
:1049C000002CDCD125F4FE40292804D02A2802D06E
:1049D000CDF8008002E0034800680090BDF80000B8
:1049E000EAE70000609E01082DE9F8438946064683
:1049F000154617464FEA1228ABE0494630460CF000
:104A000087FF04464068010570D481066ED04005DA
:104A100005D425F4FE424946304614F0A5FA25F4A3
:104A2000FE40302859D024DC112869D010DC05283C
:104A300050D006DC01285DD0022845D004286CD176
:104A400048E0062846D0072844D0102865D157E012
:104A5000162858D006DC122852D0132850D015281A
:104A60005BD150E017284ED018284CD0202854D1C4
:104A70004CE060284AD010DC402838D006DC3128D1
:104A80002ED0322842D0332847D12CE042283DD0C6
:104A9000502832D0542840D138E048F28102811A9F
:104AA000904214D009DC722830D091282ED000F525
:104AB000FF40B0F5803F30D109E0012929D002291B
:104AC00024D01F2929D121E0A088400423E0606878
:104AD000800020E0A08800041DE0606880021AE0E9
:104AE0006068400217E06068000214E015E060684A
:104AF000C00110E0A088C0040DE0606840010AE039
:104B00006068C00307E06068800304E060684003F9
:104B100001E06068400000281EDB494630460CF08A
:104B2000A9FE07EB002085B26A462946204600F020
:104B300046FA012808D05FEA08600DD5B9F1000FE8
:104B400006D04FF0000904E0BDF90000BDE8F8838D
:104B50003668002E7FF451AF25F4FE40222811D094
:104B600004DC03280AD0072804D10DE0312803D043
:104B7000C02805D00020E9E70F20E7E70120E5E79E
:104B80000220E3E7FF20E1E74FF48070DEE72DE944
:104B9000F8431446894617464FEA1228054644E072
:104BA000494628460CF0B4FE0646406801051DD46F
:104BB00081061BD0400505D424F4FE424946284610
:104BC00014F0D2F924F4FE402C2809D00C38B0F5AA
:104BD000004002D0A12809D11FE0B088800403E082
:104BE0007068C1022DD40003002820DB4946284606
:104BF0000CF040FE07EB002084B26A4621463046A6
:104C000000F019FA01280BD05FEA08600FD5B9F15E
:104C1000000F09D04FF0000907E07068C000E3E71B
:104C20009DF80000BDE8F8832D68002DB8D124F46C
:104C3000FE402C2807D06D2805D0AD38B0F5004FC8
:104C400001D0FF20EEE70020ECE700002DE9F8435B
:104C50001446894617464FEA1228054640E0494661
:104C600028460CF055FE0646406801051DD4810615
:104C70001BD0400505D424F4FE424946284614F0D2
:104C800073F924F4FE406E2809D07F2804D08E38B2
:104C9000B0F5004F09D105E07068000103E07068CD
:104CA000800100E0706800281CDB494628460CF0B3
:104CB000E1FD07EB002084B26A462146304600F051
:104CC000F6F9012808D05FEA08600BD5B9F1000FAA
:104CD00005D04FF0000903E00098BDE8F8832D6887
:104CE000002DBCD124F4FE407E2807D0BE2808D079
:104CF0008E38B0F5004F01D00020EEE710F068FECE
:104D0000EBE70148E9E70000601002082DE9F041F7
:104D10001F4614460D4606460CF0FAFD3A4621465B
:104D200000F074FA002322462946304614F08CF82D
:104D300024F4FE4229463046BDE8F0410DF024BA85
:104D400070B50C460123002110E0D50706D01D46A2
:104D5000A5FB003601FB006105FB0411A0FB00561A
:104D600004FB006600FB046452102846002AECD1C4
:104D7000184670BD014840687047000040000020A0
:104D8000704730B504020020831803FB03F5A542E9
:104D900000D818465208F7D1020900070A80000E11
:104DA000488030BD70B51646054606F0DDF90400B2
:104DB00002D54FF0FF3070BD2968A01C01440222CB
:104DC0003046FFF7E3FC2146284606F00AFA00F0D9
:104DD0007F0070BD70B51646054606F0C5F90400A3
:104DE00002D54FF0FF3070BD2968A01C014402229B
:104DF0003046FFF7CBFC2146284606F0F2F900F0DA
:104E00007F0070BD70B5050003D0286808B100248C
:104E100005E0002070BD00BF06F098F9044421466B
:104E2000284606F0E3F9FF28F6D1A41CA0B270BD15
:104E300070B51646054606F097F9040002D54FF006
:104E4000FF3070BD2968A01C014401223046FFF7E5
:104E50009DFC2146284606F0C4F900F07F0070BD95
:104E600070B51646054606F07FF9040002D54FF0EE
:104E7000FF3070BD2968A01C014404223046FFF7B2
:104E800085FC2146284606F0ACF900F07F0070BD95
:104E900070B50D46040030D000F048F96068810616
:104EA00012D08006010E091D20680BF0DFFF0028DC
:104EB00023D0616800220B0600D501224B0600D5E5
:104EC000521C01F03F010BE004200BF04DFFEEE718
:104ED00000EB810353F8043C40F82130491EC9B26D
:104EE0009142F5D840F8225061684FF0806202EBA1
:104EF000B1114FEAB161C4E9000170BD70B504465B
:104F00000079000604D52046BDE8704000F006B9DF
:104F100004200BF029FF050013D00FF03EFA2946BC
:104F20002046FFF7B5FF606840F0800060604006F3
:104F300005D52068D0E9001202602068416028464B
:104F400070BD002070BD2DE9F84317468946060064
:104F500033D0306800282ED000204FEA19284FF0B7
:104F6000FF34ADF8000005461DE0E9B230460FF011
:104F700093FA6A464946FFF715FF404503D1BDF84D
:104F80000000388016E071680A0604D5002802DBAC
:104F90000DB9C905F3D5A04203DD0446BDF80000F4
:104FA00038806D1C2DB2307900F03F00A842DCDC67
:104FB000002C02DB0120BDE8F8830020FBE72DE98F
:104FC000F84317468946060033D0306800282ED0B3
:104FD00000204FEA19284FF0FF34ADF800000546D5
:104FE0001DE0E9B230460FF057FA6A464946FFF72E
:104FF000F1FE404503D1BDF80000388016E071682D
:105000000A0604D5002802DB0DB9C905F3D5A04274
:1050100003DD0446BDF8000038806D1C2DB23079E8
:1050200000F03F00A842DCDC002C02DB0120BDE8E0
:10503000F8830020FBE72DE9F84317468946060070
:1050400033D0306800282ED000204FEA19284FF0C6
:10505000FF348DF8000005461DE0E9B230460FF040
:105060001BFA6A464946FFF7E3FE404503D19DF827
:105070000000387016E071680A0604D5002802DBCB
:105080000DB9C905F3D5A04203DD04469DF8000023
:1050900038706D1C2DB2307900F03F00A842DCDC86
:1050A000002C02DB0120BDE8F8830020FBE72DE99E
:1050B000F8431746894606002ED03068002829D0CC
:1050C0004FEA19284FF0FF3400251BE0E9B23046C3
:1050D0000FF0E2F96A464946FFF7C2FE404502D1A9
:1050E0000098386015E071680A0604D5002802DBD4
:1050F0000DB9C905F4D5A04202DD04460098386018
:105100006D1C2DB2307900F03F00A842DEDC002C8F
:1051100002DB0120BDE8F8830020FBE701790906E6
:1051200001D40020704700680068704770B50D46D4
:1051300041680446880617D0002001F03F0111E0C5
:10514000226852F82020AA420AD101290DD08800F5
:10515000001F0BF009FE060006D00020014619E0F2
:10516000401CC0B28142EBD870BD20680BF050FEED
:1051700000202060606820F07F00606070BD2268C1
:1051800052F82020AA4203D046F82120491CC9B277
:10519000401CC0B2227902F03F028242EFD8206860
:1051A0000BF036FE60684FF07C4101EBB0104FEA27
:1051B000B060C4E9006070BD70B5040025D02079EE
:1051C000400609D520460FF05BF9050004D00FF02A
:1051D000A4F928460BF01CFE2079000609D52046CC
:1051E000FFF79CFF050004D00FF097F928460BF05D
:1051F0000FFE2079800602D020680BF009FE002007
:10520000206060686FF30800606070BD70B5144680
:105210000D4605F01FFE22462946BDE8704000F00D
:10522000C6B837B582B00546BDF80C1005F09CFF36
:10523000040011D40146284605F0D3FFBDF80C1038
:1052400000F07F00C1F30621884205D1A41C286824
:105250000222204404A922E0FF20ADF800002846E5
:10526000FFF7D0FD00B90220001D84B22146284678
:1052700012F0D1FB002814D028680222204403A990
:10528000801FFFF783FA28680222204404A9001F28
:10529000FFF77CFA2868022220446946801EFFF747
:1052A00075FA05B030BD37B582B00546BDF80C10B3
:1052B00005F05AFF040011D40146284605F091FF7D
:1052C000BDF80C1000F07F00C1F30621884205D123
:1052D000A41C28680222204404A922E0FF20ADF883
:1052E00000002846FFF78EFD00B90220001D84B2A1
:1052F0002146284612F08FFB002814D0286802228D
:10530000204403A9801FFFF741FA286802222044A5
:1053100004A9001FFFF73AFA2868022220446946D0
:10532000801EFFF733FA05B030BD37B582B00546B1
:10533000BDF80C1005F018FF040011D401462846F2
:1053400005F04FFFBDF80C1000F07F00C1F30621FF
:10535000884205D1A41C28680122204404A922E027
:10536000FF20ADF800002846FFF74CFD00B90220F1
:10537000C01C84B22146284612F04DFB002814D0F0
:1053800028680222204403A9401FFFF7FFF928687C
:105390000122204404A9C01EFFF7F8F92868022260
:1053A00020446946801EFFF7F1F905B030BD37B5DE
:1053B00082B00546BDF80C1005F0D6FE040011D4ED
:1053C0000146284605F00DFFBDF80C1000F07F00E7
:1053D000C1F30621884205D1A41C28680422204478
:1053E00004A922E0FF20ADF800002846FFF70AFDDF
:1053F00000B90220801D84B22146284612F00BFB22
:10540000002814D028680222204403A90838FFF796
:10541000BDF928680422204404A9801FFFF7B6F9CB
:105420002868022220446946801EFFF7AFF905B0C4
:1054300030BD000010B518210348FEF748FF0349AE
:105440000120087010BD000080050020140100201C
:105450004FF4B47190FBF1F201FB1200002802DA64
:1054600000F5B47000B20E495A2802DA31F9100082
:105470007047A0F15A025A2A03D2C0F1B40000B218
:10548000F4E7A0F1B4025A2A01D210B202E0C0F54A
:10549000B47000B231F81000404200B27047000012
:1054A0006A1002082DE9F04190460C460546FBF7CC
:1054B00024F80B4F06462146BA6828469047044612
:1054C000BA682819414690470146701A03E06218ED
:1054D000AA5C2A55641CA042F9D2BDE8F081000004
:1054E000240100202DE9F04788B01D46109E924609
:1054F0008946040007D0B9F1000F04D016F0120F4E
:1055000010D0002004E0002008B0BDE8F087401C67
:10551000215C0A2904D00D2902D00029F7D1F3E734
:10552000401CF1E7B00701D547F618454FF00008D9
:105530008DF81480204FCDF8108021E00498CDF82C
:10554000188028B3002105AB06AACDE90231CDE9C8
:10555000006220442B465246494610F0AFFA0699A5
:10556000691A0DB2B0B104990844049021780A294F
:105570000BD00D2909D0205C0A2812D00D2810D09C
:105580000498205C08B1002DD8DC049868B110E0C4
:105590000121D8E7049860B97A6804A920469047A9
:1055A000F3E70498401C0490EFE77A6804A92046CA
:1055B00090470498A8E70000240100202DE9FF4F40
:1055C00083B004464FF00000DDF848A0DDF84090BD
:1055D000208093460F00608047D0BBF1000F44D07D
:1055E0005FEA8A7002D547F6184011900025A84658
:1055F000BBF8086023E07819CDE900A05946119B5B
:10560000069AFFF76FFF8044B4F9020006EB090128
:105610000144B1F5004F28D2304448446080A8EBE3
:105620000501CDF800A05A46069B019800F022F82B
:10563000B4F90010814200DB084620804546785DC1
:105640000028D8D15DB1781910F8010C0A2801D0D2
:105650000D2804D1618806EB090008446080B4F984
:10566000020028B1A0EB0900608007B0BDE8F08F10
:105670006680FAE72DE9FC5F1F46DDF830A0914611
:105680000E4605000CD0B9F1000F09D0287800288B
:1056900007D00020044600908DF804002EBB2BE0BC
:1056A0000020BDE8FC9FDFF8548069462846D8F802
:1056B0000420904783460098D8F80420284400210D
:1056C000904780465FEACA7004D0594601A800F0AE
:1056D0003DF850B942465946484609F0BFFC00B271
:1056E000002802DD2044384404B20098B042DAD3E6
:1056F000002C01DDE01B04B22046D2E7240100208B
:105700002DE9F041174688460646FAF7F6FE0446AC
:105710003846FAF7F2FE050014D00B4A2C444146F5
:10572000926830469047411903E0621BB25C3255E3
:10573000641EA142F9D930442A463946BDE8F041F9
:10574000FFF748B8BDE8F08124010020002302786B
:10575000232902D0012A0DD00FE02AB10021012A0D
:1057600004D0022A04D008E0012101E0017004E025
:10577000017001E0202902D0012318467047022160
:10578000F6E700002DE9F0471E4614460D46824616
:10579000DDF8209015E000BF4FEA540808FB0657DB
:1057A000394650464A469047002808DD44F3000039
:1057B000C0EB540407EB0605A4F1010401E005DA8F
:1057C0004446002CE8D12046BDE8F0873846FBE788
:1057D00070B5002500280CD04FF0000213460DDAFA
:1057E0004FF02D020A704FF00102C0F10000134685
:1057F00012E04FF0300008704D7020E04FF00A06C4
:1058000090FBF6F406FB140490FBF6F004F1300470
:105810008C5402F1010252B20028EFD18D54A2F152
:10582000010250B209E0CA5C0C5CCC540A54A0F1ED
:10583000010003F1010340B25BB29842F3DC084679
:1058400070BD0000B02808D2054A02EB0012536870
:105850001BB1927B0AB111F08DB800207047000097
:105860006093010810B5074C012020700648FEF730
:1058700019FD28B10421A068BDE810400FF02AB836
:105880000021F8E7CC000020BC05002010B504463C
:1058900090F83E00616B92B0820707D4A28F3AB1B4
:1058A000A2F57F43FF3B1CD0521EA287A28FC2B934
:1058B00009B1820715D5442221466846FEF7C6FE87
:1058C00021461448FEF7B3FD20460BF0A1FAFFF77E
:1058D000C9FF0398002802D001466846884712B0E5
:1058E00010BDA26B5242E2620029F8D0820702D4B6
:1058F000226B5242E2624210521C62F3410084F871
:105900003E00636AE269E3616262800700D4216C51
:10591000A162E4E7BC05002070B5294D686810F06D
:10592000C5F80646687880F0010068703AE000200B
:10593000287094F83E006978C0F380028A4235D01E
:1059400061F3820084F83E00E06A8119002805DCDA
:10595000002903DBA16809B120468847E06A801965
:10596000E0621DD4A16A884200DDE16262692146DD
:1059700004F114000AB1904701E006F0E8FB216A47
:10598000814206D0206262681AB1236801B21846CB
:105990009047D4E90A01814202DB2046FFF776FFF7
:1059A000287818B10748FEF77DFC03E0214605483A
:1059B000FEF77DFC0400BAD110F07EF8686070BD7F
:1059C000CC000020BC05002070B504468068154658
:1059D0000E4608B1FFF7F8FF626822B1294630464B
:1059E000BDE8704010472368002B06D003482A46C4
:1059F00031460068BDE87040184770BD4001002086
:105A00002DE9F041454C20681C300EF086FD444FD6
:105A100020680021FA681C300EF0B2FD002007F06B
:105A2000FFFE00EBC00101EB00104FF4A076A025B3
:105A30005030B0420ADB002007F0F2FE00EBC0015C
:105A400001EB0010503090FBF5F000E0012002B2B5
:105A5000206800211C300EF09DFD206801220021ED
:105A60001C300EF092FD206820300EF056FD97F8A5
:105A70002000800701D52B4800E02B4806F0AEFD42
:105A800002462068002120300EF07AFD002007F049
:105A9000C7FE00EBC00101EB00105030B0420ADB42
:105AA000002007F0BDFE00EBC00101EB00105030FC
:105AB00090FBF5F000E0012002B2206800212030C8
:105AC0000EF068FD20680122002120300EF05DFDFF
:105AD000206824300EF021FD206847F6FF72002177
