:0200000400FFFB
:1000000002007075E900A9D7BA75EA00759300750A
:10001000940075910075920075950075960075B104
:100020000075B20075B30075B40075C90075CA00DB
:1000300075CB0075CC0075E10075E200C2CB74FA97
:1000400012005AD2CB74FA12005AC2CB74FA1200C0
:100050005AD2CB74FA12005A80E27CAB7E440FA0D5
:100060007D341B347D4378F87CBA147CAB78ED2268
:100070007584017E44041FE47A49B01B4478F97EFC
:06008000F8000702000376
:00000001FF
